{
  "contractName": "Parameterizer",
  "abi": [
    {
      "constant": true,
      "inputs": [],
      "name": "PROCESSBY",
      "outputs": [
        {
          "name": "",
          "type": "uint256"
        }
      ],
      "payable": false,
      "stateMutability": "view",
      "type": "function"
    },
    {
      "constant": false,
      "inputs": [
        {
          "name": "_propID",
          "type": "bytes32"
        }
      ],
      "name": "processProposal",
      "outputs": [],
      "payable": false,
      "stateMutability": "nonpayable",
      "type": "function"
    },
    {
      "constant": true,
      "inputs": [
        {
          "name": "",
          "type": "bytes32"
        }
      ],
      "name": "proposals",
      "outputs": [
        {
          "name": "appExpiry",
          "type": "uint256"
        },
        {
          "name": "challengeID",
          "type": "uint256"
        },
        {
          "name": "deposit",
          "type": "uint256"
        },
        {
          "name": "name",
          "type": "string"
        },
        {
          "name": "owner",
          "type": "address"
        },
        {
          "name": "processBy",
          "type": "uint256"
        },
        {
          "name": "value",
          "type": "uint256"
        }
      ],
      "payable": false,
      "stateMutability": "view",
      "type": "function"
    },
    {
      "constant": true,
      "inputs": [
        {
          "name": "_propID",
          "type": "bytes32"
        }
      ],
      "name": "propExists",
      "outputs": [
        {
          "name": "",
          "type": "bool"
        }
      ],
      "payable": false,
      "stateMutability": "view",
      "type": "function"
    },
    {
      "constant": true,
      "inputs": [
        {
          "name": "_challengeID",
          "type": "uint256"
        }
      ],
      "name": "challengeWinnerReward",
      "outputs": [
        {
          "name": "",
          "type": "uint256"
        }
      ],
      "payable": false,
      "stateMutability": "view",
      "type": "function"
    },
    {
      "constant": true,
      "inputs": [
        {
          "name": "_name",
          "type": "string"
        }
      ],
      "name": "get",
      "outputs": [
        {
          "name": "value",
          "type": "uint256"
        }
      ],
      "payable": false,
      "stateMutability": "view",
      "type": "function"
    },
    {
      "constant": true,
      "inputs": [
        {
          "name": "_propID",
          "type": "bytes32"
        }
      ],
      "name": "challengeCanBeResolved",
      "outputs": [
        {
          "name": "",
          "type": "bool"
        }
      ],
      "payable": false,
      "stateMutability": "view",
      "type": "function"
    },
    {
      "constant": false,
      "inputs": [
        {
          "name": "_propID",
          "type": "bytes32"
        }
      ],
      "name": "challengeReparameterization",
      "outputs": [
        {
          "name": "challengeID",
          "type": "uint256"
        }
      ],
      "payable": false,
      "stateMutability": "nonpayable",
      "type": "function"
    },
    {
      "constant": false,
      "inputs": [
        {
          "name": "_challengeID",
          "type": "uint256"
        },
        {
          "name": "_salt",
          "type": "uint256"
        }
      ],
      "name": "claimReward",
      "outputs": [],
      "payable": false,
      "stateMutability": "nonpayable",
      "type": "function"
    },
    {
      "constant": true,
      "inputs": [
        {
          "name": "",
          "type": "uint256"
        }
      ],
      "name": "challenges",
      "outputs": [
        {
          "name": "rewardPool",
          "type": "uint256"
        },
        {
          "name": "challenger",
          "type": "address"
        },
        {
          "name": "resolved",
          "type": "bool"
        },
        {
          "name": "stake",
          "type": "uint256"
        },
        {
          "name": "winningTokens",
          "type": "uint256"
        }
      ],
      "payable": false,
      "stateMutability": "view",
      "type": "function"
    },
    {
      "constant": true,
      "inputs": [
        {
          "name": "_voter",
          "type": "address"
        },
        {
          "name": "_challengeID",
          "type": "uint256"
        },
        {
          "name": "_salt",
          "type": "uint256"
        }
      ],
      "name": "voterReward",
      "outputs": [
        {
          "name": "",
          "type": "uint256"
        }
      ],
      "payable": false,
      "stateMutability": "view",
      "type": "function"
    },
    {
      "constant": false,
      "inputs": [
        {
          "name": "_name",
          "type": "string"
        },
        {
          "name": "_value",
          "type": "uint256"
        }
      ],
      "name": "proposeReparameterization",
      "outputs": [
        {
          "name": "",
          "type": "bytes32"
        }
      ],
      "payable": false,
      "stateMutability": "nonpayable",
      "type": "function"
    },
    {
      "constant": true,
      "inputs": [
        {
          "name": "_propID",
          "type": "bytes32"
        }
      ],
      "name": "canBeSet",
      "outputs": [
        {
          "name": "",
          "type": "bool"
        }
      ],
      "payable": false,
      "stateMutability": "view",
      "type": "function"
    },
    {
      "constant": true,
      "inputs": [
        {
          "name": "",
          "type": "bytes32"
        }
      ],
      "name": "params",
      "outputs": [
        {
          "name": "",
          "type": "uint256"
        }
      ],
      "payable": false,
      "stateMutability": "view",
      "type": "function"
    },
    {
      "constant": true,
      "inputs": [],
      "name": "token",
      "outputs": [
        {
          "name": "",
          "type": "address"
        }
      ],
      "payable": false,
      "stateMutability": "view",
      "type": "function"
    },
    {
      "constant": true,
      "inputs": [],
      "name": "voting",
      "outputs": [
        {
          "name": "",
          "type": "address"
        }
      ],
      "payable": false,
      "stateMutability": "view",
      "type": "function"
    },
    {
      "inputs": [
        {
          "name": "_tokenAddr",
          "type": "address"
        },
        {
          "name": "_plcrAddr",
          "type": "address"
        },
        {
          "name": "_minDeposit",
          "type": "uint256"
        },
        {
          "name": "_pMinDeposit",
          "type": "uint256"
        },
        {
          "name": "_applyStageLen",
          "type": "uint256"
        },
        {
          "name": "_pApplyStageLen",
          "type": "uint256"
        },
        {
          "name": "_commitStageLen",
          "type": "uint256"
        },
        {
          "name": "_pCommitStageLen",
          "type": "uint256"
        },
        {
          "name": "_revealStageLen",
          "type": "uint256"
        },
        {
          "name": "_pRevealStageLen",
          "type": "uint256"
        },
        {
          "name": "_dispensationPct",
          "type": "uint256"
        },
        {
          "name": "_pDispensationPct",
          "type": "uint256"
        },
        {
          "name": "_voteQuorum",
          "type": "uint256"
        },
        {
          "name": "_pVoteQuorum",
          "type": "uint256"
        }
      ],
      "payable": false,
      "stateMutability": "nonpayable",
      "type": "constructor"
    },
    {
      "anonymous": false,
      "inputs": [
        {
          "indexed": true,
          "name": "proposer",
          "type": "address"
        },
        {
          "indexed": false,
          "name": "name",
          "type": "string"
        },
        {
          "indexed": true,
          "name": "value",
          "type": "uint256"
        },
        {
          "indexed": true,
          "name": "propID",
          "type": "bytes32"
        }
      ],
      "name": "_ReparameterizationProposal",
      "type": "event"
    },
    {
      "anonymous": false,
      "inputs": [
        {
          "indexed": true,
          "name": "challenger",
          "type": "address"
        },
        {
          "indexed": true,
          "name": "propID",
          "type": "bytes32"
        },
        {
          "indexed": true,
          "name": "pollID",
          "type": "uint256"
        }
      ],
      "name": "_NewChallenge",
      "type": "event"
    }
  ],
  "bytecode": "0x606060405262093a8060055534156200001757600080fd5b6040516101c08062002d90833981016040528080519060200190919080519060200190919080519060200190919080519060200190919080519060200190919080519060200190919080519060200190919080519060200190919080519060200190919080519060200190919080519060200190919080519060200190919080519060200190919080519060200190919050508d600360006101000a81548173ffffffffffffffffffffffffffffffffffffffff021916908373ffffffffffffffffffffffffffffffffffffffff1602179055508c600460006101000a81548173ffffffffffffffffffffffffffffffffffffffff021916908373ffffffffffffffffffffffffffffffffffffffff160217905550620001816040805190810160405280600a81526020017f6d696e4465706f736974000000000000000000000000000000000000000000008152508d6200053c6401000000000262001ffa176401000000009004565b620001d66040805190810160405280600b81526020017f704d696e4465706f7369740000000000000000000000000000000000000000008152508c6200053c6401000000000262001ffa176401000000009004565b6200022b6040805190810160405280600d81526020017f6170706c7953746167654c656e000000000000000000000000000000000000008152508b6200053c6401000000000262001ffa176401000000009004565b620002806040805190810160405280600e81526020017f704170706c7953746167654c656e0000000000000000000000000000000000008152508a6200053c6401000000000262001ffa176401000000009004565b620002d56040805190810160405280600e81526020017f636f6d6d697453746167654c656e000000000000000000000000000000000000815250896200053c6401000000000262001ffa176401000000009004565b6200032a6040805190810160405280600f81526020017f70436f6d6d697453746167654c656e0000000000000000000000000000000000815250886200053c6401000000000262001ffa176401000000009004565b6200037f6040805190810160405280600e81526020017f72657665616c53746167654c656e000000000000000000000000000000000000815250876200053c6401000000000262001ffa176401000000009004565b620003d46040805190810160405280600f81526020017f7052657665616c53746167654c656e0000000000000000000000000000000000815250866200053c6401000000000262001ffa176401000000009004565b620004296040805190810160405280600f81526020017f64697370656e736174696f6e5063740000000000000000000000000000000000815250856200053c6401000000000262001ffa176401000000009004565b6200047e6040805190810160405280601081526020017f7044697370656e736174696f6e50637400000000000000000000000000000000815250846200053c6401000000000262001ffa176401000000009004565b620004d36040805190810160405280600a81526020017f766f746551756f72756d00000000000000000000000000000000000000000000815250836200053c6401000000000262001ffa176401000000009004565b620005286040805190810160405280600b81526020017f70566f746551756f72756d000000000000000000000000000000000000000000815250826200053c6401000000000262001ffa176401000000009004565b5050505050505050505050505050620005c3565b80600080846040518082805190602001908083835b60208310151562000578578051825260208201915060208101905060208303925062000551565b6001836020036101000a038019825116818451168082178552505050505050905001915050604051809103902060001916600019168152602001908152602001600020819055505050565b6127bd80620005d36000396000f3006060604052600436106100e5576000357c0100000000000000000000000000000000000000000000000000000000900463ffffffff16806229514f146100ea57806330490e911461011357806332ed5b121461013a578063353009901461024d578063504115521461028c578063693ec85e146102c357806377609a41146103345780638240ae4b1461037357806386bb8f37146103ae5780638f1d3776146103da578063a7aad3db1461045d578063bade1c54146104bc578063c51131fb1461053e578063dc6ab5271461057d578063fc0c546a146105b8578063fce1ccca1461060d575b600080fd5b34156100f557600080fd5b6100fd610662565b6040518082815260200191505060405180910390f35b341561011e57600080fd5b610138600480803560001916906020019091905050610668565b005b341561014557600080fd5b61015f600480803560001916906020019091905050610914565b60405180888152602001878152602001868152602001806020018573ffffffffffffffffffffffffffffffffffffffff1673ffffffffffffffffffffffffffffffffffffffff1681526020018481526020018381526020018281038252868181546001816001161561010002031660029004815260200191508054600181600116156101000203166002900480156102385780601f1061020d57610100808354040283529160200191610238565b820191906000526020600020905b81548152906001019060200180831161021b57829003601f168201915b50509850505050505050505060405180910390f35b341561025857600080fd5b610272600480803560001916906020019091905050610975565b604051808215151515815260200191505060405180910390f35b341561029757600080fd5b6102ad600480803590602001909190505061099f565b6040518082815260200191505060405180910390f35b34156102ce57600080fd5b61031e600480803590602001908201803590602001908080601f01602080910402602001604051908101604052809392919081815260200183838082843782019150505050505091905050610ab7565b6040518082815260200191505060405180910390f35b341561033f57600080fd5b610359600480803560001916906020019091905050610b3d565b604051808215151515815260200191505060405180910390f35b341561037e57600080fd5b610398600480803560001916906020019091905050610e3b565b6040518082815260200191505060405180910390f35b34156103b957600080fd5b6103d86004808035906020019091908035906020019091905050611445565b005b34156103e557600080fd5b6103fb600480803590602001909190505061179c565b604051808681526020018573ffffffffffffffffffffffffffffffffffffffff1673ffffffffffffffffffffffffffffffffffffffff168152602001841515151581526020018381526020018281526020019550505050505060405180910390f35b341561046857600080fd5b6104a6600480803573ffffffffffffffffffffffffffffffffffffffff169060200190919080359060200190919080359060200190919050506117ff565b6040518082815260200191505060405180910390f35b34156104c757600080fd5b610520600480803590602001908201803590602001908080601f01602080910402602001604051908101604052809392919081815260200183838082843782019150505050505091908035906020019091905050611943565b60405180826000191660001916815260200191505060405180910390f35b341561054957600080fd5b610563600480803560001916906020019091905050611e0b565b604051808215151515815260200191505060405180910390f35b341561058857600080fd5b6105a2600480803560001916906020019091905050611f96565b6040518082815260200191505060405180910390f35b34156105c357600080fd5b6105cb611fae565b604051808273ffffffffffffffffffffffffffffffffffffffff1673ffffffffffffffffffffffffffffffffffffffff16815260200191505060405180910390f35b341561061857600080fd5b610620611fd4565b604051808273ffffffffffffffffffffffffffffffffffffffff1673ffffffffffffffffffffffffffffffffffffffff16815260200191505060405180910390f35b60055481565b6000600260008360001916600019168152602001908152602001600020905061069082611e0b565b156107445761073f816003018054600181600116156101000203166002900480601f0160208091040260200160405190810160405280929190818152602001828054600181600116156101000203166002900480156107305780601f1061070557610100808354040283529160200191610730565b820191906000526020600020905b81548152906001019060200180831161071357829003601f168201915b50505050508260060154611ffa565b610893565b61074d82610b3d565b156107605761075b8261207f565b610892565b806005015442111561088c57600360009054906101000a900473ffffffffffffffffffffffffffffffffffffffff1673ffffffffffffffffffffffffffffffffffffffff1663a9059cbb8260040160009054906101000a900473ffffffffffffffffffffffffffffffffffffffff1683600201546000604051602001526040518363ffffffff167c0100000000000000000000000000000000000000000000000000000000028152600401808373ffffffffffffffffffffffffffffffffffffffff1673ffffffffffffffffffffffffffffffffffffffff16815260200182815260200192505050602060405180830381600087803b151561086157600080fd5b6102c65a03f1151561087257600080fd5b50505060405180519050151561088757600080fd5b610891565b600080fd5b5b5b600260008360001916600019168152602001908152602001600020600080820160009055600182016000905560028201600090556003820160006108d791906125ee565b6004820160006101000a81549073ffffffffffffffffffffffffffffffffffffffff02191690556005820160009055600682016000905550505050565b600260205280600052604060002060009150905080600001549080600101549080600201549080600301908060040160009054906101000a900473ffffffffffffffffffffffffffffffffffffffff16908060050154908060060154905087565b60008060026000846000191660001916815260200190815260200160002060050154119050919050565b600080600460009054906101000a900473ffffffffffffffffffffffffffffffffffffffff1673ffffffffffffffffffffffffffffffffffffffff1663053e71a6846000604051602001526040518263ffffffff167c010000000000000000000000000000000000000000000000000000000002815260040180828152602001915050602060405180830381600087803b1515610a3b57600080fd5b6102c65a03f11515610a4c57600080fd5b505050604051805190501415610a7d5760016000838152602001908152602001600020600201546002029050610ab2565b600160008381526020019081526020016000206000015460016000848152602001908152602001600020600201546002020390505b919050565b6000806000836040518082805190602001908083835b602083101515610af25780518252602082019150602081019050602083039250610acd565b6001836020036101000a038019825116818451168082178552505050505050905001915050604051809103902060001916600019168152602001908152602001600020549050919050565b6000610b47612636565b610b4f612690565b60026000856000191660001916815260200190815260200160002060e06040519081016040529081600082015481526020016001820154815260200160028201548152602001600382018054600181600116156101000203166002900480601f016020809104026020016040519081016040528092919081815260200182805460018160011615610100020316600290048015610c2d5780601f10610c0257610100808354040283529160200191610c2d565b820191906000526020600020905b815481529060010190602001808311610c1057829003601f168201915b505050505081526020016004820160009054906101000a900473ffffffffffffffffffffffffffffffffffffffff1673ffffffffffffffffffffffffffffffffffffffff1673ffffffffffffffffffffffffffffffffffffffff168152602001600582015481526020016006820154815250509150600160008360200151815260200190815260200160002060a06040519081016040529081600082015481526020016001820160009054906101000a900473ffffffffffffffffffffffffffffffffffffffff1673ffffffffffffffffffffffffffffffffffffffff1673ffffffffffffffffffffffffffffffffffffffff1681526020016001820160149054906101000a900460ff1615151515815260200160028201548152602001600382015481525050905060008260200151118015610d7257506000151581604001511515145b8015610e325750600460009054906101000a900473ffffffffffffffffffffffffffffffffffffffff1673ffffffffffffffffffffffffffffffffffffffff1663ee68483083602001516000604051602001526040518263ffffffff167c010000000000000000000000000000000000000000000000000000000002815260040180828152602001915050602060405180830381600087803b1515610e1657600080fd5b6102c65a03f11515610e2757600080fd5b505050604051805190505b92505050919050565b6000610e45612636565b60008060026000866000191660001916815260200190815260200160002060e06040519081016040529081600082015481526020016001820154815260200160028201548152602001600382018054600181600116156101000203166002900480601f016020809104026020016040519081016040528092919081815260200182805460018160011615610100020316600290048015610f265780601f10610efb57610100808354040283529160200191610f26565b820191906000526020600020905b815481529060010190602001808311610f0957829003601f168201915b505050505081526020016004820160009054906101000a900473ffffffffffffffffffffffffffffffffffffffff1673ffffffffffffffffffffffffffffffffffffffff1673ffffffffffffffffffffffffffffffffffffffff168152602001600582015481526020016006820154815250509250610fd96040805190810160405280600b81526020017f704d696e4465706f736974000000000000000000000000000000000000000000815250610ab7565b9150610fe485610975565b8015610ff4575060008360200151145b1515610fff57600080fd5b600360009054906101000a900473ffffffffffffffffffffffffffffffffffffffff1673ffffffffffffffffffffffffffffffffffffffff166323b872dd3330856000604051602001526040518463ffffffff167c0100000000000000000000000000000000000000000000000000000000028152600401808473ffffffffffffffffffffffffffffffffffffffff1673ffffffffffffffffffffffffffffffffffffffff1681526020018373ffffffffffffffffffffffffffffffffffffffff1673ffffffffffffffffffffffffffffffffffffffff1681526020018281526020019350505050602060405180830381600087803b151561110057600080fd5b6102c65a03f1151561111157600080fd5b50505060405180519050151561112657600080fd5b600460009054906101000a900473ffffffffffffffffffffffffffffffffffffffff1673ffffffffffffffffffffffffffffffffffffffff166332ed3d606111a26040805190810160405280600b81526020017f70566f746551756f72756d000000000000000000000000000000000000000000815250610ab7565b6111e06040805190810160405280600f81526020017f70436f6d6d697453746167654c656e0000000000000000000000000000000000815250610ab7565b61121e6040805190810160405280600f81526020017f7052657665616c53746167654c656e0000000000000000000000000000000000815250610ab7565b6000604051602001526040518463ffffffff167c0100000000000000000000000000000000000000000000000000000000028152600401808481526020018381526020018281526020019350505050602060405180830381600087803b151561128657600080fd5b6102c65a03f1151561129757600080fd5b50505060405180519050905060a0604051908101604052806064846112f06040805190810160405280601081526020017f7044697370656e736174696f6e50637400000000000000000000000000000000815250610ab7565b606403028115156112fd57fe5b0481526020013373ffffffffffffffffffffffffffffffffffffffff1681526020016000151581526020018381526020016000815250600160008381526020019081526020016000206000820151816000015560208201518160010160006101000a81548173ffffffffffffffffffffffffffffffffffffffff021916908373ffffffffffffffffffffffffffffffffffffffff16021790555060408201518160010160146101000a81548160ff021916908315150217905550606082015181600201556080820151816003015590505080600260008760001916600019168152602001908152602001600020600101819055508085600019163373ffffffffffffffffffffffffffffffffffffffff167f514f310f0599dc7152cbceb4f1b80297d1a615826350a8dcdc54168447e8405060405160405180910390a4809350505050919050565b600080600015156001600086815260200190815260200160002060040160003373ffffffffffffffffffffffffffffffffffffffff1673ffffffffffffffffffffffffffffffffffffffff16815260200190815260200160002060009054906101000a900460ff1615151415156114bb57600080fd5b600115156001600086815260200190815260200160002060010160149054906101000a900460ff1615151415156114f157600080fd5b600460009054906101000a900473ffffffffffffffffffffffffffffffffffffffff1673ffffffffffffffffffffffffffffffffffffffff1663b43bd0693386866000604051602001526040518463ffffffff167c0100000000000000000000000000000000000000000000000000000000028152600401808473ffffffffffffffffffffffffffffffffffffffff1673ffffffffffffffffffffffffffffffffffffffff1681526020018381526020018281526020019350505050602060405180830381600087803b15156115c657600080fd5b6102c65a03f115156115d757600080fd5b5050506040518051905091506115ee3385856117ff565b9050816001600086815260200190815260200160002060030160008282540392505081905550806001600086815260200190815260200160002060000160008282540392505081905550600360009054906101000a900473ffffffffffffffffffffffffffffffffffffffff1673ffffffffffffffffffffffffffffffffffffffff1663a9059cbb33836000604051602001526040518363ffffffff167c0100000000000000000000000000000000000000000000000000000000028152600401808373ffffffffffffffffffffffffffffffffffffffff1673ffffffffffffffffffffffffffffffffffffffff16815260200182815260200192505050602060405180830381600087803b151561170557600080fd5b6102c65a03f1151561171657600080fd5b50505060405180519050151561172b57600080fd5b600180600086815260200190815260200160002060040160003373ffffffffffffffffffffffffffffffffffffffff1673ffffffffffffffffffffffffffffffffffffffff16815260200190815260200160002060006101000a81548160ff02191690831515021790555050505050565b60016020528060005260406000206000915090508060000154908060010160009054906101000a900473ffffffffffffffffffffffffffffffffffffffff16908060010160149054906101000a900460ff16908060020154908060030154905085565b6000806000806001600087815260200190815260200160002060030154925060016000878152602001908152602001600020600001549150600460009054906101000a900473ffffffffffffffffffffffffffffffffffffffff1673ffffffffffffffffffffffffffffffffffffffff1663b43bd0698888886000604051602001526040518463ffffffff167c0100000000000000000000000000000000000000000000000000000000028152600401808473ffffffffffffffffffffffffffffffffffffffff1673ffffffffffffffffffffffffffffffffffffffff1681526020018381526020018281526020019350505050602060405180830381600087803b151561190c57600080fd5b6102c65a03f1151561191d57600080fd5b5050506040518051905090508282820281151561193657fe5b0493505050509392505050565b60008060006119866040805190810160405280600b81526020017f704d696e4465706f736974000000000000000000000000000000000000000000815250610ab7565b915084846040518083805190602001908083835b6020831015156119bf578051825260208201915060208101905060208303925061199a565b6001836020036101000a03801982511681845116808217855250505050505090500182815260200192505050604051809103902090506119fe81610975565b151515611a0a57600080fd5b83611a1486610ab7565b14151515611a2157600080fd5b600360009054906101000a900473ffffffffffffffffffffffffffffffffffffffff1673ffffffffffffffffffffffffffffffffffffffff166323b872dd3330856000604051602001526040518463ffffffff167c0100000000000000000000000000000000000000000000000000000000028152600401808473ffffffffffffffffffffffffffffffffffffffff1673ffffffffffffffffffffffffffffffffffffffff1681526020018373ffffffffffffffffffffffffffffffffffffffff1673ffffffffffffffffffffffffffffffffffffffff1681526020018281526020019350505050602060405180830381600087803b1515611b2257600080fd5b6102c65a03f11515611b3357600080fd5b505050604051805190501515611b4857600080fd5b60e060405190810160405280611b926040805190810160405280600e81526020017f704170706c7953746167654c656e000000000000000000000000000000000000815250610ab7565b42018152602001600081526020018381526020018681526020013373ffffffffffffffffffffffffffffffffffffffff168152602001600554611c096040805190810160405280600f81526020017f7052657665616c53746167654c656e0000000000000000000000000000000000815250610ab7565b611c476040805190810160405280600f81526020017f70436f6d6d697453746167654c656e0000000000000000000000000000000000815250610ab7565b611c856040805190810160405280600e81526020017f704170706c7953746167654c656e000000000000000000000000000000000000815250610ab7565b42010101018152602001858152506002600083600019166000191681526020019081526020016000206000820151816000015560208201518160010155604082015181600201556060820151816003019080519060200190611ce89291906126d8565b5060808201518160040160006101000a81548173ffffffffffffffffffffffffffffffffffffffff021916908373ffffffffffffffffffffffffffffffffffffffff16021790555060a0820151816005015560c082015181600601559050508060001916843373ffffffffffffffffffffffffffffffffffffffff167f7ad5a045a626580a5b80e13a14bcc0745de6a803fff9656c1792124bb9ee6750886040518080602001828103825283818151815260200191508051906020019080838360005b83811015611dc6578082015181840152602081019050611dab565b50505050905090810190601f168015611df35780820380516001836020036101000a031916815260200191505b509250505060405180910390a4809250505092915050565b6000611e15612636565b60026000846000191660001916815260200190815260200160002060e06040519081016040529081600082015481526020016001820154815260200160028201548152602001600382018054600181600116156101000203166002900480601f016020809104026020016040519081016040528092919081815260200182805460018160011615610100020316600290048015611ef35780601f10611ec857610100808354040283529160200191611ef3565b820191906000526020600020905b815481529060010190602001808311611ed657829003601f168201915b505050505081526020016004820160009054906101000a900473ffffffffffffffffffffffffffffffffffffffff1673ffffffffffffffffffffffffffffffffffffffff1673ffffffffffffffffffffffffffffffffffffffff168152602001600582015481526020016006820154815250509050806000015142118015611f7e57508060a0015142105b8015611f8e575060008160200151145b915050919050565b60006020528060005260406000206000915090505481565b600360009054906101000a900473ffffffffffffffffffffffffffffffffffffffff1681565b600460009054906101000a900473ffffffffffffffffffffffffffffffffffffffff1681565b80600080846040518082805190602001908083835b602083101515612034578051825260208201915060208101905060208303925061200f565b6001836020036101000a038019825116818451168082178552505050505050905001915050604051809103902060001916600019168152602001908152602001600020819055505050565b612087612636565b60008060026000856000191660001916815260200190815260200160002060e06040519081016040529081600082015481526020016001820154815260200160028201548152602001600382018054600181600116156101000203166002900480601f0160208091040260200160405190810160405280929190818152602001828054600181600116156101000203166002900480156121685780601f1061213d57610100808354040283529160200191612168565b820191906000526020600020905b81548152906001019060200180831161214b57829003601f168201915b505050505081526020016004820160009054906101000a900473ffffffffffffffffffffffffffffffffffffffff1673ffffffffffffffffffffffffffffffffffffffff1673ffffffffffffffffffffffffffffffffffffffff16815260200160058201548152602001600682015481525050925060016000846020015181526020019081526020016000209150612203836020015161099f565b9050600460009054906101000a900473ffffffffffffffffffffffffffffffffffffffff1673ffffffffffffffffffffffffffffffffffffffff16634940318384602001516000604051602001526040518263ffffffff167c010000000000000000000000000000000000000000000000000000000002815260040180828152602001915050602060405180830381600087803b15156122a257600080fd5b6102c65a03f115156122b357600080fd5b50505060405180519050156123dd57428360a0015111156122e1576122e083606001518460c00151611ffa565b5b600360009054906101000a900473ffffffffffffffffffffffffffffffffffffffff1673ffffffffffffffffffffffffffffffffffffffff1663a9059cbb8460800151836000604051602001526040518363ffffffff167c0100000000000000000000000000000000000000000000000000000000028152600401808373ffffffffffffffffffffffffffffffffffffffff1673ffffffffffffffffffffffffffffffffffffffff16815260200182815260200192505050602060405180830381600087803b15156123b257600080fd5b6102c65a03f115156123c357600080fd5b5050506040518051905015156123d857600080fd5b61250b565b600360009054906101000a900473ffffffffffffffffffffffffffffffffffffffff1673ffffffffffffffffffffffffffffffffffffffff1663a9059cbb600160008660200151815260200190815260200160002060010160009054906101000a900473ffffffffffffffffffffffffffffffffffffffff16836000604051602001526040518363ffffffff167c0100000000000000000000000000000000000000000000000000000000028152600401808373ffffffffffffffffffffffffffffffffffffffff1673ffffffffffffffffffffffffffffffffffffffff16815260200182815260200192505050602060405180830381600087803b15156124e457600080fd5b6102c65a03f115156124f557600080fd5b50505060405180519050151561250a57600080fd5b5b600460009054906101000a900473ffffffffffffffffffffffffffffffffffffffff1673ffffffffffffffffffffffffffffffffffffffff1663053e71a684602001516000604051602001526040518263ffffffff167c010000000000000000000000000000000000000000000000000000000002815260040180828152602001915050602060405180830381600087803b15156125a857600080fd5b6102c65a03f115156125b957600080fd5b50505060405180519050826003018190555060018260010160146101000a81548160ff02191690831515021790555050505050565b50805460018160011615610100020316600290046000825580601f106126145750612633565b601f0160209004906000526020600020908101906126329190612758565b5b50565b60e06040519081016040528060008152602001600081526020016000815260200161265f61277d565b8152602001600073ffffffffffffffffffffffffffffffffffffffff16815260200160008152602001600081525090565b60a06040519081016040528060008152602001600073ffffffffffffffffffffffffffffffffffffffff16815260200160001515815260200160008152602001600081525090565b828054600181600116156101000203166002900490600052602060002090601f016020900481019282601f1061271957805160ff1916838001178555612747565b82800160010185558215612747579182015b8281111561274657825182559160200191906001019061272b565b5b5090506127549190612758565b5090565b61277a91905b8082111561277657600081600090555060010161275e565b5090565b90565b6020604051908101604052806000815250905600a165627a7a7230582064c957155dea18f6c4fa74a164349fa6698e86eca6ddc902d15d686ca2dd3b420029",
  "source": "pragma solidity^0.4.11;\n\nimport \"./PLCRVoting.sol\";\nimport \"tokens/eip20/EIP20.sol\";\n\ncontract Parameterizer {\n\n  // ------\n  // EVENTS\n  // ------\n\n  event _ReparameterizationProposal(address indexed proposer, string name, uint indexed value, bytes32 indexed propID);\n  event _NewChallenge(address indexed challenger, bytes32 indexed propID, uint indexed pollID);\n\n\n  // ------\n  // DATA STRUCTURES\n  // ------\n\n  struct ParamProposal {\n    uint appExpiry;\n    uint challengeID;\n    uint deposit;\n    string name;\n    address owner;\n    uint processBy;\n    uint value;\n  }\n\n  struct Challenge {\n    uint rewardPool;        // (remaining) pool of tokens distributed amongst winning voters\n    address challenger;     // owner of Challenge\n    bool resolved;          // indication of if challenge is resolved\n    uint stake;             // number of tokens at risk for either party during challenge\n    uint winningTokens;     // (remaining) amount of tokens used for voting by the winning side\n    mapping(address => bool) tokenClaims;\n  }\n\n  // ------\n  // STATE\n  // ------\n\n  mapping(bytes32 => uint) public params;\n\n  // maps challengeIDs to associated challenge data\n  mapping(uint => Challenge) public challenges;\n \n  // maps pollIDs to intended data change if poll passes\n  mapping(bytes32 => ParamProposal) public proposals; \n\n  // Global Variables\n  EIP20 public token;\n  PLCRVoting public voting;\n  uint public PROCESSBY = 604800; // 7 days\n\n  // ------------\n  // CONSTRUCTOR\n  // ------------\n\n  /**\n  @dev constructor\n  @param _tokenAddr        address of the token which parameterizes this system\n  @param _plcrAddr         address of a PLCR voting contract for the provided token\n  @param _minDeposit       minimum deposit for listing to be whitelisted  \n  @param _pMinDeposit      minimum deposit to propose a reparameterization\n  @param _applyStageLen    period over which applicant's wait to be whitelisted\n  @param _pApplyStageLen   period over which reparmeterization proposal's wait to be processed \n  @param _dispensationPct  percentage of losing party's deposit distributed to winning party\n  @param _pDispensationPct percentage of losing party's deposit distributed to winning party in parameterizer\n  @param _commitStageLen   length of commit period for voting\n  @param _pCommitStageLen  length of commit period for voting in parameterizer\n  @param _revealStageLen   length of reveal period for voting\n  @param _pRevealStageLen  length of reveal period for voting in parameterizer\n  @param _voteQuorum       type of majority out of 100 necessary for vote success\n  @param _pVoteQuorum      type of majority out of 100 necessary for vote success in parameterizer\n  */\n  function Parameterizer( \n    address _tokenAddr,\n    address _plcrAddr,\n    uint _minDeposit,\n    uint _pMinDeposit,\n    uint _applyStageLen,\n    uint _pApplyStageLen,\n    uint _commitStageLen,\n    uint _pCommitStageLen,\n    uint _revealStageLen,\n    uint _pRevealStageLen,\n    uint _dispensationPct,\n    uint _pDispensationPct,\n    uint _voteQuorum,\n    uint _pVoteQuorum\n    ) public {\n      token = EIP20(_tokenAddr);\n      voting = PLCRVoting(_plcrAddr);\n\n      set(\"minDeposit\", _minDeposit);\n      set(\"pMinDeposit\", _pMinDeposit);\n      set(\"applyStageLen\", _applyStageLen);\n      set(\"pApplyStageLen\", _pApplyStageLen);\n      set(\"commitStageLen\", _commitStageLen);\n      set(\"pCommitStageLen\", _pCommitStageLen);\n      set(\"revealStageLen\", _revealStageLen);\n      set(\"pRevealStageLen\", _pRevealStageLen);\n      set(\"dispensationPct\", _dispensationPct);\n      set(\"pDispensationPct\", _pDispensationPct);\n      set(\"voteQuorum\", _voteQuorum);\n      set(\"pVoteQuorum\", _pVoteQuorum);\n  }\n\n  // -----------------------\n  // TOKEN HOLDER INTERFACE\n  // -----------------------\n\n  /**\n  @notice propose a reparamaterization of the key _name's value to _value.\n  @param _name the name of the proposed param to be set\n  @param _value the proposed value to set the param to be set\n  */\n  function proposeReparameterization(string _name, uint _value) public returns (bytes32) {\n    uint deposit = get(\"pMinDeposit\");\n    bytes32 propID = keccak256(_name, _value);\n\n    require(!propExists(propID)); // Forbid duplicate proposals\n    require(get(_name) != _value); // Forbid NOOP reparameterizations\n    require(token.transferFrom(msg.sender, this, deposit)); // escrow tokens (deposit amt)\n\n    // attach name and value to pollID    \n    proposals[propID] = ParamProposal({\n      appExpiry: now + get(\"pApplyStageLen\"),\n      challengeID: 0,\n      deposit: deposit,\n      name: _name,\n      owner: msg.sender,\n      processBy: now + get(\"pApplyStageLen\") + get(\"pCommitStageLen\") +\n        get(\"pRevealStageLen\") + PROCESSBY,\n      value: _value\n    });\n\n    _ReparameterizationProposal(msg.sender, _name, _value, propID);\n    return propID;\n  }\n\n  /**\n  @notice challenge the provided proposal ID, and put tokens at stake to do so.\n  @param _propID the proposal ID to challenge\n  */\n  function challengeReparameterization(bytes32 _propID) public returns (uint challengeID) {\n    ParamProposal memory prop = proposals[_propID];\n    uint deposit = get(\"pMinDeposit\");\n\n    require(propExists(_propID) && prop.challengeID == 0); \n\n    //take tokens from challenger\n    require(token.transferFrom(msg.sender, this, deposit));\n    //start poll\n    uint pollID = voting.startPoll(\n      get(\"pVoteQuorum\"),\n      get(\"pCommitStageLen\"),\n      get(\"pRevealStageLen\")\n    );\n\n    challenges[pollID] = Challenge({\n      challenger: msg.sender,\n      rewardPool: ((100 - get(\"pDispensationPct\")) * deposit) / 100, \n      stake: deposit,\n      resolved: false,\n      winningTokens: 0\n    });\n\n    proposals[_propID].challengeID = pollID;       // update listing to store most recent challenge\n\n    _NewChallenge(msg.sender, _propID, pollID);\n    return pollID;\n  }\n\n  /**\n  @notice for the provided proposal ID, set it, resolve its challenge, or delete it depending on whether it can be set, has a challenge which can be resolved, or if its \"process by\" date has passed\n  @param _propID the proposal ID to make a determination and state transition for\n  */\n  function processProposal(bytes32 _propID) public {\n    ParamProposal storage prop = proposals[_propID];\n\n    if (canBeSet(_propID)) {\n      set(prop.name, prop.value);\n    } else if (challengeCanBeResolved(_propID)) {\n      resolveChallenge(_propID);\n    } else if (now > prop.processBy) {\n      require(token.transfer(prop.owner, prop.deposit));\n    } else {\n      revert();\n    }\n\n    delete proposals[_propID];\n  }\n\n  /**\n  @notice claim the tokens owed for the msg.sender in the provided challenge\n  @param _challengeID the challenge ID to claim tokens for\n  @param _salt the salt used to vote in the challenge being withdrawn for\n  */\n  function claimReward(uint _challengeID, uint _salt) public {\n    // ensure voter has not already claimed tokens and challenge results have been processed\n    require(challenges[_challengeID].tokenClaims[msg.sender] == false);\n    require(challenges[_challengeID].resolved == true);\n\n    uint voterTokens = voting.getNumPassingTokens(msg.sender, _challengeID, _salt);\n    uint reward = voterReward(msg.sender, _challengeID, _salt);\n\n    // subtract voter's information to preserve the participation ratios of other voters\n    // compared to the remaining pool of rewards\n    challenges[_challengeID].winningTokens -= voterTokens;\n    challenges[_challengeID].rewardPool -= reward;\n\n    require(token.transfer(msg.sender, reward));\n    \n    // ensures a voter cannot claim tokens again\n    challenges[_challengeID].tokenClaims[msg.sender] = true;\n  }\n\n  // --------\n  // GETTERS\n  // --------\n\n  /**\n  @dev                Calculates the provided voter's token reward for the given poll.\n  @param _voter       The address of the voter whose reward balance is to be returned\n  @param _challengeID The ID of the challenge the voter's reward is being calculated for\n  @param _salt        The salt of the voter's commit hash in the given poll\n  @return             The uint indicating the voter's reward\n  */\n  function voterReward(address _voter, uint _challengeID, uint _salt)\n  public view returns (uint) {\n    uint winningTokens = challenges[_challengeID].winningTokens;\n    uint rewardPool = challenges[_challengeID].rewardPool;\n    uint voterTokens = voting.getNumPassingTokens(_voter, _challengeID, _salt);\n    return (voterTokens * rewardPool) / winningTokens;\n  }\n\n  /**\n  @notice Determines whether a proposal passed its application stage without a challenge\n  @param _propID The proposal ID for which to determine whether its application stage passed without a challenge\n  */\n  function canBeSet(bytes32 _propID) view public returns (bool) {\n    ParamProposal memory prop = proposals[_propID];\n\n    return (now > prop.appExpiry && now < prop.processBy && prop.challengeID == 0);\n  }\n\n  /**\n  @notice Determines whether a proposal exists for the provided proposal ID\n  @param _propID The proposal ID whose existance is to be determined\n  */\n  function propExists(bytes32 _propID) view public returns (bool) {\n    return proposals[_propID].processBy > 0;\n  }\n\n  /**\n  @notice Determines whether the provided proposal ID has a challenge which can be resolved\n  @param _propID The proposal ID whose challenge to inspect\n  */\n  function challengeCanBeResolved(bytes32 _propID) view public returns (bool) {\n    ParamProposal memory prop = proposals[_propID];\n    Challenge memory challenge = challenges[prop.challengeID];\n\n    return (prop.challengeID > 0 && challenge.resolved == false &&\n            voting.pollEnded(prop.challengeID));\n  }\n\n  /**\n  @notice Determines the number of tokens to be awarded to the winning party in a challenge\n  @param _challengeID The challengeID to determine a reward for\n  */\n  function challengeWinnerReward(uint _challengeID) public view returns (uint) {\n    if(voting.getTotalNumberOfTokensForWinningOption(_challengeID) == 0) {\n      // Edge case, nobody voted, give all tokens to the winner.\n      return 2 * challenges[_challengeID].stake;\n    }\n    \n    return (2 * challenges[_challengeID].stake) - challenges[_challengeID].rewardPool;\n  }\n\n  /**\n  @notice gets the parameter keyed by the provided name value from the params mapping\n  @param _name the key whose value is to be determined\n  */\n  function get(string _name) public view returns (uint value) {\n    return params[keccak256(_name)];\n  }\n\n  // ----------------\n  // PRIVATE FUNCTIONS\n  // ----------------\n\n  /**\n  @dev resolves a challenge for the provided _propID. It must be checked in advance whether the _propID has a challenge on it\n  @param _propID the proposal ID whose challenge is to be resolved.\n  */\n  function resolveChallenge(bytes32 _propID) private {\n    ParamProposal memory prop = proposals[_propID];\n    Challenge storage challenge = challenges[prop.challengeID];\n\n    // winner gets back their full staked deposit, and dispensationPct*loser's stake\n    uint reward = challengeWinnerReward(prop.challengeID);\n\n    if (voting.isPassed(prop.challengeID)) { // The challenge failed\n      if(prop.processBy > now) {\n        set(prop.name, prop.value);\n      }\n      require(token.transfer(prop.owner, reward));\n    } \n    else { // The challenge succeeded\n      require(token.transfer(challenges[prop.challengeID].challenger, reward));\n    }\n\n    challenge.winningTokens =\n      voting.getTotalNumberOfTokensForWinningOption(prop.challengeID);\n    challenge.resolved = true;\n  }\n\n  /**\n  @dev sets the param keyed by the provided name to the provided value\n  @param _name the name of the param to be set\n  @param _value the value to set the param to be set\n  */\n  function set(string _name, uint _value) private {\n    params[keccak256(_name)] = _value;\n  }\n}\n\n",
  "sourcePath": "/Users/kangarang/Desktop/Projects/token-curated-registry/contracts/Parameterizer.sol",
  "compiler": {
    "name": "solc",
    "version": "0.4.18+commit.9cf6e910.Emscripten.clang"
  },
  "schemaVersion": "1.0.1",
  "updatedAt": "2018-01-28T03:40:44.372Z"
}