{
  "contractName": "Parameterizer",
  "abi": [
    {
      "constant": true,
      "inputs": [],
      "name": "PROCESSBY",
      "outputs": [
        {
          "name": "",
          "type": "uint256"
        }
      ],
      "payable": false,
      "stateMutability": "view",
      "type": "function"
    },
    {
      "constant": false,
      "inputs": [
        {
          "name": "_propID",
          "type": "bytes32"
        }
      ],
      "name": "processProposal",
      "outputs": [],
      "payable": false,
      "stateMutability": "nonpayable",
      "type": "function"
    },
    {
      "constant": true,
      "inputs": [
        {
          "name": "",
          "type": "bytes32"
        }
      ],
      "name": "proposals",
      "outputs": [
        {
          "name": "appExpiry",
          "type": "uint256"
        },
        {
          "name": "challengeID",
          "type": "uint256"
        },
        {
          "name": "deposit",
          "type": "uint256"
        },
        {
          "name": "name",
          "type": "string"
        },
        {
          "name": "owner",
          "type": "address"
        },
        {
          "name": "processBy",
          "type": "uint256"
        },
        {
          "name": "value",
          "type": "uint256"
        }
      ],
      "payable": false,
      "stateMutability": "view",
      "type": "function"
    },
    {
      "constant": true,
      "inputs": [
        {
          "name": "_propID",
          "type": "bytes32"
        }
      ],
      "name": "propExists",
      "outputs": [
        {
          "name": "",
          "type": "bool"
        }
      ],
      "payable": false,
      "stateMutability": "view",
      "type": "function"
    },
    {
      "constant": true,
      "inputs": [
        {
          "name": "_challengeID",
          "type": "uint256"
        }
      ],
      "name": "challengeWinnerReward",
      "outputs": [
        {
          "name": "",
          "type": "uint256"
        }
      ],
      "payable": false,
      "stateMutability": "view",
      "type": "function"
    },
    {
      "constant": true,
      "inputs": [
        {
          "name": "_name",
          "type": "string"
        }
      ],
      "name": "get",
      "outputs": [
        {
          "name": "value",
          "type": "uint256"
        }
      ],
      "payable": false,
      "stateMutability": "view",
      "type": "function"
    },
    {
      "constant": true,
      "inputs": [
        {
          "name": "_propID",
          "type": "bytes32"
        }
      ],
      "name": "challengeCanBeResolved",
      "outputs": [
        {
          "name": "",
          "type": "bool"
        }
      ],
      "payable": false,
      "stateMutability": "view",
      "type": "function"
    },
    {
      "constant": false,
      "inputs": [
        {
          "name": "_propID",
          "type": "bytes32"
        }
      ],
      "name": "challengeReparameterization",
      "outputs": [
        {
          "name": "challengeID",
          "type": "uint256"
        }
      ],
      "payable": false,
      "stateMutability": "nonpayable",
      "type": "function"
    },
    {
      "constant": false,
      "inputs": [
        {
          "name": "_challengeID",
          "type": "uint256"
        },
        {
          "name": "_salt",
          "type": "uint256"
        }
      ],
      "name": "claimReward",
      "outputs": [],
      "payable": false,
      "stateMutability": "nonpayable",
      "type": "function"
    },
    {
      "constant": true,
      "inputs": [
        {
          "name": "",
          "type": "uint256"
        }
      ],
      "name": "challenges",
      "outputs": [
        {
          "name": "rewardPool",
          "type": "uint256"
        },
        {
          "name": "challenger",
          "type": "address"
        },
        {
          "name": "resolved",
          "type": "bool"
        },
        {
          "name": "stake",
          "type": "uint256"
        },
        {
          "name": "winningTokens",
          "type": "uint256"
        }
      ],
      "payable": false,
      "stateMutability": "view",
      "type": "function"
    },
    {
      "constant": true,
      "inputs": [
        {
          "name": "_challengeID",
          "type": "uint256"
        },
        {
          "name": "_voter",
          "type": "address"
        }
      ],
      "name": "tokenClaims",
      "outputs": [
        {
          "name": "",
          "type": "bool"
        }
      ],
      "payable": false,
      "stateMutability": "view",
      "type": "function"
    },
    {
      "constant": true,
      "inputs": [
        {
          "name": "_voter",
          "type": "address"
        },
        {
          "name": "_challengeID",
          "type": "uint256"
        },
        {
          "name": "_salt",
          "type": "uint256"
        }
      ],
      "name": "voterReward",
      "outputs": [
        {
          "name": "",
          "type": "uint256"
        }
      ],
      "payable": false,
      "stateMutability": "view",
      "type": "function"
    },
    {
      "constant": false,
      "inputs": [
        {
          "name": "_name",
          "type": "string"
        },
        {
          "name": "_value",
          "type": "uint256"
        }
      ],
      "name": "proposeReparameterization",
      "outputs": [
        {
          "name": "",
          "type": "bytes32"
        }
      ],
      "payable": false,
      "stateMutability": "nonpayable",
      "type": "function"
    },
    {
      "constant": true,
      "inputs": [
        {
          "name": "_propID",
          "type": "bytes32"
        }
      ],
      "name": "canBeSet",
      "outputs": [
        {
          "name": "",
          "type": "bool"
        }
      ],
      "payable": false,
      "stateMutability": "view",
      "type": "function"
    },
    {
      "constant": true,
      "inputs": [
        {
          "name": "",
          "type": "bytes32"
        }
      ],
      "name": "params",
      "outputs": [
        {
          "name": "",
          "type": "uint256"
        }
      ],
      "payable": false,
      "stateMutability": "view",
      "type": "function"
    },
    {
      "constant": true,
      "inputs": [],
      "name": "token",
      "outputs": [
        {
          "name": "",
          "type": "address"
        }
      ],
      "payable": false,
      "stateMutability": "view",
      "type": "function"
    },
    {
      "constant": true,
      "inputs": [],
      "name": "voting",
      "outputs": [
        {
          "name": "",
          "type": "address"
        }
      ],
      "payable": false,
      "stateMutability": "view",
      "type": "function"
    },
    {
      "inputs": [
        {
          "name": "_tokenAddr",
          "type": "address"
        },
        {
          "name": "_plcrAddr",
          "type": "address"
        },
        {
          "name": "_minDeposit",
          "type": "uint256"
        },
        {
          "name": "_pMinDeposit",
          "type": "uint256"
        },
        {
          "name": "_applyStageLen",
          "type": "uint256"
        },
        {
          "name": "_pApplyStageLen",
          "type": "uint256"
        },
        {
          "name": "_commitStageLen",
          "type": "uint256"
        },
        {
          "name": "_pCommitStageLen",
          "type": "uint256"
        },
        {
          "name": "_revealStageLen",
          "type": "uint256"
        },
        {
          "name": "_pRevealStageLen",
          "type": "uint256"
        },
        {
          "name": "_dispensationPct",
          "type": "uint256"
        },
        {
          "name": "_pDispensationPct",
          "type": "uint256"
        },
        {
          "name": "_voteQuorum",
          "type": "uint256"
        },
        {
          "name": "_pVoteQuorum",
          "type": "uint256"
        }
      ],
      "payable": false,
      "stateMutability": "nonpayable",
      "type": "constructor"
    },
    {
      "anonymous": false,
      "inputs": [
        {
          "indexed": false,
          "name": "name",
          "type": "string"
        },
        {
          "indexed": false,
          "name": "value",
          "type": "uint256"
        },
        {
          "indexed": false,
          "name": "propID",
          "type": "bytes32"
        }
      ],
      "name": "_ReparameterizationProposal",
      "type": "event"
    },
    {
      "anonymous": false,
      "inputs": [
        {
          "indexed": false,
          "name": "propID",
          "type": "bytes32"
        },
        {
          "indexed": false,
          "name": "pollID",
          "type": "uint256"
        }
      ],
      "name": "_NewChallenge",
      "type": "event"
    },
    {
      "anonymous": false,
      "inputs": [
        {
          "indexed": false,
          "name": "propID",
          "type": "bytes32"
        },
        {
          "indexed": false,
          "name": "name",
          "type": "string"
        },
        {
          "indexed": false,
          "name": "value",
          "type": "uint256"
        }
      ],
      "name": "_ProposalAccepted",
      "type": "event"
    },
    {
      "anonymous": false,
      "inputs": [
        {
          "indexed": false,
          "name": "propID",
          "type": "bytes32"
        }
      ],
      "name": "_ProposalExpired",
      "type": "event"
    },
    {
      "anonymous": false,
      "inputs": [
        {
          "indexed": false,
          "name": "challengeID",
          "type": "uint256"
        }
      ],
      "name": "_ChallengeSucceeded",
      "type": "event"
    },
    {
      "anonymous": false,
      "inputs": [
        {
          "indexed": false,
          "name": "challengeID",
          "type": "uint256"
        }
      ],
      "name": "_ChallengeFailed",
      "type": "event"
    },
    {
      "anonymous": false,
      "inputs": [
        {
          "indexed": false,
          "name": "challengeID",
          "type": "uint256"
        },
        {
          "indexed": false,
          "name": "reward",
          "type": "uint256"
        }
      ],
      "name": "_RewardClaimed",
      "type": "event"
    }
  ],
  "bytecode": "0x606060405262093a8060055534156200001757600080fd5b6040516101c080620035cf833981016040528080519060200190919080519060200190919080519060200190919080519060200190919080519060200190919080519060200190919080519060200190919080519060200190919080519060200190919080519060200190919080519060200190919080519060200190919080519060200190919080519060200190919050508d600360006101000a81548173ffffffffffffffffffffffffffffffffffffffff021916908373ffffffffffffffffffffffffffffffffffffffff1602179055508c600460006101000a81548173ffffffffffffffffffffffffffffffffffffffff021916908373ffffffffffffffffffffffffffffffffffffffff160217905550620001816040805190810160405280600a81526020017f6d696e4465706f736974000000000000000000000000000000000000000000008152508d6200053c640100000000026200273e176401000000009004565b620001d66040805190810160405280600b81526020017f704d696e4465706f7369740000000000000000000000000000000000000000008152508c6200053c640100000000026200273e176401000000009004565b6200022b6040805190810160405280600d81526020017f6170706c7953746167654c656e000000000000000000000000000000000000008152508b6200053c640100000000026200273e176401000000009004565b620002806040805190810160405280600e81526020017f704170706c7953746167654c656e0000000000000000000000000000000000008152508a6200053c640100000000026200273e176401000000009004565b620002d56040805190810160405280600e81526020017f636f6d6d697453746167654c656e000000000000000000000000000000000000815250896200053c640100000000026200273e176401000000009004565b6200032a6040805190810160405280600f81526020017f70436f6d6d697453746167654c656e0000000000000000000000000000000000815250886200053c640100000000026200273e176401000000009004565b6200037f6040805190810160405280600e81526020017f72657665616c53746167654c656e000000000000000000000000000000000000815250876200053c640100000000026200273e176401000000009004565b620003d46040805190810160405280600f81526020017f7052657665616c53746167654c656e0000000000000000000000000000000000815250866200053c640100000000026200273e176401000000009004565b620004296040805190810160405280600f81526020017f64697370656e736174696f6e5063740000000000000000000000000000000000815250856200053c640100000000026200273e176401000000009004565b6200047e6040805190810160405280601081526020017f7044697370656e736174696f6e50637400000000000000000000000000000000815250846200053c640100000000026200273e176401000000009004565b620004d36040805190810160405280600a81526020017f766f746551756f72756d00000000000000000000000000000000000000000000815250836200053c640100000000026200273e176401000000009004565b620005286040805190810160405280600b81526020017f70566f746551756f72756d000000000000000000000000000000000000000000815250826200053c640100000000026200273e176401000000009004565b5050505050505050505050505050620005c3565b80600080846040518082805190602001908083835b60208310151562000578578051825260208201915060208101905060208303925062000551565b6001836020036101000a038019825116818451168082178552505050505050905001915050604051809103902060001916600019168152602001908152602001600020819055505050565b612ffc80620005d36000396000f3006060604052600436106100f0576000357c0100000000000000000000000000000000000000000000000000000000900463ffffffff16806229514f146100f557806330490e911461011e57806332ed5b121461014557806335300990146102585780635041155214610297578063693ec85e146102ce57806377609a411461033f5780638240ae4b1461037e57806386bb8f37146103b95780638f1d3776146103e5578063a5ba3b1e14610468578063a7aad3db146104c2578063bade1c5414610521578063c51131fb146105a3578063dc6ab527146105e2578063fc0c546a1461061d578063fce1ccca14610672575b600080fd5b341561010057600080fd5b6101086106c7565b6040518082815260200191505060405180910390f35b341561012957600080fd5b6101436004808035600019169060200190919050506106cd565b005b341561015057600080fd5b61016a600480803560001916906020019091905050610e1f565b60405180888152602001878152602001868152602001806020018573ffffffffffffffffffffffffffffffffffffffff1673ffffffffffffffffffffffffffffffffffffffff1681526020018481526020018381526020018281038252868181546001816001161561010002031660029004815260200191508054600181600116156101000203166002900480156102435780601f1061021857610100808354040283529160200191610243565b820191906000526020600020905b81548152906001019060200180831161022657829003601f168201915b50509850505050505050505060405180910390f35b341561026357600080fd5b61027d600480803560001916906020019091905050610e80565b604051808215151515815260200191505060405180910390f35b34156102a257600080fd5b6102b86004808035906020019091905050610eaa565b6040518082815260200191505060405180910390f35b34156102d957600080fd5b610329600480803590602001908201803590602001908080601f01602080910402602001604051908101604052809392919081815260200183838082843782019150505050505091905050610fc2565b6040518082815260200191505060405180910390f35b341561034a57600080fd5b610364600480803560001916906020019091905050611048565b604051808215151515815260200191505060405180910390f35b341561038957600080fd5b6103a3600480803560001916906020019091905050611346565b6040518082815260200191505060405180910390f35b34156103c457600080fd5b6103e36004808035906020019091908035906020019091905050611933565b005b34156103f057600080fd5b6104066004808035906020019091905050611cc9565b604051808681526020018573ffffffffffffffffffffffffffffffffffffffff1673ffffffffffffffffffffffffffffffffffffffff168152602001841515151581526020018381526020018281526020019550505050505060405180910390f35b341561047357600080fd5b6104a8600480803590602001909190803573ffffffffffffffffffffffffffffffffffffffff16906020019091905050611d2c565b604051808215151515815260200191505060405180910390f35b34156104cd57600080fd5b61050b600480803573ffffffffffffffffffffffffffffffffffffffff16906020019091908035906020019091908035906020019091905050611d97565b6040518082815260200191505060405180910390f35b341561052c57600080fd5b610585600480803590602001908201803590602001908080601f01602080910402602001604051908101604052809392919081815260200183838082843782019150505050505091908035906020019091905050611edb565b60405180826000191660001916815260200191505060405180910390f35b34156105ae57600080fd5b6105c860048080356000191690602001909190505061254f565b604051808215151515815260200191505060405180910390f35b34156105ed57600080fd5b6106076004808035600019169060200190919050506126da565b6040518082815260200191505060405180910390f35b341561062857600080fd5b6106306126f2565b604051808273ffffffffffffffffffffffffffffffffffffffff1673ffffffffffffffffffffffffffffffffffffffff16815260200191505060405180910390f35b341561067d57600080fd5b610685612718565b604051808273ffffffffffffffffffffffffffffffffffffffff1673ffffffffffffffffffffffffffffffffffffffff16815260200191505060405180910390f35b60055481565b600080600060026000856000191660001916815260200190815260200160002092508260040160009054906101000a900473ffffffffffffffffffffffffffffffffffffffff169150826002015490506107268461254f565b15610a22576107d5836003018054600181600116156101000203166002900480601f0160208091040260200160405190810160405280929190818152602001828054600181600116156101000203166002900480156107c65780601f1061079b576101008083540402835291602001916107c6565b820191906000526020600020905b8154815290600101906020018083116107a957829003601f168201915b5050505050846006015461273e565b7f37f3986c71e1aa2c470cfc4a92af70820610c3065589d35ef1664ea27f3e73a5848460030185600601546040518084600019166000191681526020018060200183815260200182810382528481815460018160011615610100020316600290048152602001915080546001816001161561010002031660029004801561089d5780601f106108725761010080835404028352916020019161089d565b820191906000526020600020905b81548152906001019060200180831161088057829003601f168201915b505094505050505060405180910390a1600260008560001916600019168152602001908152602001600020600080820160009055600182016000905560028201600090556003820160006108f19190612e2d565b6004820160006101000a81549073ffffffffffffffffffffffffffffffffffffffff0219169055600582016000905560068201600090555050600360009054906101000a900473ffffffffffffffffffffffffffffffffffffffff1673ffffffffffffffffffffffffffffffffffffffff1663a9059cbb83836000604051602001526040518363ffffffff167c0100000000000000000000000000000000000000000000000000000000028152600401808373ffffffffffffffffffffffffffffffffffffffff1673ffffffffffffffffffffffffffffffffffffffff16815260200182815260200192505050602060405180830381600087803b15156109f757600080fd5b6102c65a03f11515610a0857600080fd5b505050604051805190501515610a1d57600080fd5b610c05565b610a2b84611048565b15610a3e57610a39846127c3565b610c04565b8260050154421115610bfe577f29026cb2acebe6d0a4b6d593ccadf76e3fc6d0a02254e078b0c4a619608089d78460405180826000191660001916815260200191505060405180910390a160026000856000191660001916815260200190815260200160002060008082016000905560018201600090556002820160009055600382016000610acd9190612e2d565b6004820160006101000a81549073ffffffffffffffffffffffffffffffffffffffff0219169055600582016000905560068201600090555050600360009054906101000a900473ffffffffffffffffffffffffffffffffffffffff1673ffffffffffffffffffffffffffffffffffffffff1663a9059cbb83836000604051602001526040518363ffffffff167c0100000000000000000000000000000000000000000000000000000000028152600401808373ffffffffffffffffffffffffffffffffffffffff1673ffffffffffffffffffffffffffffffffffffffff16815260200182815260200192505050602060405180830381600087803b1515610bd357600080fd5b6102c65a03f11515610be457600080fd5b505050604051805190501515610bf957600080fd5b610c03565b600080fd5b5b5b6064610c456040805190810160405280600f81526020017f64697370656e736174696f6e5063740000000000000000000000000000000000815250610fc2565b11151515610c4f57fe5b6064610c8f6040805190810160405280601081526020017f7044697370656e736174696f6e50637400000000000000000000000000000000815250610fc2565b11151515610c9957fe5b610d9b600554610d8d610ce06040805190810160405280600f81526020017f7052657665616c53746167654c656e0000000000000000000000000000000000815250610fc2565b610d7f610d216040805190810160405280600f81526020017f70436f6d6d697453746167654c656e0000000000000000000000000000000000815250610fc2565b610d71610d626040805190810160405280600e81526020017f704170706c7953746167654c656e000000000000000000000000000000000000815250610fc2565b42612da890919063ffffffff16565b612da890919063ffffffff16565b612da890919063ffffffff16565b612da890919063ffffffff16565b5060026000856000191660001916815260200190815260200160002060008082016000905560018201600090556002820160009055600382016000610de09190612e2d565b6004820160006101000a81549073ffffffffffffffffffffffffffffffffffffffff021916905560058201600090556006820160009055505050505050565b600260205280600052604060002060009150905080600001549080600101549080600201549080600301908060040160009054906101000a900473ffffffffffffffffffffffffffffffffffffffff16908060050154908060060154905087565b60008060026000846000191660001916815260200190815260200160002060050154119050919050565b600080600460009054906101000a900473ffffffffffffffffffffffffffffffffffffffff1673ffffffffffffffffffffffffffffffffffffffff1663053e71a6846000604051602001526040518263ffffffff167c010000000000000000000000000000000000000000000000000000000002815260040180828152602001915050602060405180830381600087803b1515610f4657600080fd5b6102c65a03f11515610f5757600080fd5b505050604051805190501415610f885760016000838152602001908152602001600020600201546002029050610fbd565b600160008381526020019081526020016000206000015460016000848152602001908152602001600020600201546002020390505b919050565b6000806000836040518082805190602001908083835b602083101515610ffd5780518252602082019150602081019050602083039250610fd8565b6001836020036101000a038019825116818451168082178552505050505050905001915050604051809103902060001916600019168152602001908152602001600020549050919050565b6000611052612e75565b61105a612ecf565b60026000856000191660001916815260200190815260200160002060e06040519081016040529081600082015481526020016001820154815260200160028201548152602001600382018054600181600116156101000203166002900480601f0160208091040260200160405190810160405280929190818152602001828054600181600116156101000203166002900480156111385780601f1061110d57610100808354040283529160200191611138565b820191906000526020600020905b81548152906001019060200180831161111b57829003601f168201915b505050505081526020016004820160009054906101000a900473ffffffffffffffffffffffffffffffffffffffff1673ffffffffffffffffffffffffffffffffffffffff1673ffffffffffffffffffffffffffffffffffffffff168152602001600582015481526020016006820154815250509150600160008360200151815260200190815260200160002060a06040519081016040529081600082015481526020016001820160009054906101000a900473ffffffffffffffffffffffffffffffffffffffff1673ffffffffffffffffffffffffffffffffffffffff1673ffffffffffffffffffffffffffffffffffffffff1681526020016001820160149054906101000a900460ff161515151581526020016002820154815260200160038201548152505090506000826020015111801561127d57506000151581604001511515145b801561133d5750600460009054906101000a900473ffffffffffffffffffffffffffffffffffffffff1673ffffffffffffffffffffffffffffffffffffffff1663ee68483083602001516000604051602001526040518263ffffffff167c010000000000000000000000000000000000000000000000000000000002815260040180828152602001915050602060405180830381600087803b151561132157600080fd5b6102c65a03f1151561133257600080fd5b505050604051805190505b92505050919050565b6000611350612e75565b60008060026000866000191660001916815260200190815260200160002060e06040519081016040529081600082015481526020016001820154815260200160028201548152602001600382018054600181600116156101000203166002900480601f0160208091040260200160405190810160405280929190818152602001828054600181600116156101000203166002900480156114315780601f1061140657610100808354040283529160200191611431565b820191906000526020600020905b81548152906001019060200180831161141457829003601f168201915b505050505081526020016004820160009054906101000a900473ffffffffffffffffffffffffffffffffffffffff1673ffffffffffffffffffffffffffffffffffffffff1673ffffffffffffffffffffffffffffffffffffffff168152602001600582015481526020016006820154815250509250826040015191506114b685610e80565b80156114c6575060008360200151145b15156114d157600080fd5b600460009054906101000a900473ffffffffffffffffffffffffffffffffffffffff1673ffffffffffffffffffffffffffffffffffffffff166332ed3d6061154d6040805190810160405280600b81526020017f70566f746551756f72756d000000000000000000000000000000000000000000815250610fc2565b61158b6040805190810160405280600f81526020017f70436f6d6d697453746167654c656e0000000000000000000000000000000000815250610fc2565b6115c96040805190810160405280600f81526020017f7052657665616c53746167654c656e0000000000000000000000000000000000815250610fc2565b6000604051602001526040518463ffffffff167c0100000000000000000000000000000000000000000000000000000000028152600401808481526020018381526020018281526020019350505050602060405180830381600087803b151561163157600080fd5b6102c65a03f1151561164257600080fd5b50505060405180519050905060a0604051908101604052806116c760646116b9866116ab60646116a66040805190810160405280601081526020017f7044697370656e736174696f6e50637400000000000000000000000000000000815250610fc2565b612dc6565b612ddf90919063ffffffff16565b612e1290919063ffffffff16565b81526020013373ffffffffffffffffffffffffffffffffffffffff1681526020016000151581526020018381526020016000815250600160008381526020019081526020016000206000820151816000015560208201518160010160006101000a81548173ffffffffffffffffffffffffffffffffffffffff021916908373ffffffffffffffffffffffffffffffffffffffff16021790555060408201518160010160146101000a81548160ff02191690831515021790555060608201518160020155608082015181600301559050508060026000876000191660001916815260200190815260200160002060010181905550600360009054906101000a900473ffffffffffffffffffffffffffffffffffffffff1673ffffffffffffffffffffffffffffffffffffffff166323b872dd3330856000604051602001526040518463ffffffff167c0100000000000000000000000000000000000000000000000000000000028152600401808473ffffffffffffffffffffffffffffffffffffffff1673ffffffffffffffffffffffffffffffffffffffff1681526020018373ffffffffffffffffffffffffffffffffffffffff1673ffffffffffffffffffffffffffffffffffffffff1681526020018281526020019350505050602060405180830381600087803b15156118bb57600080fd5b6102c65a03f115156118cc57600080fd5b5050506040518051905015156118e157600080fd5b7f0fb6b38dd0b0fdfb50ffd5d677a1dfd895414edabfe0934ff5a4427a357c478c85826040518083600019166000191681526020018281526020019250505060405180910390a1809350505050919050565b600080600015156001600086815260200190815260200160002060040160003373ffffffffffffffffffffffffffffffffffffffff1673ffffffffffffffffffffffffffffffffffffffff16815260200190815260200160002060009054906101000a900460ff1615151415156119a957600080fd5b600115156001600086815260200190815260200160002060010160149054906101000a900460ff1615151415156119df57600080fd5b600460009054906101000a900473ffffffffffffffffffffffffffffffffffffffff1673ffffffffffffffffffffffffffffffffffffffff1663b43bd0693386866000604051602001526040518463ffffffff167c0100000000000000000000000000000000000000000000000000000000028152600401808473ffffffffffffffffffffffffffffffffffffffff1673ffffffffffffffffffffffffffffffffffffffff1681526020018381526020018281526020019350505050602060405180830381600087803b1515611ab457600080fd5b6102c65a03f11515611ac557600080fd5b505050604051805190509150611adc338585611d97565b9050816001600086815260200190815260200160002060030160008282540392505081905550806001600086815260200190815260200160002060000160008282540392505081905550600180600086815260200190815260200160002060040160003373ffffffffffffffffffffffffffffffffffffffff1673ffffffffffffffffffffffffffffffffffffffff16815260200190815260200160002060006101000a81548160ff0219169083151502179055507fdd8c90eb7b58b95be79e20fdec3539242183fc9657e5ced305a7498aee4490338482604051808381526020018281526020019250505060405180910390a1600360009054906101000a900473ffffffffffffffffffffffffffffffffffffffff1673ffffffffffffffffffffffffffffffffffffffff1663a9059cbb33836000604051602001526040518363ffffffff167c0100000000000000000000000000000000000000000000000000000000028152600401808373ffffffffffffffffffffffffffffffffffffffff1673ffffffffffffffffffffffffffffffffffffffff16815260200182815260200192505050602060405180830381600087803b1515611c9d57600080fd5b6102c65a03f11515611cae57600080fd5b505050604051805190501515611cc357600080fd5b50505050565b60016020528060005260406000206000915090508060000154908060010160009054906101000a900473ffffffffffffffffffffffffffffffffffffffff16908060010160149054906101000a900460ff16908060020154908060030154905085565b60006001600084815260200190815260200160002060040160008373ffffffffffffffffffffffffffffffffffffffff1673ffffffffffffffffffffffffffffffffffffffff16815260200190815260200160002060009054906101000a900460ff16905092915050565b6000806000806001600087815260200190815260200160002060030154925060016000878152602001908152602001600020600001549150600460009054906101000a900473ffffffffffffffffffffffffffffffffffffffff1673ffffffffffffffffffffffffffffffffffffffff1663b43bd0698888886000604051602001526040518463ffffffff167c0100000000000000000000000000000000000000000000000000000000028152600401808473ffffffffffffffffffffffffffffffffffffffff1673ffffffffffffffffffffffffffffffffffffffff1681526020018381526020018281526020019350505050602060405180830381600087803b1515611ea457600080fd5b6102c65a03f11515611eb557600080fd5b50505060405180519050905082828202811515611ece57fe5b0493505050509392505050565b6000806000611f1e6040805190810160405280600b81526020017f704d696e4465706f736974000000000000000000000000000000000000000000815250610fc2565b915084846040518083805190602001908083835b602083101515611f575780518252602082019150602081019050602083039250611f32565b6001836020036101000a038019825116818451168082178552505050505050905001828152602001925050506040518091039020905060405180807f64697370656e736174696f6e5063740000000000000000000000000000000000815250600f019050604051809103902060001916856040518082805190602001908083835b602083101515611ffd5780518252602082019150602081019050602083039250611fd8565b6001836020036101000a03801982511681845116808217855250505050505090500191505060405180910390206000191614806120d8575060405180807f7044697370656e736174696f6e506374000000000000000000000000000000008152506010019050604051809103902060001916856040518082805190602001908083835b6020831015156120a55780518252602082019150602081019050602083039250612080565b6001836020036101000a038019825116818451168082178552505050505050905001915050604051809103902060001916145b156120ee57606484111515156120ed57600080fd5b5b6120f781610e80565b15151561210357600080fd5b8361210d86610fc2565b1415151561211a57600080fd5b60e0604051908101604052806121766121676040805190810160405280600e81526020017f704170706c7953746167654c656e000000000000000000000000000000000000815250610fc2565b42612da890919063ffffffff16565b8152602001600081526020018381526020018681526020013373ffffffffffffffffffffffffffffffffffffffff1681526020016122ac60055461229e6121f16040805190810160405280600f81526020017f7052657665616c53746167654c656e0000000000000000000000000000000000815250610fc2565b6122906122326040805190810160405280600f81526020017f70436f6d6d697453746167654c656e0000000000000000000000000000000000815250610fc2565b6122826122736040805190810160405280600e81526020017f704170706c7953746167654c656e000000000000000000000000000000000000815250610fc2565b42612da890919063ffffffff16565b612da890919063ffffffff16565b612da890919063ffffffff16565b612da890919063ffffffff16565b815260200185815250600260008360001916600019168152602001908152602001600020600082015181600001556020820151816001015560408201518160020155606082015181600301908051906020019061230a929190612f17565b5060808201518160040160006101000a81548173ffffffffffffffffffffffffffffffffffffffff021916908373ffffffffffffffffffffffffffffffffffffffff16021790555060a0820151816005015560c08201518160060155905050600360009054906101000a900473ffffffffffffffffffffffffffffffffffffffff1673ffffffffffffffffffffffffffffffffffffffff166323b872dd3330856000604051602001526040518463ffffffff167c0100000000000000000000000000000000000000000000000000000000028152600401808473ffffffffffffffffffffffffffffffffffffffff1673ffffffffffffffffffffffffffffffffffffffff1681526020018373ffffffffffffffffffffffffffffffffffffffff1673ffffffffffffffffffffffffffffffffffffffff1681526020018281526020019350505050602060405180830381600087803b151561246a57600080fd5b6102c65a03f1151561247b57600080fd5b50505060405180519050151561249057600080fd5b7fd3caa4d224f34789befd659bf7fb440d7c6fa77c50278b0ad65e6f5e3b52446f85858360405180806020018481526020018360001916600019168152602001828103825285818151815260200191508051906020019080838360005b838110156125085780820151818401526020810190506124ed565b50505050905090810190601f1680156125355780820380516001836020036101000a031916815260200191505b5094505050505060405180910390a1809250505092915050565b6000612559612e75565b60026000846000191660001916815260200190815260200160002060e06040519081016040529081600082015481526020016001820154815260200160028201548152602001600382018054600181600116156101000203166002900480601f0160208091040260200160405190810160405280929190818152602001828054600181600116156101000203166002900480156126375780601f1061260c57610100808354040283529160200191612637565b820191906000526020600020905b81548152906001019060200180831161261a57829003601f168201915b505050505081526020016004820160009054906101000a900473ffffffffffffffffffffffffffffffffffffffff1673ffffffffffffffffffffffffffffffffffffffff1673ffffffffffffffffffffffffffffffffffffffff1681526020016005820154815260200160068201548152505090508060000151421180156126c257508060a0015142105b80156126d2575060008160200151145b915050919050565b60006020528060005260406000206000915090505481565b600360009054906101000a900473ffffffffffffffffffffffffffffffffffffffff1681565b600460009054906101000a900473ffffffffffffffffffffffffffffffffffffffff1681565b80600080846040518082805190602001908083835b6020831015156127785780518252602082019150602081019050602083039250612753565b6001836020036101000a038019825116818451168082178552505050505050905001915050604051809103902060001916600019168152602001908152602001600020819055505050565b6127cb612e75565b60008060026000856000191660001916815260200190815260200160002060e06040519081016040529081600082015481526020016001820154815260200160028201548152602001600382018054600181600116156101000203166002900480601f0160208091040260200160405190810160405280929190818152602001828054600181600116156101000203166002900480156128ac5780601f10612881576101008083540402835291602001916128ac565b820191906000526020600020905b81548152906001019060200180831161288f57829003601f168201915b505050505081526020016004820160009054906101000a900473ffffffffffffffffffffffffffffffffffffffff1673ffffffffffffffffffffffffffffffffffffffff1673ffffffffffffffffffffffffffffffffffffffff168152602001600582015481526020016006820154815250509250600160008460200151815260200190815260200160002091506129478360200151610eaa565b9050600460009054906101000a900473ffffffffffffffffffffffffffffffffffffffff1673ffffffffffffffffffffffffffffffffffffffff1663053e71a684602001516000604051602001526040518263ffffffff167c010000000000000000000000000000000000000000000000000000000002815260040180828152602001915050602060405180830381600087803b15156129e657600080fd5b6102c65a03f115156129f757600080fd5b50505060405180519050826003018190555060018260010160146101000a81548160ff021916908315150217905550600460009054906101000a900473ffffffffffffffffffffffffffffffffffffffff1673ffffffffffffffffffffffffffffffffffffffff16634940318384602001516000604051602001526040518263ffffffff167c010000000000000000000000000000000000000000000000000000000002815260040180828152602001915050602060405180830381600087803b1515612ac357600080fd5b6102c65a03f11515612ad457600080fd5b5050506040518051905015612c3957428360a001511115612b0257612b0183606001518460c0015161273e565b5b7f0596bd84e3e7dc311a8d2e32425107e3c27acef96831b8cf2a2abcae2609461f83602001516040518082815260200191505060405180910390a1600360009054906101000a900473ffffffffffffffffffffffffffffffffffffffff1673ffffffffffffffffffffffffffffffffffffffff1663a9059cbb8460800151836000604051602001526040518363ffffffff167c0100000000000000000000000000000000000000000000000000000000028152600401808373ffffffffffffffffffffffffffffffffffffffff1673ffffffffffffffffffffffffffffffffffffffff16815260200182815260200192505050602060405180830381600087803b1515612c0e57600080fd5b6102c65a03f11515612c1f57600080fd5b505050604051805190501515612c3457600080fd5b612da2565b7f88e47f2988d22858b92549596d2d6a57f107680fc7dc7dcf9dc52a06159e268c83602001516040518082815260200191505060405180910390a1600360009054906101000a900473ffffffffffffffffffffffffffffffffffffffff1673ffffffffffffffffffffffffffffffffffffffff1663a9059cbb600160008660200151815260200190815260200160002060010160009054906101000a900473ffffffffffffffffffffffffffffffffffffffff16836000604051602001526040518363ffffffff167c0100000000000000000000000000000000000000000000000000000000028152600401808373ffffffffffffffffffffffffffffffffffffffff1673ffffffffffffffffffffffffffffffffffffffff16815260200182815260200192505050602060405180830381600087803b1515612d7b57600080fd5b6102c65a03f11515612d8c57600080fd5b505050604051805190501515612da157600080fd5b5b50505050565b6000808284019050838110151515612dbc57fe5b8091505092915050565b6000828211151515612dd457fe5b818303905092915050565b60008082840290506000841480612e005750828482811515612dfd57fe5b04145b1515612e0857fe5b8091505092915050565b6000808284811515612e2057fe5b0490508091505092915050565b50805460018160011615610100020316600290046000825580601f10612e535750612e72565b601f016020900490600052602060002090810190612e719190612f97565b5b50565b60e060405190810160405280600081526020016000815260200160008152602001612e9e612fbc565b8152602001600073ffffffffffffffffffffffffffffffffffffffff16815260200160008152602001600081525090565b60a06040519081016040528060008152602001600073ffffffffffffffffffffffffffffffffffffffff16815260200160001515815260200160008152602001600081525090565b828054600181600116156101000203166002900490600052602060002090601f016020900481019282601f10612f5857805160ff1916838001178555612f86565b82800160010185558215612f86579182015b82811115612f85578251825591602001919060010190612f6a565b5b509050612f939190612f97565b5090565b612fb991905b80821115612fb5576000816000905550600101612f9d565b5090565b90565b6020604051908101604052806000815250905600a165627a7a72305820790a73171ea9fa9f0b02dd9a408c31dfec0f1decd23a19b60df5421a6daacbbe0029",
  "source": "pragma solidity^0.4.11;\n\nimport \"./PLCRVoting.sol\";\nimport \"tokens/eip20/EIP20Interface.sol\";\nimport \"zeppelin/math/SafeMath.sol\";\n\ncontract Parameterizer {\n\n  // ------\n  // EVENTS\n  // ------\n\n  event _ReparameterizationProposal(string name, uint value, bytes32 propID);\n  event _NewChallenge(bytes32 propID, uint pollID);\n  event _ProposalAccepted(bytes32 propID, string name, uint value);\n  event _ProposalExpired(bytes32 propID);\n  event _ChallengeSucceeded(uint challengeID);\n  event _ChallengeFailed(uint challengeID);\n  event _RewardClaimed(uint challengeID, uint reward);\n\n\n  // ------\n  // DATA STRUCTURES\n  // ------\n\n  using SafeMath for uint;\n\n  struct ParamProposal {\n    uint appExpiry;\n    uint challengeID;\n    uint deposit;\n    string name;\n    address owner;\n    uint processBy;\n    uint value;\n  }\n\n  struct Challenge {\n    uint rewardPool;        // (remaining) pool of tokens distributed amongst winning voters\n    address challenger;     // owner of Challenge\n    bool resolved;          // indication of if challenge is resolved\n    uint stake;             // number of tokens at risk for either party during challenge\n    uint winningTokens;     // (remaining) amount of tokens used for voting by the winning side\n    mapping(address => bool) tokenClaims;\n  }\n\n  // ------\n  // STATE\n  // ------\n\n  mapping(bytes32 => uint) public params;\n\n  // maps challengeIDs to associated challenge data\n  mapping(uint => Challenge) public challenges;\n\n  // maps pollIDs to intended data change if poll passes\n  mapping(bytes32 => ParamProposal) public proposals;\n\n  // Global Variables\n  EIP20Interface public token;\n  PLCRVoting public voting;\n  uint public PROCESSBY = 604800; // 7 days\n\n  // ------------\n  // CONSTRUCTOR\n  // ------------\n\n  /**\n  @dev constructor\n  @param _tokenAddr        address of the token which parameterizes this system\n  @param _plcrAddr         address of a PLCR voting contract for the provided token\n  @param _minDeposit       minimum deposit for listing to be whitelisted\n  @param _pMinDeposit      minimum deposit to propose a reparameterization\n  @param _applyStageLen    period over which applicants wait to be whitelisted\n  @param _pApplyStageLen   period over which reparmeterization proposals wait to be processed\n  @param _dispensationPct  percentage of losing party's deposit distributed to winning party\n  @param _pDispensationPct percentage of losing party's deposit distributed to winning party in parameterizer\n  @param _commitStageLen  length of commit period for voting\n  @param _pCommitStageLen length of commit period for voting in parameterizer\n  @param _revealStageLen  length of reveal period for voting\n  @param _pRevealStageLen length of reveal period for voting in parameterizer\n  @param _voteQuorum       type of majority out of 100 necessary for vote success\n  @param _pVoteQuorum      type of majority out of 100 necessary for vote success in parameterizer\n  */\n  function Parameterizer(\n    address _tokenAddr,\n    address _plcrAddr,\n    uint _minDeposit,\n    uint _pMinDeposit,\n    uint _applyStageLen,\n    uint _pApplyStageLen,\n    uint _commitStageLen,\n    uint _pCommitStageLen,\n    uint _revealStageLen,\n    uint _pRevealStageLen,\n    uint _dispensationPct,\n    uint _pDispensationPct,\n    uint _voteQuorum,\n    uint _pVoteQuorum\n    ) public {\n      token = EIP20Interface(_tokenAddr);\n      voting = PLCRVoting(_plcrAddr);\n\n      set(\"minDeposit\", _minDeposit);\n      set(\"pMinDeposit\", _pMinDeposit);\n      set(\"applyStageLen\", _applyStageLen);\n      set(\"pApplyStageLen\", _pApplyStageLen);\n      set(\"commitStageLen\", _commitStageLen);\n      set(\"pCommitStageLen\", _pCommitStageLen);\n      set(\"revealStageLen\", _revealStageLen);\n      set(\"pRevealStageLen\", _pRevealStageLen);\n      set(\"dispensationPct\", _dispensationPct);\n      set(\"pDispensationPct\", _pDispensationPct);\n      set(\"voteQuorum\", _voteQuorum);\n      set(\"pVoteQuorum\", _pVoteQuorum);\n  }\n\n  // -----------------------\n  // TOKEN HOLDER INTERFACE\n  // -----------------------\n\n  /**\n  @notice propose a reparamaterization of the key _name's value to _value.\n  @param _name the name of the proposed param to be set\n  @param _value the proposed value to set the param to be set\n  */\n  function proposeReparameterization(string _name, uint _value) public returns (bytes32) {\n    uint deposit = get(\"pMinDeposit\");\n    bytes32 propID = keccak256(_name, _value);\n\n    if (keccak256(_name) == keccak256('dispensationPct') ||\n       keccak256(_name) == keccak256('pDispensationPct')) {\n        require(_value <= 100);\n    }\n\n    require(!propExists(propID)); // Forbid duplicate proposals\n    require(get(_name) != _value); // Forbid NOOP reparameterizations\n\n    // attach name and value to pollID\n    proposals[propID] = ParamProposal({\n      appExpiry: now.add(get(\"pApplyStageLen\")),\n      challengeID: 0,\n      deposit: deposit,\n      name: _name,\n      owner: msg.sender,\n      processBy: now.add(get(\"pApplyStageLen\"))\n        .add(get(\"pCommitStageLen\"))\n        .add(get(\"pRevealStageLen\"))\n        .add(PROCESSBY),\n      value: _value\n    });\n\n    require(token.transferFrom(msg.sender, this, deposit)); // escrow tokens (deposit amt)\n\n    _ReparameterizationProposal(_name, _value, propID);\n    return propID;\n  }\n\n  /**\n  @notice challenge the provided proposal ID, and put tokens at stake to do so.\n  @param _propID the proposal ID to challenge\n  */\n  function challengeReparameterization(bytes32 _propID) public returns (uint challengeID) {\n    ParamProposal memory prop = proposals[_propID];\n    uint deposit = prop.deposit;\n\n    require(propExists(_propID) && prop.challengeID == 0);\n\n    //start poll\n    uint pollID = voting.startPoll(\n      get(\"pVoteQuorum\"),\n      get(\"pCommitStageLen\"),\n      get(\"pRevealStageLen\")\n    );\n\n    challenges[pollID] = Challenge({\n      challenger: msg.sender,\n      rewardPool: SafeMath.sub(100, get(\"pDispensationPct\")).mul(deposit).div(100),\n      stake: deposit,\n      resolved: false,\n      winningTokens: 0\n    });\n\n    proposals[_propID].challengeID = pollID;       // update listing to store most recent challenge\n\n    //take tokens from challenger\n    require(token.transferFrom(msg.sender, this, deposit));\n\n    _NewChallenge(_propID, pollID);\n    return pollID;\n  }\n\n  /**\n  @notice for the provided proposal ID, set it, resolve its challenge, or delete it depending on whether it can be set, has a challenge which can be resolved, or if its \"process by\" date has passed\n  @param _propID the proposal ID to make a determination and state transition for\n  */\n  function processProposal(bytes32 _propID) public {\n    ParamProposal storage prop = proposals[_propID];\n    address propOwner = prop.owner;\n    uint propDeposit = prop.deposit;\n\n    \n    // Before any token transfers, deleting the proposal will ensure that if reentrancy occurs the\n    // prop.owner and prop.deposit will be 0, thereby preventing theft\n   if (canBeSet(_propID)) {\n      // There is no challenge against the proposal. The processBy date for the proposal has not\n     // passed, but the proposal's appExpirty date has passed.\n      set(prop.name, prop.value);\n      _ProposalAccepted(_propID, prop.name, prop.value);\n      delete proposals[_propID];\n      require(token.transfer(propOwner, propDeposit));\n    } else if (challengeCanBeResolved(_propID)) {\n      // There is a challenge against the proposal.\n      resolveChallenge(_propID);\n    } else if (now > prop.processBy) {\n      // There is no challenge against the proposal, but the processBy date has passed.\n      _ProposalExpired(_propID);\n      delete proposals[_propID];\n      require(token.transfer(propOwner, propDeposit));\n    } else {\n      // There is no challenge against the proposal, and neither the appExpiry date nor the\n      // processBy date has passed.\n      revert();\n    }\n\n    assert(get(\"dispensationPct\") <= 100);\n    assert(get(\"pDispensationPct\") <= 100);\n\n    // verify that future proposal appExpiry and processBy times will not overflow\n    now.add(get(\"pApplyStageLen\"))\n      .add(get(\"pCommitStageLen\"))\n      .add(get(\"pRevealStageLen\"))\n      .add(PROCESSBY);\n\n    delete proposals[_propID];\n  }\n\n  /**\n  @notice claim the tokens owed for the msg.sender in the provided challenge\n  @param _challengeID the challenge ID to claim tokens for\n  @param _salt the salt used to vote in the challenge being withdrawn for\n  */\n  function claimReward(uint _challengeID, uint _salt) public {\n    // ensure voter has not already claimed tokens and challenge results have been processed\n    require(challenges[_challengeID].tokenClaims[msg.sender] == false);\n    require(challenges[_challengeID].resolved == true);\n\n    uint voterTokens = voting.getNumPassingTokens(msg.sender, _challengeID, _salt);\n    uint reward = voterReward(msg.sender, _challengeID, _salt);\n\n    // subtract voter's information to preserve the participation ratios of other voters\n    // compared to the remaining pool of rewards\n    challenges[_challengeID].winningTokens -= voterTokens;\n    challenges[_challengeID].rewardPool -= reward;\n\n    // ensures a voter cannot claim tokens again\n    challenges[_challengeID].tokenClaims[msg.sender] = true;\n\n    _RewardClaimed(_challengeID, reward);\n    require(token.transfer(msg.sender, reward));\n  }\n\n  // --------\n  // GETTERS\n  // --------\n\n  /**\n  @dev                Calculates the provided voter's token reward for the given poll.\n  @param _voter       The address of the voter whose reward balance is to be returned\n  @param _challengeID The ID of the challenge the voter's reward is being calculated for\n  @param _salt        The salt of the voter's commit hash in the given poll\n  @return             The uint indicating the voter's reward\n  */\n  function voterReward(address _voter, uint _challengeID, uint _salt)\n  public view returns (uint) {\n    uint winningTokens = challenges[_challengeID].winningTokens;\n    uint rewardPool = challenges[_challengeID].rewardPool;\n    uint voterTokens = voting.getNumPassingTokens(_voter, _challengeID, _salt);\n    return (voterTokens * rewardPool) / winningTokens;\n  }\n\n  /**\n  @notice Determines whether a proposal passed its application stage without a challenge\n  @param _propID The proposal ID for which to determine whether its application stage passed without a challenge\n  */\n  function canBeSet(bytes32 _propID) view public returns (bool) {\n    ParamProposal memory prop = proposals[_propID];\n\n    return (now > prop.appExpiry && now < prop.processBy && prop.challengeID == 0);\n  }\n\n  /**\n  @notice Determines whether a proposal exists for the provided proposal ID\n  @param _propID The proposal ID whose existance is to be determined\n  */\n  function propExists(bytes32 _propID) view public returns (bool) {\n    return proposals[_propID].processBy > 0;\n  }\n\n  /**\n  @notice Determines whether the provided proposal ID has a challenge which can be resolved\n  @param _propID The proposal ID whose challenge to inspect\n  */\n  function challengeCanBeResolved(bytes32 _propID) view public returns (bool) {\n    ParamProposal memory prop = proposals[_propID];\n    Challenge memory challenge = challenges[prop.challengeID];\n\n    return (prop.challengeID > 0 && challenge.resolved == false &&\n            voting.pollEnded(prop.challengeID));\n  }\n\n  /**\n  @notice Determines the number of tokens to awarded to the winning party in a challenge\n  @param _challengeID The challengeID to determine a reward for\n  */\n  function challengeWinnerReward(uint _challengeID) public view returns (uint) {\n    if(voting.getTotalNumberOfTokensForWinningOption(_challengeID) == 0) {\n      // Edge case, nobody voted, give all tokens to the challenger.\n      return 2 * challenges[_challengeID].stake;\n    }\n\n    return (2 * challenges[_challengeID].stake) - challenges[_challengeID].rewardPool;\n  }\n\n  /**\n  @notice gets the parameter keyed by the provided name value from the params mapping\n  @param _name the key whose value is to be determined\n  */\n  function get(string _name) public view returns (uint value) {\n    return params[keccak256(_name)];\n  }\n\n  /**\n  @dev                Getter for Challenge tokenClaims mappings\n  @param _challengeID The challengeID to query\n  @param _voter       The voter whose claim status to query for the provided challengeID\n  */\n  function tokenClaims(uint _challengeID, address _voter) public view returns (bool) {\n    return challenges[_challengeID].tokenClaims[_voter];\n  }\n\n  // ----------------\n  // PRIVATE FUNCTIONS\n  // ----------------\n\n  /**\n  @dev resolves a challenge for the provided _propID. It must be checked in advance whether the _propID has a challenge on it\n  @param _propID the proposal ID whose challenge is to be resolved.\n  */\n  function resolveChallenge(bytes32 _propID) private {\n    ParamProposal memory prop = proposals[_propID];\n    Challenge storage challenge = challenges[prop.challengeID];\n\n    // winner gets back their full staked deposit, and dispensationPct*loser's stake\n    uint reward = challengeWinnerReward(prop.challengeID);\n\n    challenge.winningTokens =\n      voting.getTotalNumberOfTokensForWinningOption(prop.challengeID);\n    challenge.resolved = true;\n\n    if (voting.isPassed(prop.challengeID)) { // The challenge failed\n      if(prop.processBy > now) {\n        set(prop.name, prop.value);\n      }\n      _ChallengeFailed(prop.challengeID);\n      require(token.transfer(prop.owner, reward));\n    }\n    else { // The challenge succeeded or nobody voted\n      _ChallengeSucceeded(prop.challengeID);\n      require(token.transfer(challenges[prop.challengeID].challenger, reward));\n    }\n  }\n\n  /**\n  @dev sets the param keted by the provided name to the provided value\n  @param _name the name of the param to be set\n  @param _value the value to set the param to be set\n  */\n  function set(string _name, uint _value) private {\n    params[keccak256(_name)] = _value;\n  }\n}\n\n",
  "sourcePath": "/Users/kangarang/Desktop/Projects/tcr-ui/tcr/contracts/Parameterizer.sol",
  "compiler": {
    "name": "solc",
    "version": "0.4.18+commit.9cf6e910.Emscripten.clang"
  },
  "schemaVersion": "1.0.1",
  "updatedAt": "2018-03-30T01:43:18.648Z"
}