{
  "contractName": "DLL",
  "abi": [
    {
      "constant": true,
      "inputs": [
        {
          "name": "self",
          "type": "DLL.Data storage"
        }
      ],
      "name": "isEmpty",
      "outputs": [
        {
          "name": "",
          "type": "bool"
        }
      ],
      "payable": false,
      "stateMutability": "view",
      "type": "function"
    },
    {
      "constant": true,
      "inputs": [
        {
          "name": "self",
          "type": "DLL.Data storage"
        },
        {
          "name": "_curr",
          "type": "uint256"
        }
      ],
      "name": "contains",
      "outputs": [
        {
          "name": "",
          "type": "bool"
        }
      ],
      "payable": false,
      "stateMutability": "view",
      "type": "function"
    },
    {
      "constant": true,
      "inputs": [
        {
          "name": "self",
          "type": "DLL.Data storage"
        },
        {
          "name": "_curr",
          "type": "uint256"
        }
      ],
      "name": "getNext",
      "outputs": [
        {
          "name": "",
          "type": "uint256"
        }
      ],
      "payable": false,
      "stateMutability": "view",
      "type": "function"
    },
    {
      "constant": true,
      "inputs": [
        {
          "name": "self",
          "type": "DLL.Data storage"
        },
        {
          "name": "_curr",
          "type": "uint256"
        }
      ],
      "name": "getPrev",
      "outputs": [
        {
          "name": "",
          "type": "uint256"
        }
      ],
      "payable": false,
      "stateMutability": "view",
      "type": "function"
    },
    {
      "constant": true,
      "inputs": [
        {
          "name": "self",
          "type": "DLL.Data storage"
        }
      ],
      "name": "getStart",
      "outputs": [
        {
          "name": "",
          "type": "uint256"
        }
      ],
      "payable": false,
      "stateMutability": "view",
      "type": "function"
    },
    {
      "constant": true,
      "inputs": [
        {
          "name": "self",
          "type": "DLL.Data storage"
        }
      ],
      "name": "getEnd",
      "outputs": [
        {
          "name": "",
          "type": "uint256"
        }
      ],
      "payable": false,
      "stateMutability": "view",
      "type": "function"
    },
    {
      "constant": false,
      "inputs": [
        {
          "name": "self",
          "type": "DLL.Data storage"
        },
        {
          "name": "_prev",
          "type": "uint256"
        },
        {
          "name": "_curr",
          "type": "uint256"
        },
        {
          "name": "_next",
          "type": "uint256"
        }
      ],
      "name": "insert",
      "outputs": [],
      "payable": false,
      "stateMutability": "nonpayable",
      "type": "function"
    },
    {
      "constant": false,
      "inputs": [
        {
          "name": "self",
          "type": "DLL.Data storage"
        },
        {
          "name": "_curr",
          "type": "uint256"
        }
      ],
      "name": "remove",
      "outputs": [],
      "payable": false,
      "stateMutability": "nonpayable",
      "type": "function"
    }
  ],
  "bytecode": "0x6060604052341561000f57600080fd5b6104db8061001e6000396000f30060606040526004361061008e576000357c0100000000000000000000000000000000000000000000000000000000900463ffffffff16806307d29ac91461009357806330fe0a0a146100c8578063366a5ba2146100fd5780636d900ed0146101365780637c11cf64146101575780639735c51b14610183578063c426b006146101b6578063ee4f1ac4146101e6575b600080fd5b6100b26004808035906020019091908035906020019091905050610212565b6040518082815260200191505060405180910390f35b6100e76004808035906020019091908035906020019091905050610235565b6040518082815260200191505060405180910390f35b61011c6004808035906020019091908035906020019091905050610258565b604051808215151515815260200191505060405180910390f35b61015560048080359060200190919080359060200190919050506102d8565b005b61016d6004808035906020019091905050610371565b6040518082815260200191505060405180910390f35b6101b46004808035906020019091908035906020019091908035906020019091908035906020019091905050610385565b005b6101cc6004808035906020019091905050610487565b604051808215151515815260200191505060405180910390f35b6101fc600480803590602001909190505061049b565b6040518082815260200191505060405180910390f35b600082600001600083815260200190815260200160002060000154905092915050565b600082600001600083815260200190815260200160002060010154905092915050565b600080600061026685610487565b806102715750600084145b1561027f57600092506102d0565b836102898661049b565b14801561029d57508361029b86610371565b145b915060006102ab8686610212565b1480156102c1575060006102bf8686610235565b145b905081806102cd575080155b92505b505092915050565b6000806102e58484610258565b15156102f05761036b565b6102fa8484610212565b91506103068484610235565b905080846000016000848152602001908152602001600020600101819055508184600001600083815260200190815260200160002060000181905550836000016000848152602001908152602001600020600080820160009055600182016000905550505b50505050565b600061037e826000610235565b9050919050565b6000821415151561039557600080fd5b61039f84836102d8565b60008314806103b457506103b38484610258565b5b15156103bf57600080fd5b60008114806103d457506103d38482610258565b5b15156103df57600080fd5b806103ea8585610212565b1415156103f657600080fd5b826104018583610235565b14151561040d57600080fd5b828460000160008481526020019081526020016000206001018190555080846000016000848152602001908152602001600020600001819055508184600001600085815260200190815260200160002060000181905550818460000160008381526020019081526020016000206001018190555050505050565b6000806104938361049b565b149050919050565b60006104a8826000610212565b90509190505600a165627a7a72305820d199012a0b4d21282428f7370f175e86bffd7267b1c5e1a3301c83b1a2661ec40029",
  "source": "pragma solidity^0.4.11;\n\nlibrary DLL {\n\n  uint constant NULL_NODE_ID = 0;\n\n  struct Node {\n    uint next;\n    uint prev;\n  }\n\n  struct Data {\n    mapping(uint => Node) dll;\n  }\n\n  function isEmpty(Data storage self) public view returns (bool) {\n    return getStart(self) == NULL_NODE_ID;\n  }\n\n  function contains(Data storage self, uint _curr) public view returns (bool) {\n    if (isEmpty(self) || _curr == NULL_NODE_ID) {\n      return false;\n    } \n\n    bool isSingleNode = (getStart(self) == _curr) && (getEnd(self) == _curr);\n    bool isNullNode = (getNext(self, _curr) == NULL_NODE_ID) && (getPrev(self, _curr) == NULL_NODE_ID);\n    return isSingleNode || !isNullNode;\n  }\n\n  function getNext(Data storage self, uint _curr) public view returns (uint) {\n    return self.dll[_curr].next;\n  }\n\n  function getPrev(Data storage self, uint _curr) public view returns (uint) {\n    return self.dll[_curr].prev;\n  }\n\n  function getStart(Data storage self) public view returns (uint) {\n    return getNext(self, NULL_NODE_ID);\n  }\n\n  function getEnd(Data storage self) public view returns (uint) {\n    return getPrev(self, NULL_NODE_ID);\n  }\n\n  /**\n  @dev Inserts a new node between _prev and _next. When inserting a node already existing in \n  the list it will be automatically removed from the old position.\n  @param _prev the node which _new will be inserted after\n  @param _curr the id of the new node being inserted\n  @param _next the node which _new will be inserted before\n  */\n  function insert(Data storage self, uint _prev, uint _curr, uint _next) public {\n    require(_curr != NULL_NODE_ID);\n\n    remove(self, _curr);\n\n    require(_prev == NULL_NODE_ID || contains(self, _prev));\n    require(_next == NULL_NODE_ID || contains(self, _next));\n\n    require(getNext(self, _prev) == _next);\n    require(getPrev(self, _next) == _prev);\n\n    self.dll[_curr].prev = _prev;\n    self.dll[_curr].next = _next;\n\n    self.dll[_prev].next = _curr;\n    self.dll[_next].prev = _curr;\n  }\n\n  function remove(Data storage self, uint _curr) public {\n    if (!contains(self, _curr)) {\n      return;\n    }\n\n    uint next = getNext(self, _curr);\n    uint prev = getPrev(self, _curr);\n\n    self.dll[next].prev = prev;\n    self.dll[prev].next = next;\n\n    delete self.dll[_curr];\n  }\n}\n",
  "sourcePath": "dll/DLL.sol",
  "compiler": {
    "name": "solc",
    "version": "0.4.19+commit.c4cbbb05.Emscripten.clang"
  },
  "schemaVersion": "1.0.1",
  "updatedAt": "2018-03-02T21:48:51.324Z"
}