{
  "contractName": "Challenge",
  "abi": [
    {
      "constant": true,
      "inputs": [
        {
          "name": "_self",
          "type": "Challenge.Data storage"
        }
      ],
      "name": "canBeResolved",
      "outputs": [
        {
          "name": "",
          "type": "bool"
        }
      ],
      "payable": false,
      "stateMutability": "view",
      "type": "function"
    },
    {
      "constant": true,
      "inputs": [
        {
          "name": "_self",
          "type": "Challenge.Data storage"
        }
      ],
      "name": "isResolved",
      "outputs": [
        {
          "name": "",
          "type": "bool"
        }
      ],
      "payable": false,
      "stateMutability": "view",
      "type": "function"
    },
    {
      "constant": false,
      "inputs": [
        {
          "name": "_self",
          "type": "Challenge.Data storage"
        },
        {
          "name": "_voter",
          "type": "address"
        },
        {
          "name": "_salt",
          "type": "uint256"
        }
      ],
      "name": "claimReward",
      "outputs": [
        {
          "name": "",
          "type": "uint256"
        }
      ],
      "payable": false,
      "stateMutability": "nonpayable",
      "type": "function"
    },
    {
      "constant": true,
      "inputs": [
        {
          "name": "_self",
          "type": "Challenge.Data storage"
        }
      ],
      "name": "challengeWinnerReward",
      "outputs": [
        {
          "name": "",
          "type": "uint256"
        }
      ],
      "payable": false,
      "stateMutability": "view",
      "type": "function"
    },
    {
      "constant": true,
      "inputs": [
        {
          "name": "_self",
          "type": "Challenge.Data storage"
        },
        {
          "name": "_voter",
          "type": "address"
        },
        {
          "name": "_salt",
          "type": "uint256"
        }
      ],
      "name": "voterReward",
      "outputs": [
        {
          "name": "",
          "type": "uint256"
        }
      ],
      "payable": false,
      "stateMutability": "view",
      "type": "function"
    },
    {
      "constant": true,
      "inputs": [
        {
          "name": "_self",
          "type": "Challenge.Data storage"
        }
      ],
      "name": "isInitialized",
      "outputs": [
        {
          "name": "",
          "type": "bool"
        }
      ],
      "payable": false,
      "stateMutability": "view",
      "type": "function"
    }
  ],
  "bytecode": "0x6060604052341561000f57600080fd5b61081c8061001e6000396000f300606060405260043610610078576000357c0100000000000000000000000000000000000000000000000000000000900463ffffffff1680630e2edf6e1461007d578063456bb3dc146100ad57806382fb3e55146100dd57806396093a2714610131578063c0d4efb81461015d578063dc0e069b146101b1575b600080fd5b61009360048080359060200190919050506101e1565b604051808215151515815260200191505060405180910390f35b6100c360048080359060200190919050506102c5565b604051808215151515815260200191505060405180910390f35b61011b600480803590602001909190803573ffffffffffffffffffffffffffffffffffffffff169060200190919080359060200190919050506102e0565b6040518082815260200191505060405180910390f35b61014760048080359060200190919050506105dd565b6040518082815260200191505060405180910390f35b61019b600480803590602001909190803573ffffffffffffffffffffffffffffffffffffffff169060200190919080359060200190919050506106c5565b6040518082815260200191505060405180910390f35b6101c760048080359060200190919050506107e0565b604051808215151515815260200191505060405180910390f35b60008160010160009054906101000a900473ffffffffffffffffffffffffffffffffffffffff1673ffffffffffffffffffffffffffffffffffffffff1663ee68483083600301546000604051602001526040518263ffffffff167c010000000000000000000000000000000000000000000000000000000002815260040180828152602001915050602060405180830381600087803b151561028257600080fd5b6102c65a03f1151561029357600080fd5b5050506040518051905080156102be5750600015158260040160149054906101000a900460ff161515145b9050919050565b60008160040160149054906101000a900460ff169050919050565b60008060008015158660070160008773ffffffffffffffffffffffffffffffffffffffff1673ffffffffffffffffffffffffffffffffffffffff16815260200190815260200160002060009054906101000a900460ff16151514151561034557600080fd5b61034e866102c5565b151561035957600080fd5b8560010160009054906101000a900473ffffffffffffffffffffffffffffffffffffffff1673ffffffffffffffffffffffffffffffffffffffff1663b43bd069868860030154876000604051602001526040518463ffffffff167c0100000000000000000000000000000000000000000000000000000000028152600401808473ffffffffffffffffffffffffffffffffffffffff1673ffffffffffffffffffffffffffffffffffffffff1681526020018381526020018281526020019350505050602060405180830381600087803b151561043457600080fd5b6102c65a03f1151561044557600080fd5b50505060405180519050915061045c8686866106c5565b90508186600601600082825403925050819055508086600001600082825403925050819055508560020160009054906101000a900473ffffffffffffffffffffffffffffffffffffffff1673ffffffffffffffffffffffffffffffffffffffff1663a9059cbb86836000604051602001526040518363ffffffff167c0100000000000000000000000000000000000000000000000000000000028152600401808373ffffffffffffffffffffffffffffffffffffffff1673ffffffffffffffffffffffffffffffffffffffff16815260200182815260200192505050602060405180830381600087803b151561055157600080fd5b6102c65a03f1151561056257600080fd5b50505060405180519050151561057757600080fd5b60018660070160008773ffffffffffffffffffffffffffffffffffffffff1673ffffffffffffffffffffffffffffffffffffffff16815260200190815260200160002060006101000a81548160ff02191690831515021790555080925050509392505050565b6000808260010160009054906101000a900473ffffffffffffffffffffffffffffffffffffffff1673ffffffffffffffffffffffffffffffffffffffff1663053e71a684600301546000604051602001526040518263ffffffff167c010000000000000000000000000000000000000000000000000000000002815260040180828152602001915050602060405180830381600087803b151561067f57600080fd5b6102c65a03f1151561069057600080fd5b5050506040518051905014156106af57816005015460020290506106c0565b816000015482600501546002020390505b919050565b6000808460010160009054906101000a900473ffffffffffffffffffffffffffffffffffffffff1673ffffffffffffffffffffffffffffffffffffffff1663b43bd069858760030154866000604051602001526040518463ffffffff167c0100000000000000000000000000000000000000000000000000000000028152600401808473ffffffffffffffffffffffffffffffffffffffff1673ffffffffffffffffffffffffffffffffffffffff1681526020018381526020018281526020019350505050602060405180830381600087803b15156107a357600080fd5b6102c65a03f115156107b457600080fd5b5050506040518051905090508460060154856000015482028115156107d557fe5b049150509392505050565b60008082600301541190509190505600a165627a7a72305820f3c3f8f3ec73acd40cb698266724dfb3cd1239352210a9a3c5aa3e9e09f467bb0029",
  "source": "pragma solidity^0.4.11;\n\nimport \"./PLCRVoting.sol\";\nimport \"./optional/StandardToken.sol\";\n\nlibrary Challenge {\n\n  // ------\n  // DATA STRUCTURES\n  // ------\n\n  struct Data {\n    uint rewardPool;        // (remaining) Pool of tokens distributed amongst winning voters\n    PLCRVoting voting;      // Address of a PLCRVoting contract\n    StandardToken token;    // Address of an ERC20 token contract\n    uint challengeID;       // An ID corresponding to a pollID in the PLCR contract\n    address challenger;     // Owner of Challenge\n    bool resolved;          // Indication of if challenge is resolved\n    uint stake;             // Number of tokens at risk for either party during challenge\n    uint winningTokens;     // (remaining) Amount of tokens used for voting by the winning side\n    mapping(address =>\n            bool) tokenClaims; // maps addresses to token claim data for this challenge\n  }\n\n  // --------\n  // GETTERS\n  // --------\n\n  /// @dev returns true if the application/listing is initialized\n  function isInitialized(Data storage _self) constant public returns (bool) {\n    return _self.challengeID > 0;\n  }\n\n  /// @dev returns true if the application/listing has a resolved challenge\n  function isResolved(Data storage _self) constant public returns (bool) {\n    return _self.resolved;\n  }\n\n  /// @dev determines whether voting has concluded in a challenge for a given domain. Throws if no challenge exists.\n  function canBeResolved(Data storage _self) constant public returns (bool) {\n    return _self.voting.pollEnded(_self.challengeID) && _self.resolved == false;\n  }\n\n  /// @dev determines the number of tokens awarded to the winning party in a challenge.\n  function challengeWinnerReward(Data storage _self) public constant returns (uint) {\n    // Edge case, nobody voted, give all tokens to the challenger.\n    if (_self.voting.getTotalNumberOfTokensForWinningOption(_self.challengeID) == 0) {\n      return 2 * _self.stake;\n    }\n\n    return (2 * _self.stake) - _self.rewardPool;\n  }\n\n  /**\n  @dev                Calculates the provided voter's token reward for the given poll.\n  @param _voter       The address of the voter whose reward balance is to be returned\n  @param _salt        The salt of the voter's commit hash in the given poll\n  @return             The uint indicating the voter's reward \n  */\n  function voterReward(Data storage _self, address _voter, uint _salt)\n  public constant returns (uint) {\n    uint voterTokens = _self.voting.getNumPassingTokens(_voter, _self.challengeID, _salt);\n    return (voterTokens * _self.rewardPool) / _self.winningTokens;\n  }\n\n  // --------\n  // STATE-CHANGING FUNCTIONS\n  // --------\n\n  /**\n  @dev called by a voter to claim his/her reward for each completed vote.\n  @param _voter the address of the voter to claim a reward for\n  @param _salt the salt of a voter's commit hash in the given poll\n  */\n  function claimReward(Data storage _self, address _voter, uint _salt) public returns (uint) {\n    // Ensures the voter has not already claimed tokens and challenge results have been processed\n    require(_self.tokenClaims[_voter] == false);\n    require(isResolved(_self));\n\n    uint voterTokens = _self.voting.getNumPassingTokens(_voter, _self.challengeID, _salt);\n    uint reward = voterReward(_self, _voter, _salt);\n\n    // Subtracts the voter's information to preserve the participation ratios\n    // of other voters compared to the remaining pool of rewards\n    _self.winningTokens -= voterTokens;\n    _self.rewardPool -= reward;\n\n    require(_self.token.transfer(_voter, reward));\n\n    // Ensures a voter cannot claim tokens again\n    _self.tokenClaims[_voter] = true;\n    \n    return reward;\n  }\n}\n\n",
  "sourcePath": "/home/isaac/Desktop/Projects/tcr/contracts/Challenge.sol",
  "compiler": {
    "name": "solc",
    "version": "0.4.18+commit.9cf6e910.Emscripten.clang"
  },
  "schemaVersion": "1.0.1",
  "updatedAt": "2018-01-03T09:38:53.834Z"
}