{
  "contractName": "Parameterizer",
  "abi": [
    {
      "constant": true,
      "inputs": [],
      "name": "PROCESSBY",
      "outputs": [
        {
          "name": "",
          "type": "uint256"
        }
      ],
      "payable": false,
      "stateMutability": "view",
      "type": "function"
    },
    {
      "constant": false,
      "inputs": [
        {
          "name": "_propID",
          "type": "bytes32"
        }
      ],
      "name": "processProposal",
      "outputs": [],
      "payable": false,
      "stateMutability": "nonpayable",
      "type": "function"
    },
    {
      "constant": true,
      "inputs": [
        {
          "name": "",
          "type": "bytes32"
        }
      ],
      "name": "proposals",
      "outputs": [
        {
          "name": "appExpiry",
          "type": "uint256"
        },
        {
          "name": "challengeID",
          "type": "uint256"
        },
        {
          "name": "deposit",
          "type": "uint256"
        },
        {
          "name": "name",
          "type": "string"
        },
        {
          "name": "owner",
          "type": "address"
        },
        {
          "name": "processBy",
          "type": "uint256"
        },
        {
          "name": "value",
          "type": "uint256"
        }
      ],
      "payable": false,
      "stateMutability": "view",
      "type": "function"
    },
    {
      "constant": true,
      "inputs": [
        {
          "name": "_propID",
          "type": "bytes32"
        }
      ],
      "name": "propExists",
      "outputs": [
        {
          "name": "",
          "type": "bool"
        }
      ],
      "payable": false,
      "stateMutability": "view",
      "type": "function"
    },
    {
      "constant": true,
      "inputs": [
        {
          "name": "_challengeID",
          "type": "uint256"
        }
      ],
      "name": "challengeWinnerReward",
      "outputs": [
        {
          "name": "",
          "type": "uint256"
        }
      ],
      "payable": false,
      "stateMutability": "view",
      "type": "function"
    },
    {
      "constant": true,
      "inputs": [
        {
          "name": "_name",
          "type": "string"
        }
      ],
      "name": "get",
      "outputs": [
        {
          "name": "value",
          "type": "uint256"
        }
      ],
      "payable": false,
      "stateMutability": "view",
      "type": "function"
    },
    {
      "constant": true,
      "inputs": [
        {
          "name": "_propID",
          "type": "bytes32"
        }
      ],
      "name": "challengeCanBeResolved",
      "outputs": [
        {
          "name": "",
          "type": "bool"
        }
      ],
      "payable": false,
      "stateMutability": "view",
      "type": "function"
    },
    {
      "constant": false,
      "inputs": [
        {
          "name": "_propID",
          "type": "bytes32"
        }
      ],
      "name": "challengeReparameterization",
      "outputs": [
        {
          "name": "challengeID",
          "type": "uint256"
        }
      ],
      "payable": false,
      "stateMutability": "nonpayable",
      "type": "function"
    },
    {
      "constant": false,
      "inputs": [
        {
          "name": "_challengeID",
          "type": "uint256"
        },
        {
          "name": "_salt",
          "type": "uint256"
        }
      ],
      "name": "claimReward",
      "outputs": [],
      "payable": false,
      "stateMutability": "nonpayable",
      "type": "function"
    },
    {
      "constant": true,
      "inputs": [
        {
          "name": "",
          "type": "uint256"
        }
      ],
      "name": "challenges",
      "outputs": [
        {
          "name": "rewardPool",
          "type": "uint256"
        },
        {
          "name": "voting",
          "type": "address"
        },
        {
          "name": "token",
          "type": "address"
        },
        {
          "name": "challengeID",
          "type": "uint256"
        },
        {
          "name": "challenger",
          "type": "address"
        },
        {
          "name": "resolved",
          "type": "bool"
        },
        {
          "name": "stake",
          "type": "uint256"
        },
        {
          "name": "winningTokens",
          "type": "uint256"
        }
      ],
      "payable": false,
      "stateMutability": "view",
      "type": "function"
    },
    {
      "constant": true,
      "inputs": [
        {
          "name": "_voter",
          "type": "address"
        },
        {
          "name": "_challengeID",
          "type": "uint256"
        },
        {
          "name": "_salt",
          "type": "uint256"
        }
      ],
      "name": "voterReward",
      "outputs": [
        {
          "name": "",
          "type": "uint256"
        }
      ],
      "payable": false,
      "stateMutability": "view",
      "type": "function"
    },
    {
      "constant": false,
      "inputs": [
        {
          "name": "_name",
          "type": "string"
        },
        {
          "name": "_value",
          "type": "uint256"
        }
      ],
      "name": "proposeReparameterization",
      "outputs": [
        {
          "name": "",
          "type": "bytes32"
        }
      ],
      "payable": false,
      "stateMutability": "nonpayable",
      "type": "function"
    },
    {
      "constant": true,
      "inputs": [
        {
          "name": "_propID",
          "type": "bytes32"
        }
      ],
      "name": "canBeSet",
      "outputs": [
        {
          "name": "",
          "type": "bool"
        }
      ],
      "payable": false,
      "stateMutability": "view",
      "type": "function"
    },
    {
      "constant": true,
      "inputs": [
        {
          "name": "",
          "type": "bytes32"
        }
      ],
      "name": "params",
      "outputs": [
        {
          "name": "",
          "type": "uint256"
        }
      ],
      "payable": false,
      "stateMutability": "view",
      "type": "function"
    },
    {
      "constant": true,
      "inputs": [],
      "name": "token",
      "outputs": [
        {
          "name": "",
          "type": "address"
        }
      ],
      "payable": false,
      "stateMutability": "view",
      "type": "function"
    },
    {
      "constant": true,
      "inputs": [],
      "name": "voting",
      "outputs": [
        {
          "name": "",
          "type": "address"
        }
      ],
      "payable": false,
      "stateMutability": "view",
      "type": "function"
    },
    {
      "inputs": [
        {
          "name": "_tokenAddr",
          "type": "address"
        },
        {
          "name": "_plcrAddr",
          "type": "address"
        },
        {
          "name": "_minDeposit",
          "type": "uint256"
        },
        {
          "name": "_pMinDeposit",
          "type": "uint256"
        },
        {
          "name": "_applyStageLen",
          "type": "uint256"
        },
        {
          "name": "_pApplyStageLen",
          "type": "uint256"
        },
        {
          "name": "_commitStageLen",
          "type": "uint256"
        },
        {
          "name": "_pCommitStageLen",
          "type": "uint256"
        },
        {
          "name": "_revealStageLen",
          "type": "uint256"
        },
        {
          "name": "_pRevealStageLen",
          "type": "uint256"
        },
        {
          "name": "_dispensationPct",
          "type": "uint256"
        },
        {
          "name": "_pDispensationPct",
          "type": "uint256"
        },
        {
          "name": "_voteQuorum",
          "type": "uint256"
        },
        {
          "name": "_pVoteQuorum",
          "type": "uint256"
        }
      ],
      "payable": false,
      "stateMutability": "nonpayable",
      "type": "constructor"
    },
    {
      "anonymous": false,
      "inputs": [
        {
          "indexed": false,
          "name": "proposer",
          "type": "address"
        },
        {
          "indexed": false,
          "name": "name",
          "type": "string"
        },
        {
          "indexed": false,
          "name": "value",
          "type": "uint256"
        },
        {
          "indexed": false,
          "name": "propID",
          "type": "bytes32"
        }
      ],
      "name": "_ReparameterizationProposal",
      "type": "event"
    },
    {
      "anonymous": false,
      "inputs": [
        {
          "indexed": false,
          "name": "challenger",
          "type": "address"
        },
        {
          "indexed": false,
          "name": "propID",
          "type": "bytes32"
        },
        {
          "indexed": false,
          "name": "pollID",
          "type": "uint256"
        }
      ],
      "name": "_NewChallenge",
      "type": "event"
    }
  ],
  "bytecode": "0x606060405262093a8060055534156200001757600080fd5b6040516101c08062002b34833981016040528080519060200190919080519060200190919080519060200190919080519060200190919080519060200190919080519060200190919080519060200190919080519060200190919080519060200190919080519060200190919080519060200190919080519060200190919080519060200190919080519060200190919050508d600360006101000a81548173ffffffffffffffffffffffffffffffffffffffff021916908373ffffffffffffffffffffffffffffffffffffffff1602179055508c600460006101000a81548173ffffffffffffffffffffffffffffffffffffffff021916908373ffffffffffffffffffffffffffffffffffffffff160217905550620001816040805190810160405280600a81526020017f6d696e4465706f736974000000000000000000000000000000000000000000008152508d6200053c6401000000000262001d61176401000000009004565b620001d66040805190810160405280600b81526020017f704d696e4465706f7369740000000000000000000000000000000000000000008152508c6200053c6401000000000262001d61176401000000009004565b6200022b6040805190810160405280600d81526020017f6170706c7953746167654c656e000000000000000000000000000000000000008152508b6200053c6401000000000262001d61176401000000009004565b620002806040805190810160405280600e81526020017f704170706c7953746167654c656e0000000000000000000000000000000000008152508a6200053c6401000000000262001d61176401000000009004565b620002d56040805190810160405280600e81526020017f636f6d6d697453746167654c656e000000000000000000000000000000000000815250896200053c6401000000000262001d61176401000000009004565b6200032a6040805190810160405280600f81526020017f70436f6d6d697453746167654c656e0000000000000000000000000000000000815250886200053c6401000000000262001d61176401000000009004565b6200037f6040805190810160405280600e81526020017f72657665616c53746167654c656e000000000000000000000000000000000000815250876200053c6401000000000262001d61176401000000009004565b620003d46040805190810160405280600f81526020017f7052657665616c53746167654c656e0000000000000000000000000000000000815250866200053c6401000000000262001d61176401000000009004565b620004296040805190810160405280600f81526020017f64697370656e736174696f6e5063740000000000000000000000000000000000815250856200053c6401000000000262001d61176401000000009004565b6200047e6040805190810160405280601081526020017f7044697370656e736174696f6e50637400000000000000000000000000000000815250846200053c6401000000000262001d61176401000000009004565b620004d36040805190810160405280600a81526020017f766f746551756f72756d00000000000000000000000000000000000000000000815250836200053c6401000000000262001d61176401000000009004565b620005286040805190810160405280600b81526020017f70566f746551756f72756d000000000000000000000000000000000000000000815250826200053c6401000000000262001d61176401000000009004565b5050505050505050505050505050620005c3565b80600080846040518082805190602001908083835b60208310151562000578578051825260208201915060208101905060208303925062000551565b6001836020036101000a038019825116818451168082178552505050505050905001915050604051809103902060001916600019168152602001908152602001600020819055505050565b61256180620005d36000396000f3006060604052600436106100e5576000357c0100000000000000000000000000000000000000000000000000000000900463ffffffff16806229514f146100ea57806330490e911461011357806332ed5b121461013a578063353009901461024d578063504115521461028c578063693ec85e146102c357806377609a41146103345780638240ae4b1461037357806386bb8f37146103ae5780638f1d3776146103da578063a7aad3db146104ca578063bade1c5414610529578063c51131fb146105ab578063dc6ab527146105ea578063fc0c546a14610625578063fce1ccca1461067a575b600080fd5b34156100f557600080fd5b6100fd6106cf565b6040518082815260200191505060405180910390f35b341561011e57600080fd5b6101386004808035600019169060200190919050506106d5565b005b341561014557600080fd5b61015f600480803560001916906020019091905050610981565b60405180888152602001878152602001868152602001806020018573ffffffffffffffffffffffffffffffffffffffff1673ffffffffffffffffffffffffffffffffffffffff1681526020018481526020018381526020018281038252868181546001816001161561010002031660029004815260200191508054600181600116156101000203166002900480156102385780601f1061020d57610100808354040283529160200191610238565b820191906000526020600020905b81548152906001019060200180831161021b57829003601f168201915b50509850505050505050505060405180910390f35b341561025857600080fd5b6102726004808035600019169060200190919050506109e2565b604051808215151515815260200191505060405180910390f35b341561029757600080fd5b6102ad6004808035906020019091905050610a0c565b6040518082815260200191505060405180910390f35b34156102ce57600080fd5b61031e600480803590602001908201803590602001908080601f01602080910402602001604051908101604052809392919081815260200183838082843782019150505050505091905050610ab7565b6040518082815260200191505060405180910390f35b341561033f57600080fd5b610359600480803560001916906020019091905050610b3d565b604051808215151515815260200191505060405180910390f35b341561037e57600080fd5b610398600480803560001916906020019091905050610ca3565b6040518082815260200191505060405180910390f35b34156103b957600080fd5b6103d860048080359060200190919080359060200190919050506113fa565b005b34156103e557600080fd5b6103fb60048080359060200190919050506114dd565b604051808981526020018873ffffffffffffffffffffffffffffffffffffffff1673ffffffffffffffffffffffffffffffffffffffff1681526020018773ffffffffffffffffffffffffffffffffffffffff1673ffffffffffffffffffffffffffffffffffffffff1681526020018681526020018573ffffffffffffffffffffffffffffffffffffffff1673ffffffffffffffffffffffffffffffffffffffff168152602001841515151581526020018381526020018281526020019850505050505050505060405180910390f35b34156104d557600080fd5b610513600480803573ffffffffffffffffffffffffffffffffffffffff16906020019091908035906020019091908035906020019091905050611592565b6040518082815260200191505060405180910390f35b341561053457600080fd5b61058d600480803590602001908201803590602001908080601f0160208091040260200160405190810160405280939291908181526020018383808284378201915050505050509190803590602001909190505061167b565b60405180826000191660001916815260200191505060405180910390f35b34156105b657600080fd5b6105d0600480803560001916906020019091905050611b72565b604051808215151515815260200191505060405180910390f35b34156105f557600080fd5b61060f600480803560001916906020019091905050611cfd565b6040518082815260200191505060405180910390f35b341561063057600080fd5b610638611d15565b604051808273ffffffffffffffffffffffffffffffffffffffff1673ffffffffffffffffffffffffffffffffffffffff16815260200191505060405180910390f35b341561068557600080fd5b61068d611d3b565b604051808273ffffffffffffffffffffffffffffffffffffffff1673ffffffffffffffffffffffffffffffffffffffff16815260200191505060405180910390f35b60055481565b600060026000836000191660001916815260200190815260200160002090506106fd82611b72565b156107b1576107ac816003018054600181600116156101000203166002900480601f01602080910402602001604051908101604052809291908181526020018280546001816001161561010002031660029004801561079d5780601f106107725761010080835404028352916020019161079d565b820191906000526020600020905b81548152906001019060200180831161078057829003601f168201915b50505050508260060154611d61565b610900565b6107ba82610b3d565b156107cd576107c882611de6565b6108ff565b80600501544211156108f957600360009054906101000a900473ffffffffffffffffffffffffffffffffffffffff1673ffffffffffffffffffffffffffffffffffffffff1663a9059cbb8260040160009054906101000a900473ffffffffffffffffffffffffffffffffffffffff1683600201546000604051602001526040518363ffffffff167c0100000000000000000000000000000000000000000000000000000000028152600401808373ffffffffffffffffffffffffffffffffffffffff1673ffffffffffffffffffffffffffffffffffffffff16815260200182815260200192505050602060405180830381600087803b15156108ce57600080fd5b6102c65a03f115156108df57600080fd5b5050506040518051905015156108f457600080fd5b6108fe565b600080fd5b5b5b6002600083600019166000191681526020019081526020016000206000808201600090556001820160009055600282016000905560038201600061094491906123da565b6004820160006101000a81549073ffffffffffffffffffffffffffffffffffffffff02191690556005820160009055600682016000905550505050565b600260205280600052604060002060009150905080600001549080600101549080600201549080600301908060040160009054906101000a900473ffffffffffffffffffffffffffffffffffffffff16908060050154908060060154905087565b60008060026000846000191660001916815260200190815260200160002060050154119050919050565b60006001600083815260200190815260200160002073__Challenge_____________________________6396093a2790916000604051602001526040518263ffffffff167c01000000000000000000000000000000000000000000000000000000000281526004018082815260200191505060206040518083038186803b1515610a9557600080fd5b6102c65a03f41515610aa657600080fd5b505050604051805190509050919050565b6000806000836040518082805190602001908083835b602083101515610af25780518252602082019150602081019050602083039250610acd565b6001836020036101000a038019825116818451168082178552505050505050905001915050604051809103902060001916600019168152602001908152602001600020549050919050565b6000806001600060026000866000191660001916815260200190815260200160002060010154815260200190815260200160002090508073__Challenge_____________________________63dc0e069b90916000604051602001526040518263ffffffff167c01000000000000000000000000000000000000000000000000000000000281526004018082815260200191505060206040518083038186803b1515610be857600080fd5b6102c65a03f41515610bf957600080fd5b505050604051805190508015610c9b57508073__Challenge_____________________________630e2edf6e90916000604051602001526040518263ffffffff167c01000000000000000000000000000000000000000000000000000000000281526004018082815260200191505060206040518083038186803b1515610c7f57600080fd5b6102c65a03f41515610c9057600080fd5b505050604051805190505b915050919050565b6000610cad612422565b60008060026000866000191660001916815260200190815260200160002060e06040519081016040529081600082015481526020016001820154815260200160028201548152602001600382018054600181600116156101000203166002900480601f016020809104026020016040519081016040528092919081815260200182805460018160011615610100020316600290048015610d8e5780601f10610d6357610100808354040283529160200191610d8e565b820191906000526020600020905b815481529060010190602001808311610d7157829003601f168201915b505050505081526020016004820160009054906101000a900473ffffffffffffffffffffffffffffffffffffffff1673ffffffffffffffffffffffffffffffffffffffff1673ffffffffffffffffffffffffffffffffffffffff168152602001600582015481526020016006820154815250509250610e416040805190810160405280600b81526020017f704d696e4465706f736974000000000000000000000000000000000000000000815250610ab7565b9150610e4c856109e2565b8015610e5c575060008360200151145b1515610e6757600080fd5b600360009054906101000a900473ffffffffffffffffffffffffffffffffffffffff1673ffffffffffffffffffffffffffffffffffffffff166323b872dd3330856000604051602001526040518463ffffffff167c0100000000000000000000000000000000000000000000000000000000028152600401808473ffffffffffffffffffffffffffffffffffffffff1673ffffffffffffffffffffffffffffffffffffffff1681526020018373ffffffffffffffffffffffffffffffffffffffff1673ffffffffffffffffffffffffffffffffffffffff1681526020018281526020019350505050602060405180830381600087803b1515610f6857600080fd5b6102c65a03f11515610f7957600080fd5b505050604051805190501515610f8e57600080fd5b600460009054906101000a900473ffffffffffffffffffffffffffffffffffffffff1673ffffffffffffffffffffffffffffffffffffffff166332ed3d6061100a6040805190810160405280600b81526020017f70566f746551756f72756d000000000000000000000000000000000000000000815250610ab7565b6110486040805190810160405280600f81526020017f70436f6d6d697453746167654c656e0000000000000000000000000000000000815250610ab7565b6110866040805190810160405280600f81526020017f7052657665616c53746167654c656e0000000000000000000000000000000000815250610ab7565b6000604051602001526040518463ffffffff167c0100000000000000000000000000000000000000000000000000000000028152600401808481526020018381526020018281526020019350505050602060405180830381600087803b15156110ee57600080fd5b6102c65a03f115156110ff57600080fd5b505050604051805190509050610100604051908101604052806064846111596040805190810160405280601081526020017f7044697370656e736174696f6e50637400000000000000000000000000000000815250610ab7565b6064030281151561116657fe5b048152602001600460009054906101000a900473ffffffffffffffffffffffffffffffffffffffff1673ffffffffffffffffffffffffffffffffffffffff168152602001600360009054906101000a900473ffffffffffffffffffffffffffffffffffffffff1673ffffffffffffffffffffffffffffffffffffffff1681526020018281526020013373ffffffffffffffffffffffffffffffffffffffff1681526020016000151581526020018381526020016000815250600160008381526020019081526020016000206000820151816000015560208201518160010160006101000a81548173ffffffffffffffffffffffffffffffffffffffff021916908373ffffffffffffffffffffffffffffffffffffffff16021790555060408201518160020160006101000a81548173ffffffffffffffffffffffffffffffffffffffff021916908373ffffffffffffffffffffffffffffffffffffffff1602179055506060820151816003015560808201518160040160006101000a81548173ffffffffffffffffffffffffffffffffffffffff021916908373ffffffffffffffffffffffffffffffffffffffff16021790555060a08201518160040160146101000a81548160ff02191690831515021790555060c0820151816005015560e0820151816006015590505080600260008760001916600019168152602001908152602001600020600101819055507f514f310f0599dc7152cbceb4f1b80297d1a615826350a8dcdc54168447e84050338683604051808473ffffffffffffffffffffffffffffffffffffffff1673ffffffffffffffffffffffffffffffffffffffff1681526020018360001916600019168152602001828152602001935050505060405180910390a1809350505050919050565b6001600083815260200190815260200160002073__Challenge_____________________________6382fb3e55909133846000604051602001526040518463ffffffff167c0100000000000000000000000000000000000000000000000000000000028152600401808481526020018373ffffffffffffffffffffffffffffffffffffffff1673ffffffffffffffffffffffffffffffffffffffff168152602001828152602001935050505060206040518083038186803b15156114bd57600080fd5b6102c65a03f415156114ce57600080fd5b50505060405180519050505050565b60016020528060005260406000206000915090508060000154908060010160009054906101000a900473ffffffffffffffffffffffffffffffffffffffff16908060020160009054906101000a900473ffffffffffffffffffffffffffffffffffffffff16908060030154908060040160009054906101000a900473ffffffffffffffffffffffffffffffffffffffff16908060040160149054906101000a900460ff16908060050154908060060154905088565b60006001600084815260200190815260200160002073__Challenge_____________________________63c0d4efb8909186856000604051602001526040518463ffffffff167c0100000000000000000000000000000000000000000000000000000000028152600401808481526020018373ffffffffffffffffffffffffffffffffffffffff1673ffffffffffffffffffffffffffffffffffffffff168152602001828152602001935050505060206040518083038186803b151561165757600080fd5b6102c65a03f4151561166857600080fd5b5050506040518051905090509392505050565b60008060006116be6040805190810160405280600b81526020017f704d696e4465706f736974000000000000000000000000000000000000000000815250610ab7565b915084846040518083805190602001908083835b6020831015156116f757805182526020820191506020810190506020830392506116d2565b6001836020036101000a0380198251168184511680821785525050505050509050018281526020019250505060405180910390209050611736816109e2565b15151561174257600080fd5b8361174c86610ab7565b1415151561175957600080fd5b600360009054906101000a900473ffffffffffffffffffffffffffffffffffffffff1673ffffffffffffffffffffffffffffffffffffffff166323b872dd3330856000604051602001526040518463ffffffff167c0100000000000000000000000000000000000000000000000000000000028152600401808473ffffffffffffffffffffffffffffffffffffffff1673ffffffffffffffffffffffffffffffffffffffff1681526020018373ffffffffffffffffffffffffffffffffffffffff1673ffffffffffffffffffffffffffffffffffffffff1681526020018281526020019350505050602060405180830381600087803b151561185a57600080fd5b6102c65a03f1151561186b57600080fd5b50505060405180519050151561188057600080fd5b60e0604051908101604052806118ca6040805190810160405280600e81526020017f704170706c7953746167654c656e000000000000000000000000000000000000815250610ab7565b42018152602001600081526020018381526020018681526020013373ffffffffffffffffffffffffffffffffffffffff1681526020016005546119416040805190810160405280600f81526020017f7052657665616c53746167654c656e0000000000000000000000000000000000815250610ab7565b61197f6040805190810160405280600f81526020017f70436f6d6d697453746167654c656e0000000000000000000000000000000000815250610ab7565b6119bd6040805190810160405280600e81526020017f704170706c7953746167654c656e000000000000000000000000000000000000815250610ab7565b42010101018152602001858152506002600083600019166000191681526020019081526020016000206000820151816000015560208201518160010155604082015181600201556060820151816003019080519060200190611a2092919061247c565b5060808201518160040160006101000a81548173ffffffffffffffffffffffffffffffffffffffff021916908373ffffffffffffffffffffffffffffffffffffffff16021790555060a0820151816005015560c082015181600601559050507f7ad5a045a626580a5b80e13a14bcc0745de6a803fff9656c1792124bb9ee675033868684604051808573ffffffffffffffffffffffffffffffffffffffff1673ffffffffffffffffffffffffffffffffffffffff168152602001806020018481526020018360001916600019168152602001828103825285818151815260200191508051906020019080838360005b83811015611b2a578082015181840152602081019050611b0f565b50505050905090810190601f168015611b575780820380516001836020036101000a031916815260200191505b509550505050505060405180910390a1809250505092915050565b6000611b7c612422565b60026000846000191660001916815260200190815260200160002060e06040519081016040529081600082015481526020016001820154815260200160028201548152602001600382018054600181600116156101000203166002900480601f016020809104026020016040519081016040528092919081815260200182805460018160011615610100020316600290048015611c5a5780601f10611c2f57610100808354040283529160200191611c5a565b820191906000526020600020905b815481529060010190602001808311611c3d57829003601f168201915b505050505081526020016004820160009054906101000a900473ffffffffffffffffffffffffffffffffffffffff1673ffffffffffffffffffffffffffffffffffffffff1673ffffffffffffffffffffffffffffffffffffffff168152602001600582015481526020016006820154815250509050806000015142118015611ce557508060a0015142105b8015611cf5575060008160200151145b915050919050565b60006020528060005260406000206000915090505481565b600360009054906101000a900473ffffffffffffffffffffffffffffffffffffffff1681565b600460009054906101000a900473ffffffffffffffffffffffffffffffffffffffff1681565b80600080846040518082805190602001908083835b602083101515611d9b5780518252602082019150602081019050602083039250611d76565b6001836020036101000a038019825116818451168082178552505050505050905001915050604051809103902060001916600019168152602001908152602001600020819055505050565b611dee612422565b60008060026000856000191660001916815260200190815260200160002060e06040519081016040529081600082015481526020016001820154815260200160028201548152602001600382018054600181600116156101000203166002900480601f016020809104026020016040519081016040528092919081815260200182805460018160011615610100020316600290048015611ecf5780601f10611ea457610100808354040283529160200191611ecf565b820191906000526020600020905b815481529060010190602001808311611eb257829003601f168201915b505050505081526020016004820160009054906101000a900473ffffffffffffffffffffffffffffffffffffffff1673ffffffffffffffffffffffffffffffffffffffff1673ffffffffffffffffffffffffffffffffffffffff168152602001600582015481526020016006820154815250509250600160008460200151815260200190815260200160002091508173__Challenge_____________________________6396093a2790916000604051602001526040518263ffffffff167c01000000000000000000000000000000000000000000000000000000000281526004018082815260200191505060206040518083038186803b1515611fd257600080fd5b6102c65a03f41515611fe357600080fd5b505050604051805190509050600460009054906101000a900473ffffffffffffffffffffffffffffffffffffffff1673ffffffffffffffffffffffffffffffffffffffff16634940318384602001516000604051602001526040518263ffffffff167c010000000000000000000000000000000000000000000000000000000002815260040180828152602001915050602060405180830381600087803b151561208c57600080fd5b6102c65a03f1151561209d57600080fd5b50505060405180519050156121c757428360a0015111156120cb576120ca83606001518460c00151611d61565b5b600360009054906101000a900473ffffffffffffffffffffffffffffffffffffffff1673ffffffffffffffffffffffffffffffffffffffff1663a9059cbb8460800151836000604051602001526040518363ffffffff167c0100000000000000000000000000000000000000000000000000000000028152600401808373ffffffffffffffffffffffffffffffffffffffff1673ffffffffffffffffffffffffffffffffffffffff16815260200182815260200192505050602060405180830381600087803b151561219c57600080fd5b6102c65a03f115156121ad57600080fd5b5050506040518051905015156121c257600080fd5b6122f5565b600360009054906101000a900473ffffffffffffffffffffffffffffffffffffffff1673ffffffffffffffffffffffffffffffffffffffff1663a9059cbb600160008660200151815260200190815260200160002060040160009054906101000a900473ffffffffffffffffffffffffffffffffffffffff16836000604051602001526040518363ffffffff167c0100000000000000000000000000000000000000000000000000000000028152600401808373ffffffffffffffffffffffffffffffffffffffff1673ffffffffffffffffffffffffffffffffffffffff16815260200182815260200192505050602060405180830381600087803b15156122ce57600080fd5b6102c65a03f115156122df57600080fd5b5050506040518051905015156122f457600080fd5b5b8160010160009054906101000a900473ffffffffffffffffffffffffffffffffffffffff1673ffffffffffffffffffffffffffffffffffffffff1663053e71a683600301546000604051602001526040518263ffffffff167c010000000000000000000000000000000000000000000000000000000002815260040180828152602001915050602060405180830381600087803b151561239457600080fd5b6102c65a03f115156123a557600080fd5b50505060405180519050826006018190555060018260040160146101000a81548160ff02191690831515021790555050505050565b50805460018160011615610100020316600290046000825580601f10612400575061241f565b601f01602090049060005260206000209081019061241e91906124fc565b5b50565b60e06040519081016040528060008152602001600081526020016000815260200161244b612521565b8152602001600073ffffffffffffffffffffffffffffffffffffffff16815260200160008152602001600081525090565b828054600181600116156101000203166002900490600052602060002090601f016020900481019282601f106124bd57805160ff19168380011785556124eb565b828001600101855582156124eb579182015b828111156124ea5782518255916020019190600101906124cf565b5b5090506124f891906124fc565b5090565b61251e91905b8082111561251a576000816000905550600101612502565b5090565b90565b6020604051908101604052806000815250905600a165627a7a7230582026753f25b09ff4ffbdd1260aa34a87e641353c9538b68b4824c132a9f56d9b8e0029",
  "source": "pragma solidity^0.4.11;\n\nimport \"./PLCRVoting.sol\";\nimport \"./optional/StandardToken.sol\";\nimport \"./Challenge.sol\";\n\ncontract Parameterizer {\n\n  // ------\n  // EVENTS\n  // ------\n\n  event _ReparameterizationProposal(address proposer, string name, uint value, bytes32 propID);\n  event _NewChallenge(address challenger, bytes32 propID, uint pollID);\n\n\n  // ------\n  // DATA STRUCTURES\n  // ------\n\n  using Challenge for Challenge.Data;\n\n  struct ParamProposal {\n    uint appExpiry;\n    uint challengeID;\n    uint deposit;\n    string name;\n    address owner;\n    uint processBy;\n    uint value;\n  }\n\n  // ------\n  // STATE\n  // ------\n\n  mapping(bytes32 => uint) public params;\n\n  // Maps challengeIDs to associated challenge data\n  mapping(uint => Challenge.Data) public challenges;\n\n  // maps pollIDs to intended data change if poll passes\n  mapping(bytes32 => ParamProposal) public proposals; \n\n  // Global Variables\n  StandardToken public token;\n  PLCRVoting public voting;\n  uint public PROCESSBY = 604800; // 7 days\n\n  // ------------\n  // CONSTRUCTOR\n  // ------------\n\n  /**\n  @dev constructor\n  @param _tokenAddr        address of the token which parameterizes this system\n  @param _plcrAddr         address of a PLCR voting contract for the provided token\n  @param _minDeposit       minimum deposit for listing to be whitelisted  \n  @param _pMinDeposit      minimum deposit to propose a reparameterization\n  @param _applyStageLen    period over which applicants wait to be whitelisted\n  @param _pApplyStageLen   period over which reparmeterization proposals wait to be processed \n  @param _dispensationPct  percentage of losing party's deposit distributed to winning party\n  @param _pDispensationPct percentage of losing party's deposit distributed to winning party in parameterizer\n  @param _commitStageLen  length of commit period for voting\n  @param _pCommitStageLen length of commit period for voting in parameterizer\n  @param _revealStageLen  length of reveal period for voting\n  @param _pRevealStageLen length of reveal period for voting in parameterizer\n  @param _voteQuorum       type of majority out of 100 necessary for vote success\n  @param _pVoteQuorum      type of majority out of 100 necessary for vote success in parameterizer\n  */\n  function Parameterizer( \n    address _tokenAddr,\n    address _plcrAddr,\n    uint _minDeposit,\n    uint _pMinDeposit,\n    uint _applyStageLen,\n    uint _pApplyStageLen,\n    uint _commitStageLen,\n    uint _pCommitStageLen,\n    uint _revealStageLen,\n    uint _pRevealStageLen,\n    uint _dispensationPct,\n    uint _pDispensationPct,\n    uint _voteQuorum,\n    uint _pVoteQuorum\n    ) {\n      token = StandardToken(_tokenAddr);\n      voting = PLCRVoting(_plcrAddr);\n\n      set(\"minDeposit\", _minDeposit);\n      set(\"pMinDeposit\", _pMinDeposit);\n      set(\"applyStageLen\", _applyStageLen);\n      set(\"pApplyStageLen\", _pApplyStageLen);\n      set(\"commitStageLen\", _commitStageLen);\n      set(\"pCommitStageLen\", _pCommitStageLen);\n      set(\"revealStageLen\", _revealStageLen);\n      set(\"pRevealStageLen\", _pRevealStageLen);\n      set(\"dispensationPct\", _dispensationPct);\n      set(\"pDispensationPct\", _pDispensationPct);\n      set(\"voteQuorum\", _voteQuorum);\n      set(\"pVoteQuorum\", _pVoteQuorum);\n  }\n\n  // -----------------------\n  // TOKEN HOLDER INTERFACE\n  // -----------------------\n\n  /**\n  @notice propose a reparamaterization of the key _name's value to _value.\n  @param _name the name of the proposed param to be set\n  @param _value the proposed value to set the param to be set\n  */\n  function proposeReparameterization(string _name, uint _value) public returns (bytes32) {\n    uint deposit = get(\"pMinDeposit\");\n    bytes32 propID = keccak256(_name, _value);\n\n    require(!propExists(propID)); // Forbid duplicate proposals\n    require(get(_name) != _value); // Forbid NOOP reparameterizations\n    require(token.transferFrom(msg.sender, this, deposit)); // escrow tokens (deposit amt)\n\n    // attach name and value to pollID\t\t\n    proposals[propID] = ParamProposal({\n      appExpiry: now + get(\"pApplyStageLen\"),\n      challengeID: 0,\n      deposit: deposit,\n      name: _name,\n      owner: msg.sender,\n      processBy: now + get(\"pApplyStageLen\") + get(\"pCommitStageLen\") +\n        get(\"pRevealStageLen\") + PROCESSBY,\n      value: _value\n    });\n\n    _ReparameterizationProposal(msg.sender, _name, _value, propID);\n    return propID;\n  }\n\n  /**\n  @notice challenge the provided proposal ID, and put tokens at stake to do so.\n  @param _propID the proposal ID to challenge\n  */\n  function challengeReparameterization(bytes32 _propID) public returns (uint challengeID) {\n    ParamProposal memory prop = proposals[_propID];\n    uint deposit = get(\"pMinDeposit\");\n\n    require(propExists(_propID) && prop.challengeID == 0); \n\n    //take tokens from challenger\n    require(token.transferFrom(msg.sender, this, deposit));\n    //start poll\n    uint pollID = voting.startPoll(\n      get(\"pVoteQuorum\"),\n      get(\"pCommitStageLen\"),\n      get(\"pRevealStageLen\")\n    );\n\n    challenges[pollID] = Challenge.Data({\n        challenger: msg.sender,\n        voting: voting,\n        token: token,\n        challengeID: pollID,\n        rewardPool: ((100 - get(\"pDispensationPct\")) * deposit) / 100,\n        stake: deposit,\n        resolved: false,\n        winningTokens: 0\n    });\n\n    proposals[_propID].challengeID = pollID;       // update listing to store most recent challenge\n\n    _NewChallenge(msg.sender, _propID, pollID);\n    return pollID;\n  }\n\n  /**\n  @notice for the provided proposal ID, set it, resolve its challenge, or delete it depending on whether it can be set, has a challenge which can be resolved, or if its \"process by\" date has passed\n  @param _propID the proposal ID to make a determination and state transition for\n  */\n  function processProposal(bytes32 _propID) public {\n    ParamProposal storage prop = proposals[_propID];\n\n    if (canBeSet(_propID)) {\n      set(prop.name, prop.value);\n    } else if (challengeCanBeResolved(_propID)) {\n      resolveChallenge(_propID);\n    } else if (now > prop.processBy) {\n      require(token.transfer(prop.owner, prop.deposit));\n    } else {\n      revert();\n    }\n\n    delete proposals[_propID];\n  }\n\n  /**\n  @notice claim the tokens owed for the msg.sender in the provided challenge\n  @param _challengeID the challenge ID to claim tokens for\n  @param _salt the salt used to vote in the challenge being withdrawn for\n  */\n  function claimReward(uint _challengeID, uint _salt) public {\n    challenges[_challengeID].claimReward(msg.sender, _salt);\n  }\n\n  // --------\n  // GETTERS\n  // --------\n\n  /**\n  @dev                Calculates the provided voter's token reward for the given poll.\n  @param _voter       The address of the voter whose reward balance is to be returned\n  @param _challengeID The ID of the challenge the voter's reward is being calculated for\n  @param _salt        The salt of the voter's commit hash in the given poll\n  @return             The uint indicating the voter's reward\n  */\n  function voterReward(address _voter, uint _challengeID, uint _salt)\n  public constant returns (uint) {\n      return challenges[_challengeID].voterReward(_voter, _salt);\n  }\n\n  /**\n  @notice Determines whether a proposal passed its application stage without a challenge\n  @param _propID The proposal ID for which to determine whether its application stage passed without a challenge\n  */\n  function canBeSet(bytes32 _propID) constant public returns (bool) {\n    ParamProposal memory prop = proposals[_propID];\n\n    return (now > prop.appExpiry && now < prop.processBy && prop.challengeID == 0);\n  }\n\n  /**\n  @notice Determines whether a proposal exists for the provided proposal ID\n  @param _propID The proposal ID whose existance is to be determined\n  */\n  function propExists(bytes32 _propID) constant public returns (bool) {\n    return proposals[_propID].processBy > 0;\n  }\n\n  /**\n  @notice Determines whether the provided proposal ID has a challenge which can be resolved\n  @param _propID The proposal ID whose challenge to inspect\n  */\n  function challengeCanBeResolved(bytes32 _propID) constant public returns (bool) {\n    Challenge.Data storage challenge = challenges[proposals[_propID].challengeID];\n    return challenge.isInitialized() && challenge.canBeResolved();\n  }\n\n  /**\n  @notice Determines the number of tokens to awarded to the winning party in a challenge\n  @param _challengeID The challengeID to determine a reward for\n  */\n  function challengeWinnerReward(uint _challengeID) public constant returns (uint) {\n    return challenges[_challengeID].challengeWinnerReward();\n  }\n\n  /**\n  @notice gets the parameter keyed by the provided name value from the params mapping\n  @param _name the key whose value is to be determined\n  */\n  function get(string _name) public constant returns (uint value) {\n    return params[keccak256(_name)];\n  }\n\n  // ----------------\n  // PRIVATE FUNCTIONS\n  // ----------------\n\n  /**\n  @dev resolves a challenge for the provided _propID. It must be checked in advance whether the _propID has a challenge on it\n  @param _propID the proposal ID whose challenge is to be resolved.\n  */\n  function resolveChallenge(bytes32 _propID) private {\n    ParamProposal memory prop = proposals[_propID];\n    Challenge.Data storage challenge = challenges[prop.challengeID];\n\n    // winner gets back their full staked deposit, and dispensationPct*loser's stake\n    uint reward = challenge.challengeWinnerReward();\n\n    if (voting.isPassed(prop.challengeID)) { // The challenge failed\n      if(prop.processBy > now) {\n        set(prop.name, prop.value);\n      }\n      require(token.transfer(prop.owner, reward));\n    } \n    else { // The challenge succeeded\n      require(token.transfer(challenges[prop.challengeID].challenger, reward));\n    }\n\n    challenge.winningTokens =\n      challenge.voting.getTotalNumberOfTokensForWinningOption(challenge.challengeID);\n    challenge.resolved = true;\n  }\n\n  /**\n  @dev sets the param keted by the provided name to the provided value\n  @param _name the name of the param to be set\n  @param _value the value to set the param to be set\n  */\n  function set(string _name, uint _value) private {\n    params[keccak256(_name)] = _value;\n  }\n}\n\n",
  "sourcePath": "/home/isaac/Desktop/Projects/tcr/contracts/Parameterizer.sol",
  "compiler": {
    "name": "solc",
    "version": "0.4.18+commit.9cf6e910.Emscripten.clang"
  },
  "schemaVersion": "1.0.1",
  "updatedAt": "2017-12-19T21:00:11.770Z"
}