{
  "contractName": "Registry",
  "abi": [
    {
      "constant": true,
      "inputs": [
        {
          "name": "_domain",
          "type": "string"
        }
      ],
      "name": "appWasMade",
      "outputs": [
        {
          "name": "exists",
          "type": "bool"
        }
      ],
      "payable": false,
      "stateMutability": "view",
      "type": "function"
    },
    {
      "constant": false,
      "inputs": [
        {
          "name": "_domain",
          "type": "string"
        }
      ],
      "name": "updateStatus",
      "outputs": [],
      "payable": false,
      "stateMutability": "nonpayable",
      "type": "function"
    },
    {
      "constant": false,
      "inputs": [
        {
          "name": "_domain",
          "type": "string"
        },
        {
          "name": "_amount",
          "type": "uint256"
        }
      ],
      "name": "withdraw",
      "outputs": [],
      "payable": false,
      "stateMutability": "nonpayable",
      "type": "function"
    },
    {
      "constant": true,
      "inputs": [
        {
          "name": "_challengeID",
          "type": "uint256"
        }
      ],
      "name": "challengeWinnerReward",
      "outputs": [
        {
          "name": "",
          "type": "uint256"
        }
      ],
      "payable": false,
      "stateMutability": "view",
      "type": "function"
    },
    {
      "constant": false,
      "inputs": [
        {
          "name": "_domain",
          "type": "string"
        }
      ],
      "name": "challenge",
      "outputs": [
        {
          "name": "challengeID",
          "type": "uint256"
        }
      ],
      "payable": false,
      "stateMutability": "nonpayable",
      "type": "function"
    },
    {
      "constant": false,
      "inputs": [
        {
          "name": "_challengeID",
          "type": "uint256"
        },
        {
          "name": "_salt",
          "type": "uint256"
        }
      ],
      "name": "claimReward",
      "outputs": [],
      "payable": false,
      "stateMutability": "nonpayable",
      "type": "function"
    },
    {
      "constant": false,
      "inputs": [
        {
          "name": "_domain",
          "type": "string"
        },
        {
          "name": "_amount",
          "type": "uint256"
        }
      ],
      "name": "deposit",
      "outputs": [],
      "payable": false,
      "stateMutability": "nonpayable",
      "type": "function"
    },
    {
      "constant": true,
      "inputs": [
        {
          "name": "",
          "type": "uint256"
        }
      ],
      "name": "challenges",
      "outputs": [
        {
          "name": "rewardPool",
          "type": "uint256"
        },
        {
          "name": "voting",
          "type": "address"
        },
        {
          "name": "token",
          "type": "address"
        },
        {
          "name": "challengeID",
          "type": "uint256"
        },
        {
          "name": "challenger",
          "type": "address"
        },
        {
          "name": "resolved",
          "type": "bool"
        },
        {
          "name": "stake",
          "type": "uint256"
        },
        {
          "name": "winningTokens",
          "type": "uint256"
        }
      ],
      "payable": false,
      "stateMutability": "view",
      "type": "function"
    },
    {
      "constant": true,
      "inputs": [
        {
          "name": "_challengeID",
          "type": "uint256"
        },
        {
          "name": "_voter",
          "type": "address"
        }
      ],
      "name": "tokenClaims",
      "outputs": [
        {
          "name": "",
          "type": "bool"
        }
      ],
      "payable": false,
      "stateMutability": "view",
      "type": "function"
    },
    {
      "constant": true,
      "inputs": [
        {
          "name": "_voter",
          "type": "address"
        },
        {
          "name": "_challengeID",
          "type": "uint256"
        },
        {
          "name": "_salt",
          "type": "uint256"
        }
      ],
      "name": "voterReward",
      "outputs": [
        {
          "name": "",
          "type": "uint256"
        }
      ],
      "payable": false,
      "stateMutability": "view",
      "type": "function"
    },
    {
      "constant": true,
      "inputs": [
        {
          "name": "_domain",
          "type": "string"
        }
      ],
      "name": "isWhitelisted",
      "outputs": [
        {
          "name": "whitelisted",
          "type": "bool"
        }
      ],
      "payable": false,
      "stateMutability": "view",
      "type": "function"
    },
    {
      "constant": false,
      "inputs": [
        {
          "name": "_domain",
          "type": "string"
        },
        {
          "name": "_amount",
          "type": "uint256"
        }
      ],
      "name": "apply",
      "outputs": [],
      "payable": false,
      "stateMutability": "nonpayable",
      "type": "function"
    },
    {
      "constant": true,
      "inputs": [
        {
          "name": "",
          "type": "bytes32"
        }
      ],
      "name": "listings",
      "outputs": [
        {
          "name": "applicationExpiry",
          "type": "uint256"
        },
        {
          "name": "whitelisted",
          "type": "bool"
        },
        {
          "name": "owner",
          "type": "address"
        },
        {
          "name": "unstakedDeposit",
          "type": "uint256"
        },
        {
          "name": "challengeID",
          "type": "uint256"
        }
      ],
      "payable": false,
      "stateMutability": "view",
      "type": "function"
    },
    {
      "constant": true,
      "inputs": [
        {
          "name": "_domain",
          "type": "string"
        }
      ],
      "name": "canBeWhitelisted",
      "outputs": [
        {
          "name": "",
          "type": "bool"
        }
      ],
      "payable": false,
      "stateMutability": "view",
      "type": "function"
    },
    {
      "constant": true,
      "inputs": [
        {
          "name": "_domain",
          "type": "string"
        }
      ],
      "name": "challengeCanBeResolved",
      "outputs": [
        {
          "name": "",
          "type": "bool"
        }
      ],
      "payable": false,
      "stateMutability": "view",
      "type": "function"
    },
    {
      "constant": true,
      "inputs": [
        {
          "name": "_termDate",
          "type": "uint256"
        }
      ],
      "name": "isExpired",
      "outputs": [
        {
          "name": "expired",
          "type": "bool"
        }
      ],
      "payable": false,
      "stateMutability": "view",
      "type": "function"
    },
    {
      "constant": true,
      "inputs": [
        {
          "name": "_domain",
          "type": "string"
        }
      ],
      "name": "challengeExists",
      "outputs": [
        {
          "name": "",
          "type": "bool"
        }
      ],
      "payable": false,
      "stateMutability": "view",
      "type": "function"
    },
    {
      "constant": true,
      "inputs": [],
      "name": "parameterizer",
      "outputs": [
        {
          "name": "",
          "type": "address"
        }
      ],
      "payable": false,
      "stateMutability": "view",
      "type": "function"
    },
    {
      "constant": false,
      "inputs": [
        {
          "name": "_domain",
          "type": "string"
        }
      ],
      "name": "exit",
      "outputs": [],
      "payable": false,
      "stateMutability": "nonpayable",
      "type": "function"
    },
    {
      "constant": true,
      "inputs": [],
      "name": "token",
      "outputs": [
        {
          "name": "",
          "type": "address"
        }
      ],
      "payable": false,
      "stateMutability": "view",
      "type": "function"
    },
    {
      "constant": true,
      "inputs": [],
      "name": "voting",
      "outputs": [
        {
          "name": "",
          "type": "address"
        }
      ],
      "payable": false,
      "stateMutability": "view",
      "type": "function"
    },
    {
      "inputs": [
        {
          "name": "_tokenAddr",
          "type": "address"
        },
        {
          "name": "_plcrAddr",
          "type": "address"
        },
        {
          "name": "_paramsAddr",
          "type": "address"
        }
      ],
      "payable": false,
      "stateMutability": "nonpayable",
      "type": "constructor"
    },
    {
      "anonymous": false,
      "inputs": [
        {
          "indexed": false,
          "name": "domain",
          "type": "string"
        },
        {
          "indexed": false,
          "name": "deposit",
          "type": "uint256"
        }
      ],
      "name": "_Application",
      "type": "event"
    },
    {
      "anonymous": false,
      "inputs": [
        {
          "indexed": false,
          "name": "domain",
          "type": "string"
        },
        {
          "indexed": false,
          "name": "deposit",
          "type": "uint256"
        },
        {
          "indexed": false,
          "name": "pollID",
          "type": "uint256"
        }
      ],
      "name": "_Challenge",
      "type": "event"
    },
    {
      "anonymous": false,
      "inputs": [
        {
          "indexed": false,
          "name": "domain",
          "type": "string"
        },
        {
          "indexed": false,
          "name": "added",
          "type": "uint256"
        },
        {
          "indexed": false,
          "name": "newTotal",
          "type": "uint256"
        }
      ],
      "name": "_Deposit",
      "type": "event"
    },
    {
      "anonymous": false,
      "inputs": [
        {
          "indexed": false,
          "name": "domain",
          "type": "string"
        },
        {
          "indexed": false,
          "name": "withdrew",
          "type": "uint256"
        },
        {
          "indexed": false,
          "name": "newTotal",
          "type": "uint256"
        }
      ],
      "name": "_Withdrawal",
      "type": "event"
    },
    {
      "anonymous": false,
      "inputs": [
        {
          "indexed": false,
          "name": "domain",
          "type": "string"
        }
      ],
      "name": "_NewDomainWhitelisted",
      "type": "event"
    },
    {
      "anonymous": false,
      "inputs": [
        {
          "indexed": false,
          "name": "domain",
          "type": "string"
        }
      ],
      "name": "_ApplicationRemoved",
      "type": "event"
    },
    {
      "anonymous": false,
      "inputs": [
        {
          "indexed": false,
          "name": "domain",
          "type": "string"
        }
      ],
      "name": "_ListingRemoved",
      "type": "event"
    },
    {
      "anonymous": false,
      "inputs": [
        {
          "indexed": false,
          "name": "challengeID",
          "type": "uint256"
        }
      ],
      "name": "_ChallengeFailed",
      "type": "event"
    },
    {
      "anonymous": false,
      "inputs": [
        {
          "indexed": false,
          "name": "challengeID",
          "type": "uint256"
        }
      ],
      "name": "_ChallengeSucceeded",
      "type": "event"
    },
    {
      "anonymous": false,
      "inputs": [
        {
          "indexed": false,
          "name": "voter",
          "type": "address"
        },
        {
          "indexed": false,
          "name": "challengeID",
          "type": "uint256"
        },
        {
          "indexed": false,
          "name": "reward",
          "type": "uint256"
        }
      ],
      "name": "_RewardClaimed",
      "type": "event"
    }
  ],
  "bytecode": "0x6060604052341561000f57600080fd5b6040516060806137d38339810160405280805190602001909190805190602001909190805190602001909190505082600260006101000a81548173ffffffffffffffffffffffffffffffffffffffff021916908373ffffffffffffffffffffffffffffffffffffffff16021790555081600360006101000a81548173ffffffffffffffffffffffffffffffffffffffff021916908373ffffffffffffffffffffffffffffffffffffffff16021790555080600460006101000a81548173ffffffffffffffffffffffffffffffffffffffff021916908373ffffffffffffffffffffffffffffffffffffffff1602179055505050506136c1806101126000396000f30060606040526004361061011d576000357c0100000000000000000000000000000000000000000000000000000000900463ffffffff1680630f53ba51146101225780632c2159981461019757806330b39a62146101f4578063504115521461022b57806358f5382e1461026257806386bb8f37146102a45780638e27d719146102d05780638f1d377614610307578063a5ba3b1e146103f7578063a7aad3db14610451578063b48eea44146104b0578063bfa535c714610525578063c18b8db41461055c578063c53c614d146105e3578063d134f4aa14610658578063d9548e53146106cd578063e1a566f414610708578063e1e3f9151461077d578063e7fb5388146107d2578063fc0c546a14610800578063fce1ccca14610855575b600080fd5b341561012d57600080fd5b61017d600480803590602001908201803590602001908080601f016020809104026020016040519081016040528093929190818152602001838380828437820191505050505050919050506108aa565b604051808215151515815260200191505060405180910390f35b34156101a257600080fd5b6101f2600480803590602001908201803590602001908080601f01602080910402602001604051908101604052809392919081815260200183838082843782019150505050505091905050610936565b005b34156101ff57600080fd5b61022960048080359060200190820180359060200191909192908035906020019091905050610a13565b005b341561023657600080fd5b61024c6004808035906020019091905050610d28565b6040518082815260200191505060405180910390f35b341561026d57600080fd5b61028e60048080359060200190820180359060200191909192905050610dd2565b6040518082815260200191505060405180910390f35b34156102af57600080fd5b6102ce600480803590602001909190803590602001909190505061194c565b005b34156102db57600080fd5b61030560048080359060200190820180359060200191909192908035906020019091905050611aa5565b005b341561031257600080fd5b6103286004808035906020019091905050611ce2565b604051808981526020018873ffffffffffffffffffffffffffffffffffffffff1673ffffffffffffffffffffffffffffffffffffffff1681526020018773ffffffffffffffffffffffffffffffffffffffff1673ffffffffffffffffffffffffffffffffffffffff1681526020018681526020018573ffffffffffffffffffffffffffffffffffffffff1673ffffffffffffffffffffffffffffffffffffffff168152602001841515151581526020018381526020018281526020019850505050505050505060405180910390f35b341561040257600080fd5b610437600480803590602001909190803573ffffffffffffffffffffffffffffffffffffffff16906020019091905050611d97565b604051808215151515815260200191505060405180910390f35b341561045c57600080fd5b61049a600480803573ffffffffffffffffffffffffffffffffffffffff16906020019091908035906020019091908035906020019091905050611e01565b6040518082815260200191505060405180910390f35b34156104bb57600080fd5b61050b600480803590602001908201803590602001908080601f01602080910402602001604051908101604052809392919081815260200183838082843782019150505050505091905050611ee9565b604051808215151515815260200191505060405180910390f35b341561053057600080fd5b61055a60048080359060200190820180359060200191909192908035906020019091905050611f80565b005b341561056757600080fd5b610581600480803560001916906020019091905050612421565b60405180868152602001851515151581526020018473ffffffffffffffffffffffffffffffffffffffff1673ffffffffffffffffffffffffffffffffffffffff1681526020018381526020018281526020019550505050505060405180910390f35b34156105ee57600080fd5b61063e600480803590602001908201803590602001908080601f01602080910402602001604051908101604052809392919081815260200183838082843782019150505050505091905050612484565b604051808215151515815260200191505060405180910390f35b341561066357600080fd5b6106b3600480803590602001908201803590602001908080601f016020809104026020016040519081016040528093929190818152602001838380828437820191505050505050919050506126c5565b604051808215151515815260200191505060405180910390f35b34156106d857600080fd5b6106ee600480803590602001909190505061288c565b604051808215151515815260200191505060405180910390f35b341561071357600080fd5b610763600480803590602001908201803590602001908080601f01602080910402602001604051908101604052809392919081815260200183838082843782019150505050505091905050612898565b604051808215151515815260200191505060405180910390f35b341561078857600080fd5b610790612a60565b604051808273ffffffffffffffffffffffffffffffffffffffff1673ffffffffffffffffffffffffffffffffffffffff16815260200191505060405180910390f35b34156107dd57600080fd5b6107fe60048080359060200190820180359060200191909192905050612a86565b005b341561080b57600080fd5b610813612d02565b604051808273ffffffffffffffffffffffffffffffffffffffff1673ffffffffffffffffffffffffffffffffffffffff16815260200191505060405180910390f35b341561086057600080fd5b610868612d28565b604051808273ffffffffffffffffffffffffffffffffffffffff1673ffffffffffffffffffffffffffffffffffffffff16815260200191505060405180910390f35b60008060016000846040518082805190602001908083835b6020831015156108e757805182526020820191506020810190506020830392506108c2565b6001836020036101000a03801982511681845116808217855250505050505090500191505060405180910390206000191660001916815260200190815260200160002060000154119050919050565b61093f81612484565b156109ee5761094d81612d4e565b7f492f06612b5389b4304f989412f79af523a6c649a0aad67ed85d2f3f1e727ce6816040518080602001828103825283818151815260200191508051906020019080838360005b838110156109af578082015181840152602081019050610994565b50505050905090810190601f1680156109dc5780820380516001836020036101000a031916815260200191505b509250505060405180910390a1610a10565b6109f7816126c5565b15610a0a57610a0581612def565b610a0f565b600080fd5b5b50565b60006001600085856040518083838082843782019150509250505060405180910390206000191660001916815260200190815260200160002090503373ffffffffffffffffffffffffffffffffffffffff168160010160019054906101000a900473ffffffffffffffffffffffffffffffffffffffff1673ffffffffffffffffffffffffffffffffffffffff16141515610aac57600080fd5b80600201548211151515610abf57600080fd5b600460009054906101000a900473ffffffffffffffffffffffffffffffffffffffff1673ffffffffffffffffffffffffffffffffffffffff1663693ec85e6000604051602001526040518163ffffffff167c010000000000000000000000000000000000000000000000000000000002815260040180806020018281038252600a8152602001807f6d696e4465706f73697400000000000000000000000000000000000000000000815250602001915050602060405180830381600087803b1515610b8957600080fd5b6102c65a03f11515610b9a57600080fd5b505050604051805190508282600201540310151515610bb857600080fd5b600260009054906101000a900473ffffffffffffffffffffffffffffffffffffffff1673ffffffffffffffffffffffffffffffffffffffff1663a9059cbb33846000604051602001526040518363ffffffff167c0100000000000000000000000000000000000000000000000000000000028152600401808373ffffffffffffffffffffffffffffffffffffffff1673ffffffffffffffffffffffffffffffffffffffff16815260200182815260200192505050602060405180830381600087803b1515610c8557600080fd5b6102c65a03f11515610c9657600080fd5b505050604051805190501515610cab57600080fd5b8181600201600082825403925050819055507f35beea79a7fc6641257b3e61add293ddecedd0d3fdabc5f7e12172af93af81ef84848484600201546040518080602001848152602001838152602001828103825286868281815260200192508082843782019150509550505050505060405180910390a150505050565b600080600083815260200190815260200160002073__Challenge_____________________________6396093a2790916000604051602001526040518263ffffffff167c01000000000000000000000000000000000000000000000000000000000281526004018082815260200191505060206040518083038186803b1515610db057600080fd5b6102c65a03f41515610dc157600080fd5b505050604051805190509050919050565b6000806000806000868660405180838380828437820191505092505050604051809103902093506001600085600019166000191681526020019081526020016000209250600460009054906101000a900473ffffffffffffffffffffffffffffffffffffffff1673ffffffffffffffffffffffffffffffffffffffff1663693ec85e6000604051602001526040518163ffffffff167c010000000000000000000000000000000000000000000000000000000002815260040180806020018281038252600a8152602001807f6d696e4465706f73697400000000000000000000000000000000000000000000815250602001915050602060405180830381600087803b1515610ee057600080fd5b6102c65a03f11515610ef157600080fd5b505050604051805190509150610f3887878080601f0160208091040260200160405190810160405280939291908181526020018383808284378201915050505050506108aa565b80610f5157508260010160009054906101000a900460ff165b1515610f5c57600080fd5b6000808460030154815260200190815260200160002073__Challenge_____________________________63dc0e069b90916000604051602001526040518263ffffffff167c01000000000000000000000000000000000000000000000000000000000281526004018082815260200191505060206040518083038186803b1515610fe657600080fd5b6102c65a03f41515610ff757600080fd5b5050506040518051905015806110ae57506000808460030154815260200190815260200160002073__Challenge_____________________________63456bb3dc90916000604051602001526040518263ffffffff167c01000000000000000000000000000000000000000000000000000000000281526004018082815260200191505060206040518083038186803b151561109257600080fd5b6102c65a03f415156110a357600080fd5b505050604051805190505b15156110b957600080fd5b81836002015410156111095761110087878080601f016020809104026020016040519081016040528093929190818152602001838380828437820191505050505050613471565b60009450611942565b600260009054906101000a900473ffffffffffffffffffffffffffffffffffffffff1673ffffffffffffffffffffffffffffffffffffffff166323b872dd3330856000604051602001526040518463ffffffff167c0100000000000000000000000000000000000000000000000000000000028152600401808473ffffffffffffffffffffffffffffffffffffffff1673ffffffffffffffffffffffffffffffffffffffff1681526020018373ffffffffffffffffffffffffffffffffffffffff1673ffffffffffffffffffffffffffffffffffffffff1681526020018281526020019350505050602060405180830381600087803b151561120a57600080fd5b6102c65a03f1151561121b57600080fd5b50505060405180519050151561123057600080fd5b600360009054906101000a900473ffffffffffffffffffffffffffffffffffffffff1673ffffffffffffffffffffffffffffffffffffffff166332ed3d60600460009054906101000a900473ffffffffffffffffffffffffffffffffffffffff1673ffffffffffffffffffffffffffffffffffffffff1663693ec85e6000604051602001526040518163ffffffff167c010000000000000000000000000000000000000000000000000000000002815260040180806020018281038252600a8152602001807f766f746551756f72756d00000000000000000000000000000000000000000000815250602001915050602060405180830381600087803b151561133857600080fd5b6102c65a03f1151561134957600080fd5b50505060405180519050600460009054906101000a900473ffffffffffffffffffffffffffffffffffffffff1673ffffffffffffffffffffffffffffffffffffffff1663693ec85e6000604051602001526040518163ffffffff167c010000000000000000000000000000000000000000000000000000000002815260040180806020018281038252600e8152602001807f636f6d6d697453746167654c656e000000000000000000000000000000000000815250602001915050602060405180830381600087803b151561141d57600080fd5b6102c65a03f1151561142e57600080fd5b50505060405180519050600460009054906101000a900473ffffffffffffffffffffffffffffffffffffffff1673ffffffffffffffffffffffffffffffffffffffff1663693ec85e6000604051602001526040518163ffffffff167c010000000000000000000000000000000000000000000000000000000002815260040180806020018281038252600e8152602001807f72657665616c53746167654c656e000000000000000000000000000000000000815250602001915050602060405180830381600087803b151561150257600080fd5b6102c65a03f1151561151357600080fd5b505050604051805190506000604051602001526040518463ffffffff167c0100000000000000000000000000000000000000000000000000000000028152600401808481526020018381526020018281526020019350505050602060405180830381600087803b151561158557600080fd5b6102c65a03f1151561159657600080fd5b50505060405180519050905061010060405190810160405280606484600460009054906101000a900473ffffffffffffffffffffffffffffffffffffffff1673ffffffffffffffffffffffffffffffffffffffff1663693ec85e6000604051602001526040518163ffffffff167c010000000000000000000000000000000000000000000000000000000002815260040180806020018281038252600f8152602001807f64697370656e736174696f6e5063740000000000000000000000000000000000815250602001915050602060405180830381600087803b151561167c57600080fd5b6102c65a03f1151561168d57600080fd5b50505060405180519050606403028115156116a457fe5b048152602001600360009054906101000a900473ffffffffffffffffffffffffffffffffffffffff1673ffffffffffffffffffffffffffffffffffffffff168152602001600260009054906101000a900473ffffffffffffffffffffffffffffffffffffffff1673ffffffffffffffffffffffffffffffffffffffff1681526020018281526020013373ffffffffffffffffffffffffffffffffffffffff16815260200160001515815260200183815260200160008152506000808381526020019081526020016000206000820151816000015560208201518160010160006101000a81548173ffffffffffffffffffffffffffffffffffffffff021916908373ffffffffffffffffffffffffffffffffffffffff16021790555060408201518160020160006101000a81548173ffffffffffffffffffffffffffffffffffffffff021916908373ffffffffffffffffffffffffffffffffffffffff1602179055506060820151816003015560808201518160040160006101000a81548173ffffffffffffffffffffffffffffffffffffffff021916908373ffffffffffffffffffffffffffffffffffffffff16021790555060a08201518160040160146101000a81548160ff02191690831515021790555060c0820151816005015560e08201518160060155905050806001600086600019166000191681526020019081526020016000206003018190555081600160008660001916600019168152602001908152602001600020600201600082825403925050819055507ff6214eae86f3bedb9e3580242fc0aee0c63d31de315e420dc25917b0614ffe9f878784846040518080602001848152602001838152602001828103825286868281815260200192508082843782019150509550505050505060405180910390a18094505b5050505092915050565b600080600084815260200190815260200160002073__Challenge_____________________________6382fb3e55909133856000604051602001526040518463ffffffff167c0100000000000000000000000000000000000000000000000000000000028152600401808481526020018373ffffffffffffffffffffffffffffffffffffffff1673ffffffffffffffffffffffffffffffffffffffff168152602001828152602001935050505060206040518083038186803b1515611a1057600080fd5b6102c65a03f41515611a2157600080fd5b5050506040518051905090507f8df5fc7a83008bc089286a6396a5ede7efa20b39ccbac5255b8cc0b7b11b0a59338483604051808473ffffffffffffffffffffffffffffffffffffffff1673ffffffffffffffffffffffffffffffffffffffff168152602001838152602001828152602001935050505060405180910390a1505050565b60006001600085856040518083838082843782019150509250505060405180910390206000191660001916815260200190815260200160002090503373ffffffffffffffffffffffffffffffffffffffff168160010160019054906101000a900473ffffffffffffffffffffffffffffffffffffffff1673ffffffffffffffffffffffffffffffffffffffff16141515611b3e57600080fd5b600260009054906101000a900473ffffffffffffffffffffffffffffffffffffffff1673ffffffffffffffffffffffffffffffffffffffff166323b872dd3330856000604051602001526040518463ffffffff167c0100000000000000000000000000000000000000000000000000000000028152600401808473ffffffffffffffffffffffffffffffffffffffff1673ffffffffffffffffffffffffffffffffffffffff1681526020018373ffffffffffffffffffffffffffffffffffffffff1673ffffffffffffffffffffffffffffffffffffffff1681526020018281526020019350505050602060405180830381600087803b1515611c3f57600080fd5b6102c65a03f11515611c5057600080fd5b505050604051805190501515611c6557600080fd5b8181600201600082825401925050819055507fdc637240b7346f24266bcefb85cdc460d11021e894ba4811fc16c9e21694fa8984848484600201546040518080602001848152602001838152602001828103825286868281815260200192508082843782019150509550505050505060405180910390a150505050565b60006020528060005260406000206000915090508060000154908060010160009054906101000a900473ffffffffffffffffffffffffffffffffffffffff16908060020160009054906101000a900473ffffffffffffffffffffffffffffffffffffffff16908060030154908060040160009054906101000a900473ffffffffffffffffffffffffffffffffffffffff16908060040160149054906101000a900460ff16908060050154908060060154905088565b600080600084815260200190815260200160002060070160008373ffffffffffffffffffffffffffffffffffffffff1673ffffffffffffffffffffffffffffffffffffffff16815260200190815260200160002060009054906101000a900460ff16905092915050565b600080600084815260200190815260200160002073__Challenge_____________________________63c0d4efb8909186856000604051602001526040518463ffffffff167c0100000000000000000000000000000000000000000000000000000000028152600401808481526020018373ffffffffffffffffffffffffffffffffffffffff1673ffffffffffffffffffffffffffffffffffffffff168152602001828152602001935050505060206040518083038186803b1515611ec557600080fd5b6102c65a03f41515611ed657600080fd5b5050506040518051905090509392505050565b600060016000836040518082805190602001908083835b602083101515611f255780518252602082019150602081019050602083039250611f00565b6001836020036101000a03801982511681845116808217855250505050505090500191505060405180910390206000191660001916815260200190815260200160002060010160009054906101000a900460ff169050919050565b6000611fbd84848080601f016020809104026020016040519081016040528093929190818152602001838380828437820191505050505050611ee9565b151515611fc957600080fd5b61200484848080601f0160208091040260200160405190810160405280939291908181526020018383808284378201915050505050506108aa565b15151561201057600080fd5b600460009054906101000a900473ffffffffffffffffffffffffffffffffffffffff1673ffffffffffffffffffffffffffffffffffffffff1663693ec85e6000604051602001526040518163ffffffff167c010000000000000000000000000000000000000000000000000000000002815260040180806020018281038252600a8152602001807f6d696e4465706f73697400000000000000000000000000000000000000000000815250602001915050602060405180830381600087803b15156120da57600080fd5b6102c65a03f115156120eb57600080fd5b50505060405180519050821015151561210357600080fd5b600160008585604051808383808284378201915050925050506040518091039020600019166000191681526020019081526020016000209050338160010160016101000a81548173ffffffffffffffffffffffffffffffffffffffff021916908373ffffffffffffffffffffffffffffffffffffffff160217905550600260009054906101000a900473ffffffffffffffffffffffffffffffffffffffff1673ffffffffffffffffffffffffffffffffffffffff166323b872dd8260010160019054906101000a900473ffffffffffffffffffffffffffffffffffffffff1630856000604051602001526040518463ffffffff167c0100000000000000000000000000000000000000000000000000000000028152600401808473ffffffffffffffffffffffffffffffffffffffff1673ffffffffffffffffffffffffffffffffffffffff1681526020018373ffffffffffffffffffffffffffffffffffffffff1673ffffffffffffffffffffffffffffffffffffffff1681526020018281526020019350505050602060405180830381600087803b15156122a457600080fd5b6102c65a03f115156122b557600080fd5b5050506040518051905015156122ca57600080fd5b600460009054906101000a900473ffffffffffffffffffffffffffffffffffffffff1673ffffffffffffffffffffffffffffffffffffffff1663693ec85e6000604051602001526040518163ffffffff167c010000000000000000000000000000000000000000000000000000000002815260040180806020018281038252600d8152602001807f6170706c7953746167654c656e00000000000000000000000000000000000000815250602001915050602060405180830381600087803b151561239457600080fd5b6102c65a03f115156123a557600080fd5b50505060405180519050420181600001819055508181600201819055507f8679b3793e06c33189be2319d77a55df6769e3b9061611d27f1809b3d56d2e6884848460405180806020018381526020018281038252858582818152602001925080828437820191505094505050505060405180910390a150505050565b60016020528060005260406000206000915090508060000154908060010160009054906101000a900460ff16908060010160019054906101000a900473ffffffffffffffffffffffffffffffffffffffff16908060020154908060030154905085565b6000806000836040518082805190602001908083835b6020831015156124bf578051825260208201915060208101905060208303925061249a565b6001836020036101000a03801982511681845116808217855250505050505090500191505060405180910390209150600160008360001916600019168152602001908152602001600020600301549050612518846108aa565b801561254757506125466001600084600019166000191681526020019081526020016000206000015461288c565b5b8015612559575061255784611ee9565b155b80156126ab575060008082815260200190815260200160002073__Challenge_____________________________63dc0e069b90916000604051602001526040518263ffffffff167c01000000000000000000000000000000000000000000000000000000000281526004018082815260200191505060206040518083038186803b15156125e657600080fd5b6102c65a03f415156125f757600080fd5b5050506040518051905015806126aa575060008082815260200190815260200160002073__Challenge_____________________________63456bb3dc90916000604051602001526040518263ffffffff167c01000000000000000000000000000000000000000000000000000000000281526004018082815260200191505060206040518083038186803b151561268e57600080fd5b6102c65a03f4151561269f57600080fd5b505050604051805190505b5b156126b957600192506126be565b600092505b5050919050565b60008060008060016000866040518082805190602001908083835b60208310151561270557805182526020820191506020810190506020830392506126e0565b6001836020036101000a03801982511681845116808217855250505050505090500191505060405180910390206000191660001916815260200190815260200160002060030154815260200190815260200160002090508073__Challenge_____________________________63dc0e069b90916000604051602001526040518263ffffffff167c01000000000000000000000000000000000000000000000000000000000281526004018082815260200191505060206040518083038186803b15156127d157600080fd5b6102c65a03f415156127e257600080fd5b50505060405180519050801561288457508073__Challenge_____________________________630e2edf6e90916000604051602001526040518263ffffffff167c01000000000000000000000000000000000000000000000000000000000281526004018082815260200191505060206040518083038186803b151561286857600080fd5b6102c65a03f4151561287957600080fd5b505050604051805190505b915050919050565b60004282109050919050565b60008060008060016000866040518082805190602001908083835b6020831015156128d857805182526020820191506020810190506020830392506128b3565b6001836020036101000a03801982511681845116808217855250505050505090500191505060405180910390206000191660001916815260200190815260200160002060030154815260200190815260200160002090508073__Challenge_____________________________63dc0e069b90916000604051602001526040518263ffffffff167c01000000000000000000000000000000000000000000000000000000000281526004018082815260200191505060206040518083038186803b15156129a457600080fd5b6102c65a03f415156129b557600080fd5b505050604051805190508015612a5857508073__Challenge_____________________________63456bb3dc90916000604051602001526040518263ffffffff167c01000000000000000000000000000000000000000000000000000000000281526004018082815260200191505060206040518083038186803b1515612a3b57600080fd5b6102c65a03f41515612a4c57600080fd5b50505060405180519050155b915050919050565b600460009054906101000a900473ffffffffffffffffffffffffffffffffffffffff1681565b60006001600084846040518083838082843782019150509250505060405180910390206000191660001916815260200190815260200160002090508060010160019054906101000a900473ffffffffffffffffffffffffffffffffffffffff1673ffffffffffffffffffffffffffffffffffffffff163373ffffffffffffffffffffffffffffffffffffffff16141515612b1f57600080fd5b612b5a83838080601f016020809104026020016040519081016040528093929190818152602001838380828437820191505050505050611ee9565b1515612b6557600080fd5b6000808260030154815260200190815260200160002073__Challenge_____________________________63dc0e069b90916000604051602001526040518263ffffffff167c01000000000000000000000000000000000000000000000000000000000281526004018082815260200191505060206040518083038186803b1515612bef57600080fd5b6102c65a03f41515612c0057600080fd5b505050604051805190501580612cb757506000808260030154815260200190815260200160002073__Challenge_____________________________63456bb3dc90916000604051602001526040518263ffffffff167c01000000000000000000000000000000000000000000000000000000000281526004018082815260200191505060206040518083038186803b1515612c9b57600080fd5b6102c65a03f41515612cac57600080fd5b505050604051805190505b1515612cc257600080fd5b612cfd83838080601f016020809104026020016040519081016040528093929190818152602001838380828437820191505050505050613471565b505050565b600260009054906101000a900473ffffffffffffffffffffffffffffffffffffffff1681565b600360009054906101000a900473ffffffffffffffffffffffffffffffffffffffff1681565b6000816040518082805190602001908083835b602083101515612d865780518252602082019150602081019050602083039250612d61565b6001836020036101000a038019825116818451168082178552505050505050905001915050604051809103902090506001806000836000191660001916815260200190815260200160002060010160006101000a81548160ff0219169083151502179055505050565b6000806000806000856040518082805190602001908083835b602083101515612e2d5780518252602082019150602081019050602083039250612e08565b6001836020036101000a0380198251168184511680821785525050505050509050019150506040518091039020945060016000866000191660001916815260200190815260200160002093506000808560030154815260200190815260200160002092508273__Challenge_____________________________6396093a2790916000604051602001526040518263ffffffff167c01000000000000000000000000000000000000000000000000000000000281526004018082815260200191505060206040518083038186803b1515612f0657600080fd5b6102c65a03f41515612f1757600080fd5b505050604051805190509150612f2c86611ee9565b9050600360009054906101000a900473ffffffffffffffffffffffffffffffffffffffff1673ffffffffffffffffffffffffffffffffffffffff16634940318384600301546000604051602001526040518263ffffffff167c010000000000000000000000000000000000000000000000000000000002815260040180828152602001915050602060405180830381600087803b1515612fcb57600080fd5b6102c65a03f11515612fdc57600080fd5b50505060405180519050156130ea57612ff486612d4e565b8184600201600082825401925050819055507f0596bd84e3e7dc311a8d2e32425107e3c27acef96831b8cf2a2abcae2609461f83600301546040518082815260200191505060405180910390a18015156130e5577f492f06612b5389b4304f989412f79af523a6c649a0aad67ed85d2f3f1e727ce6866040518080602001828103825283818151815260200191508051906020019080838360005b838110156130aa57808201518184015260208101905061308f565b50505050905090810190601f1680156130d75780820380516001836020036101000a031916815260200191505b509250505060405180910390a15b61338a565b6130f386613471565b600260009054906101000a900473ffffffffffffffffffffffffffffffffffffffff1673ffffffffffffffffffffffffffffffffffffffff1663a9059cbb8460040160009054906101000a900473ffffffffffffffffffffffffffffffffffffffff16846000604051602001526040518363ffffffff167c0100000000000000000000000000000000000000000000000000000000028152600401808373ffffffffffffffffffffffffffffffffffffffff1673ffffffffffffffffffffffffffffffffffffffff16815260200182815260200192505050602060405180830381600087803b15156131e457600080fd5b6102c65a03f115156131f557600080fd5b50505060405180519050151561320a57600080fd5b7f88e47f2988d22858b92549596d2d6a57f107680fc7dc7dcf9dc52a06159e268c83600301546040518082815260200191505060405180910390a180156132ec577ffd11b58848f7f6c4037f5a3999c7009884b92a7e0c98fcd20f5d2e849e5158a8866040518080602001828103825283818151815260200191508051906020019080838360005b838110156132ad578082015181840152602081019050613292565b50505050905090810190601f1680156132da5780820380516001836020036101000a031916815260200191505b509250505060405180910390a1613389565b7ff340a3b60cc69f7c29601c3a7343999504e72a3c96b1ce820aded7352e03feb6866040518080602001828103825283818151815260200191508051906020019080838360005b8381101561334e578082015181840152602081019050613333565b50505050905090810190601f16801561337b5780820380516001836020036101000a031916815260200191505b509250505060405180910390a15b5b8260010160009054906101000a900473ffffffffffffffffffffffffffffffffffffffff1673ffffffffffffffffffffffffffffffffffffffff1663053e71a684600301546000604051602001526040518263ffffffff167c010000000000000000000000000000000000000000000000000000000002815260040180828152602001915050602060405180830381600087803b151561342957600080fd5b6102c65a03f1151561343a57600080fd5b50505060405180519050836006018190555060018360040160146101000a81548160ff021916908315150217905550505050505050565b600080826040518082805190602001908083835b6020831015156134aa5780518252602082019150602081019050602083039250613485565b6001836020036101000a03801982511681845116808217855250505050505090500191505060405180910390209150600160008360001916600019168152602001908152602001600020905060008160020154111561361f57600260009054906101000a900473ffffffffffffffffffffffffffffffffffffffff1673ffffffffffffffffffffffffffffffffffffffff1663a9059cbb8260010160019054906101000a900473ffffffffffffffffffffffffffffffffffffffff1683600201546000604051602001526040518363ffffffff167c0100000000000000000000000000000000000000000000000000000000028152600401808373ffffffffffffffffffffffffffffffffffffffff1673ffffffffffffffffffffffffffffffffffffffff16815260200182815260200192505050602060405180830381600087803b15156135f857600080fd5b6102c65a03f1151561360957600080fd5b50505060405180519050151561361e57600080fd5b5b6001600083600019166000191681526020019081526020016000206000808201600090556001820160006101000a81549060ff02191690556001820160016101000a81549073ffffffffffffffffffffffffffffffffffffffff02191690556002820160009055600382016000905550505050505600a165627a7a72305820f0fc1f2fcb53dc21260ef308125ee03f8d0a452ded82afcc15ba486c684f55eb0029",
  "source": "pragma solidity ^0.4.11;\n\nimport \"./optional/StandardToken.sol\";\nimport \"./Parameterizer.sol\";\nimport \"./Challenge.sol\";\nimport \"./PLCRVoting.sol\";\n\ncontract Registry {\n\n  // ------\n  // EVENTS\n  // ------\n\n  event _Application(string domain, uint deposit);\n  event _Challenge(string domain, uint deposit, uint pollID);\n  event _Deposit(string domain, uint added, uint newTotal);\n  event _Withdrawal(string domain, uint withdrew, uint newTotal);\n  event _NewDomainWhitelisted(string domain);\n  event _ApplicationRemoved(string domain);\n  event _ListingRemoved(string domain);\n  event _ChallengeFailed(uint challengeID);\n  event _ChallengeSucceeded(uint challengeID);\n  event _RewardClaimed(address voter, uint challengeID, uint reward);\n\n  // ------\n  // DATA STRUCTURES\n  // ------\n\n  using Challenge for Challenge.Data;\n\n  struct Listing {\n    uint applicationExpiry; // Expiration date of apply stage\n    bool whitelisted;       // Indicates registry status\n    address owner;          // Owner of Listing\n    uint unstakedDeposit;   // Number of unlocked tokens with potential risk if challenged\n    uint challengeID;       // Identifier of canonical challenge\n  }\n\n  // ------\n  // STATE\n  // ------\n\n  // Maps challengeIDs to associated challenge data\n  mapping(uint => Challenge.Data) public challenges;\n\n  // Maps domainHashes to associated listing data\n  mapping(bytes32 => Listing) public listings;\n\n  // Global Variables\n  StandardToken public token;\n  PLCRVoting public voting;\n  Parameterizer public parameterizer;\n\n  // ------------\n  // CONSTRUCTOR\n  // ------------\n\n  /**\n  @dev Contructor\n  @notice                 Sets the addresses for token, voting, and parameterizer\n  @param _tokenAddr       Address of the native ERC20 token\n  @param _plcrAddr        Address of a PLCR voting contract for the provided token\n  @param _paramsAddr      Address of a Parameterizer contract for the provided PLCR voting contract\n  */\n  function Registry(\n    address _tokenAddr,\n    address _plcrAddr,\n    address _paramsAddr\n  ) {\n    token = StandardToken(_tokenAddr);\n    voting = PLCRVoting(_plcrAddr);\n    parameterizer = Parameterizer(_paramsAddr);\n  }\n\n  // --------------------\n  // PUBLISHER INTERFACE\n  // --------------------\n\n  /**\n  @notice             Allows a user to start an application.\n  @notice             Takes tokens from user and sets apply stage end time.\n  @param _domain      The domain of a potential listing a user is applying to add to the registry\n  @param _amount      The number of ERC20 tokens a user is willing to potentially stake\n  */\n  function apply(string _domain, uint _amount) external {\n    require(!isWhitelisted(_domain));\n    require(!appWasMade(_domain));\n    require(_amount >= parameterizer.get(\"minDeposit\"));\n\n    // Sets owner\n    Listing storage listing = listings[keccak256(_domain)];\n    listing.owner = msg.sender;\n\n    // Transfers tokens from user to Registry contract\n    require(token.transferFrom(listing.owner, this, _amount));\n\n    // Sets apply stage end time\n    listing.applicationExpiry = block.timestamp + parameterizer.get(\"applyStageLen\");\n    listing.unstakedDeposit = _amount;\n\n    _Application(_domain, _amount);\n  }\n\n  /**\n  @notice             Allows the owner of a domain to increase their unstaked deposit.\n  @param _domain      The domain of a user's application/listing\n  @param _amount      The number of ERC20 tokens to increase a user's unstaked deposit\n  */\n  function deposit(string _domain, uint _amount) external {\n    Listing storage listing = listings[keccak256(_domain)];\n\n    require(listing.owner == msg.sender);\n    require(token.transferFrom(msg.sender, this, _amount));\n\n    listing.unstakedDeposit += _amount;\n\n    _Deposit(_domain, _amount, listing.unstakedDeposit);\n  }\n\n  /**\n  @notice             Allows the owner of a domain to decrease their unstaked deposit.\n  @notice             The listing keeps its previous status.\n  @param _domain      The domain of a user's application/listing\n  @param _amount      The number of ERC20 tokens to decrease a user's unstaked deposit\n  */\n  function withdraw(string _domain, uint _amount) external {\n    Listing storage listing = listings[keccak256(_domain)];\n\n    require(listing.owner == msg.sender);\n    require(_amount <= listing.unstakedDeposit);\n    require(listing.unstakedDeposit - _amount >= parameterizer.get(\"minDeposit\"));\n\n    require(token.transfer(msg.sender, _amount));\n\n    listing.unstakedDeposit -= _amount;\n\n    _Withdrawal(_domain, _amount, listing.unstakedDeposit);\n  }\n\n  /**\n  @notice             Allows the owner of a listing to remove the listing from the whitelist\n  @notice             Returns all tokens to the owner of the listing\n  @param _domain      The domain of a user's listing\n  */\n  function exit(string _domain) external {\n    Listing storage listing = listings[keccak256(_domain)];\n\n    require(msg.sender == listing.owner);\n    require(isWhitelisted(_domain));\n\n    // Cannot exit during ongoing challenge\n    require(!challenges[listing.challengeID].isInitialized() ||\n            challenges[listing.challengeID].isResolved());\n\n    // Remove domain & return tokens\n    resetListing(_domain);\n  }\n\n  // -----------------------\n  // TOKEN HOLDER INTERFACE\n  // -----------------------\n\n  /**\n  @notice             Starts a poll for a domain which is either\n  @notice             in the apply stage or already in the whitelist.\n  @dev                Tokens are taken from the challenger and the applicant's deposit is locked.\n  @param _domain      The domain of an applicant's potential listing\n  */\n  function challenge(string _domain) external returns (uint challengeID) {\n    bytes32 domainHash = keccak256(_domain);\n    Listing storage listing = listings[domainHash];\n    uint deposit = parameterizer.get(\"minDeposit\");\n\n    // Domain must be in apply stage or already on the whitelist\n    require(appWasMade(_domain) || listing.whitelisted);\n    // Prevent multiple challenges\n    require(!challenges[listing.challengeID].isInitialized() ||\n            challenges[listing.challengeID].isResolved());\n\n    if (listing.unstakedDeposit < deposit) {\n      // Not enough tokens, domain auto-delisted\n      resetListing(_domain);\n      return 0;\n    }\n\n    // Takes tokens from challenger\n    require(token.transferFrom(msg.sender, this, deposit));\n\n    // Starts poll\n    uint pollID = voting.startPoll(\n      parameterizer.get(\"voteQuorum\"),\n      parameterizer.get(\"commitStageLen\"),\n      parameterizer.get(\"revealStageLen\")\n    );\n\n    challenges[pollID] = Challenge.Data({\n      challenger: msg.sender,\n      voting: voting,\n      token: token,\n      challengeID: pollID,\n      rewardPool: ((100 - parameterizer.get(\"dispensationPct\")) * deposit) / 100,\n      stake: deposit,\n      resolved: false,\n      winningTokens: 0\n    });\n\n    // Updates listing to store most recent challenge\n    listings[domainHash].challengeID = pollID;\n\n    // Locks tokens for listing during challenge\n    listings[domainHash].unstakedDeposit -= deposit;\n\n    _Challenge(_domain, deposit, pollID);\n    return pollID;\n  }\n\n  /**\n  @notice             Called by a voter to claim his/her reward for each completed vote.\n  @dev                Someone must call updateStatus() before this can be called.\n  @param _challengeID The pollID of the challenge a reward is being claimed for\n  @param _salt        The salt of a voter's commit hash in the given poll\n  */\n  function claimReward(uint _challengeID, uint _salt) public {\n    uint reward = challenges[_challengeID].claimReward(msg.sender, _salt);\n\n    _RewardClaimed(msg.sender, _challengeID, reward);\n  }\n\n  /**\n  @notice             Updates a domain's status from 'application' to 'listing'\n  @notice             or resolves a challenge if one exists.\n  @param _domain      The domain whose status is being updated\n  */\n  function updateStatus(string _domain) public {\n    if (canBeWhitelisted(_domain)) {\n      whitelistApplication(_domain);\n      _NewDomainWhitelisted(_domain);\n    } else if (challengeCanBeResolved(_domain)) {\n      resolveChallenge(_domain);\n    } else {\n      revert();\n    }\n  }\n\n  // --------\n  // GETTERS\n  // --------\n\n  /**\n  @dev                Determines whether the domain of an application can be whitelisted.\n  @param _domain      The domain whose status should be examined\n  */\n  function canBeWhitelisted(string _domain) constant public returns (bool) {\n    bytes32 domainHash = keccak256(_domain);\n    uint challengeID = listings[domainHash].challengeID;\n\n    // Ensures that the application was made,\n    // the application period has ended,\n    // the domain can be whitelisted,\n    // and either: the challengeID == 0, or the challenge has been resolved.\n    if (\n        appWasMade(_domain) &&\n        isExpired(listings[domainHash].applicationExpiry) &&\n        !isWhitelisted(_domain) &&\n        (!challenges[challengeID].isInitialized() || challenges[challengeID].isResolved())\n    ) { return true; }\n\n    return false;\n  }\n\n  /// @dev returns true if domain is whitelisted\n  function isWhitelisted(string _domain) constant public returns (bool whitelisted) {\n    return listings[keccak256(_domain)].whitelisted;\n  }\n\n  // @dev returns true if apply was called for this domain\n  function appWasMade(string _domain) constant public returns (bool exists) {\n    return listings[keccak256(_domain)].applicationExpiry > 0;\n  }\n\n  // @dev returns true if the application/listing has an unresolved challenge\n  function challengeExists(string _domain) constant public returns (bool) {\n    Challenge.Data storage challenge = challenges[listings[keccak256(_domain)].challengeID];\n      return challenge.isInitialized() && !challenge.isResolved();\n  }\n\n  /**\n  @notice             Determines whether voting has concluded in a challenge for a given domain.\n  @dev                Throws if no challenge exists.\n  @param _domain      A domain with an unresolved challenge\n  */\n  function challengeCanBeResolved(string _domain) constant public returns (bool) {\n    Challenge.Data storage challenge = challenges[listings[keccak256(_domain)].challengeID];\n    return challenge.isInitialized() && challenge.canBeResolved();\n  }\n\n  /**\n  @notice             Determines the number of tokens awarded to the winning party in a challenge.\n  @param _challengeID The challengeID to determine a reward for\n  */\n  function challengeWinnerReward(uint _challengeID) public constant returns (uint) {\n    return challenges[_challengeID].challengeWinnerReward(); \n  }\n\n  /// @dev returns true if the provided termDate has passed\n  function isExpired(uint _termDate) constant public returns (bool expired) {\n    return _termDate < block.timestamp;\n  }\n\n  /**\n  @dev                Calculates the provided voter's token reward for the given poll.\n  @param _voter       The address of the voter whose reward balance is to be returned\n  @param _challengeID The ID of the challenge the voter's reward is being calculated for\n  @param _salt        The salt of the voter's commit hash in the given poll\n  @return             The uint indicating the voter's reward\n  */\n  function voterReward(address _voter, uint _challengeID, uint _salt)\n  public constant returns (uint) {\n    return challenges[_challengeID].voterReward(_voter, _salt);\n  }\n\n  /**\n  @dev                Determines whether the provided voter has claimed tokens in a challenge\n  @param _challengeID The ID of the challenge to determine whether a voter has claimed tokens for\n  @param _voter       The address of the voter whose claim status is to be determined for the\n                      provided challenge.\n  @return             Bool indicating whether the voter has claimed tokens in the provided\n                      challenge\n  */\n  function tokenClaims(uint _challengeID, address _voter)\n  public constant returns (bool) {\n    return challenges[_challengeID].tokenClaims[_voter];\n  }\n\n  // ----------------\n  // PRIVATE FUNCTIONS\n  // ----------------\n\n  /**\n  @dev Determines the winner in a challenge. Rewards the winner tokens and either whitelists or\n  de-whitelists the domain.\n  @param _domain A domain with a challenge that is to be resolved.\n  */\n  function resolveChallenge(string _domain) private {\n    bytes32 domainHash = keccak256(_domain);\n    Listing storage listing = listings[domainHash];\n    Challenge.Data storage challenge = challenges[listing.challengeID];\n\n    // Calculates the winner's reward,\n    // which is: (winner's full stake) + (dispensationPct * loser's stake)\n    uint winnerReward = challenge.challengeWinnerReward();\n\n    // Records whether the domain is a listing or an application\n    bool wasWhitelisted = isWhitelisted(_domain);\n\n    // Case: challenge failed\n    if (voting.isPassed(challenge.challengeID)) {\n      whitelistApplication(_domain);\n      // Unlock stake so that it can be retrieved by the applicant\n      listing.unstakedDeposit += winnerReward;\n\n      _ChallengeFailed(challenge.challengeID);\n      if (!wasWhitelisted) { _NewDomainWhitelisted(_domain); }\n    }\n    // Case: challenge succeeded\n    else {\n      resetListing(_domain);\n      // Transfer the reward to the challenger\n      require(token.transfer(challenge.challenger, winnerReward));\n\n      _ChallengeSucceeded(challenge.challengeID);\n      if (wasWhitelisted) { _ListingRemoved(_domain); }\n      else { _ApplicationRemoved(_domain); }\n    }\n\n    challenge.winningTokens =\n      challenge.voting.getTotalNumberOfTokensForWinningOption(challenge.challengeID);\n    challenge.resolved = true;\n  }\n\n  /**\n  @dev Called by updateStatus() if the applicationExpiry date passed without a\n  challenge being made\n  @dev Called by resolveChallenge() if an application/listing beat a challenge.\n  @param _domain The domain of an application/listing to be whitelisted\n  */\n  function whitelistApplication(string _domain) private {\n    bytes32 domainHash = keccak256(_domain);\n\n    listings[domainHash].whitelisted = true;\n  }\n\n  /**\n  @dev deletes a listing from the whitelist and transfers tokens back to owner\n  @param _domain the domain to be removed\n  */\n  function resetListing(string _domain) private {\n    bytes32 domainHash = keccak256(_domain);\n    Listing storage listing = listings[domainHash];\n\n    // Transfers any remaining balance back to the owner\n    if (listing.unstakedDeposit > 0)\n        require(token.transfer(listing.owner, listing.unstakedDeposit));\n\n    delete listings[domainHash];\n  }\n\n\n}\n",
  "sourcePath": "/home/isaac/Desktop/Projects/tcr/contracts/Registry.sol",
  "compiler": {
    "name": "solc",
    "version": "0.4.18+commit.9cf6e910.Emscripten.clang"
  },
  "schemaVersion": "1.0.1",
  "updatedAt": "2017-12-19T21:00:11.762Z"
}