{
  "contractName": "Registry",
  "abi": [
    {
      "constant": true,
      "inputs": [
        {
          "name": "_listing",
          "type": "bytes32"
        }
      ],
      "name": "isWhitelisted",
      "outputs": [
        {
          "name": "whitelisted",
          "type": "bool"
        }
      ],
      "payable": false,
      "stateMutability": "view",
      "type": "function"
    },
    {
      "constant": false,
      "inputs": [
        {
          "name": "_listing",
          "type": "bytes32"
        },
        {
          "name": "_amount",
          "type": "uint256"
        }
      ],
      "name": "withdraw",
      "outputs": [],
      "payable": false,
      "stateMutability": "nonpayable",
      "type": "function"
    },
    {
      "constant": false,
      "inputs": [
        {
          "name": "_listing",
          "type": "bytes32"
        }
      ],
      "name": "exit",
      "outputs": [],
      "payable": false,
      "stateMutability": "nonpayable",
      "type": "function"
    },
    {
      "constant": true,
      "inputs": [
        {
          "name": "_listing",
          "type": "bytes32"
        }
      ],
      "name": "challengeExists",
      "outputs": [
        {
          "name": "",
          "type": "bool"
        }
      ],
      "payable": false,
      "stateMutability": "view",
      "type": "function"
    },
    {
      "constant": false,
      "inputs": [
        {
          "name": "_listing",
          "type": "bytes32"
        },
        {
          "name": "_amount",
          "type": "uint256"
        }
      ],
      "name": "deposit",
      "outputs": [],
      "payable": false,
      "stateMutability": "nonpayable",
      "type": "function"
    },
    {
      "constant": true,
      "inputs": [
        {
          "name": "_challengeID",
          "type": "uint256"
        }
      ],
      "name": "challengeWinnerReward",
      "outputs": [
        {
          "name": "",
          "type": "uint256"
        }
      ],
      "payable": false,
      "stateMutability": "view",
      "type": "function"
    },
    {
      "constant": true,
      "inputs": [
        {
          "name": "_listing",
          "type": "bytes32"
        }
      ],
      "name": "getStatus",
      "outputs": [
        {
          "name": "status",
          "type": "uint256"
        }
      ],
      "payable": false,
      "stateMutability": "view",
      "type": "function"
    },
    {
      "constant": true,
      "inputs": [
        {
          "name": "_listing",
          "type": "bytes32"
        }
      ],
      "name": "canBeWhitelisted",
      "outputs": [
        {
          "name": "",
          "type": "bool"
        }
      ],
      "payable": false,
      "stateMutability": "view",
      "type": "function"
    },
    {
      "constant": true,
      "inputs": [
        {
          "name": "_listing",
          "type": "bytes32"
        }
      ],
      "name": "challengeCanBeResolved",
      "outputs": [
        {
          "name": "",
          "type": "bool"
        }
      ],
      "payable": false,
      "stateMutability": "view",
      "type": "function"
    },
    {
      "constant": false,
      "inputs": [
        {
          "name": "_challengeID",
          "type": "uint256"
        },
        {
          "name": "_salt",
          "type": "uint256"
        }
      ],
      "name": "claimReward",
      "outputs": [],
      "payable": false,
      "stateMutability": "nonpayable",
      "type": "function"
    },
    {
      "constant": false,
      "inputs": [
        {
          "name": "_listing",
          "type": "bytes32"
        }
      ],
      "name": "updateStatus",
      "outputs": [],
      "payable": false,
      "stateMutability": "nonpayable",
      "type": "function"
    },
    {
      "constant": true,
      "inputs": [
        {
          "name": "_listing",
          "type": "bytes32"
        }
      ],
      "name": "appWasMade",
      "outputs": [
        {
          "name": "exists",
          "type": "bool"
        }
      ],
      "payable": false,
      "stateMutability": "view",
      "type": "function"
    },
    {
      "constant": true,
      "inputs": [
        {
          "name": "",
          "type": "uint256"
        }
      ],
      "name": "challenges",
      "outputs": [
        {
          "name": "rewardPool",
          "type": "uint256"
        },
        {
          "name": "voting",
          "type": "address"
        },
        {
          "name": "token",
          "type": "address"
        },
        {
          "name": "challengeID",
          "type": "uint256"
        },
        {
          "name": "challenger",
          "type": "address"
        },
        {
          "name": "resolved",
          "type": "bool"
        },
        {
          "name": "stake",
          "type": "uint256"
        },
        {
          "name": "winningTokens",
          "type": "uint256"
        }
      ],
      "payable": false,
      "stateMutability": "view",
      "type": "function"
    },
    {
      "constant": true,
      "inputs": [
        {
          "name": "_challengeID",
          "type": "uint256"
        },
        {
          "name": "_voter",
          "type": "address"
        }
      ],
      "name": "tokenClaims",
      "outputs": [
        {
          "name": "",
          "type": "bool"
        }
      ],
      "payable": false,
      "stateMutability": "view",
      "type": "function"
    },
    {
      "constant": true,
      "inputs": [
        {
          "name": "_voter",
          "type": "address"
        },
        {
          "name": "_challengeID",
          "type": "uint256"
        },
        {
          "name": "_salt",
          "type": "uint256"
        }
      ],
      "name": "voterReward",
      "outputs": [
        {
          "name": "",
          "type": "uint256"
        }
      ],
      "payable": false,
      "stateMutability": "view",
      "type": "function"
    },
    {
      "constant": false,
      "inputs": [
        {
          "name": "_listing",
          "type": "string"
        },
        {
          "name": "_amount",
          "type": "uint256"
        }
      ],
      "name": "apply",
      "outputs": [],
      "payable": false,
      "stateMutability": "nonpayable",
      "type": "function"
    },
    {
      "constant": true,
      "inputs": [
        {
          "name": "",
          "type": "bytes32"
        }
      ],
      "name": "listings",
      "outputs": [
        {
          "name": "applicationExpiry",
          "type": "uint256"
        },
        {
          "name": "whitelisted",
          "type": "bool"
        },
        {
          "name": "owner",
          "type": "address"
        },
        {
          "name": "unstakedDeposit",
          "type": "uint256"
        },
        {
          "name": "challengeID",
          "type": "uint256"
        }
      ],
      "payable": false,
      "stateMutability": "view",
      "type": "function"
    },
    {
      "constant": false,
      "inputs": [
        {
          "name": "_listing",
          "type": "bytes32"
        }
      ],
      "name": "challenge",
      "outputs": [
        {
          "name": "challengeID",
          "type": "uint256"
        }
      ],
      "payable": false,
      "stateMutability": "nonpayable",
      "type": "function"
    },
    {
      "constant": true,
      "inputs": [
        {
          "name": "_termDate",
          "type": "uint256"
        }
      ],
      "name": "isExpired",
      "outputs": [
        {
          "name": "expired",
          "type": "bool"
        }
      ],
      "payable": false,
      "stateMutability": "view",
      "type": "function"
    },
    {
      "constant": true,
      "inputs": [],
      "name": "parameterizer",
      "outputs": [
        {
          "name": "",
          "type": "address"
        }
      ],
      "payable": false,
      "stateMutability": "view",
      "type": "function"
    },
    {
      "constant": true,
      "inputs": [],
      "name": "token",
      "outputs": [
        {
          "name": "",
          "type": "address"
        }
      ],
      "payable": false,
      "stateMutability": "view",
      "type": "function"
    },
    {
      "constant": true,
      "inputs": [],
      "name": "voting",
      "outputs": [
        {
          "name": "",
          "type": "address"
        }
      ],
      "payable": false,
      "stateMutability": "view",
      "type": "function"
    },
    {
      "inputs": [
        {
          "name": "_tokenAddr",
          "type": "address"
        },
        {
          "name": "_plcrAddr",
          "type": "address"
        },
        {
          "name": "_paramsAddr",
          "type": "address"
        }
      ],
      "payable": false,
      "stateMutability": "nonpayable",
      "type": "constructor"
    },
    {
      "anonymous": false,
      "inputs": [
        {
          "indexed": false,
          "name": "listing",
          "type": "string"
        },
        {
          "indexed": false,
          "name": "deposit",
          "type": "uint256"
        }
      ],
      "name": "_Application",
      "type": "event"
    },
    {
      "anonymous": false,
      "inputs": [
        {
          "indexed": false,
          "name": "listing",
          "type": "bytes32"
        },
        {
          "indexed": false,
          "name": "deposit",
          "type": "uint256"
        },
        {
          "indexed": false,
          "name": "pollID",
          "type": "uint256"
        }
      ],
      "name": "_Challenge",
      "type": "event"
    },
    {
      "anonymous": false,
      "inputs": [
        {
          "indexed": false,
          "name": "listing",
          "type": "bytes32"
        },
        {
          "indexed": false,
          "name": "added",
          "type": "uint256"
        },
        {
          "indexed": false,
          "name": "newTotal",
          "type": "uint256"
        }
      ],
      "name": "_Deposit",
      "type": "event"
    },
    {
      "anonymous": false,
      "inputs": [
        {
          "indexed": false,
          "name": "listing",
          "type": "bytes32"
        },
        {
          "indexed": false,
          "name": "withdrew",
          "type": "uint256"
        },
        {
          "indexed": false,
          "name": "newTotal",
          "type": "uint256"
        }
      ],
      "name": "_Withdrawal",
      "type": "event"
    },
    {
      "anonymous": false,
      "inputs": [
        {
          "indexed": false,
          "name": "listing",
          "type": "bytes32"
        }
      ],
      "name": "_NewListingWhitelisted",
      "type": "event"
    },
    {
      "anonymous": false,
      "inputs": [
        {
          "indexed": false,
          "name": "listing",
          "type": "bytes32"
        }
      ],
      "name": "_ApplicationRemoved",
      "type": "event"
    },
    {
      "anonymous": false,
      "inputs": [
        {
          "indexed": false,
          "name": "listing",
          "type": "bytes32"
        }
      ],
      "name": "_ListingRemoved",
      "type": "event"
    },
    {
      "anonymous": false,
      "inputs": [
        {
          "indexed": false,
          "name": "challengeID",
          "type": "uint256"
        }
      ],
      "name": "_ChallengeFailed",
      "type": "event"
    },
    {
      "anonymous": false,
      "inputs": [
        {
          "indexed": false,
          "name": "challengeID",
          "type": "uint256"
        }
      ],
      "name": "_ChallengeSucceeded",
      "type": "event"
    },
    {
      "anonymous": false,
      "inputs": [
        {
          "indexed": false,
          "name": "voter",
          "type": "address"
        },
        {
          "indexed": false,
          "name": "challengeID",
          "type": "uint256"
        },
        {
          "indexed": false,
          "name": "reward",
          "type": "uint256"
        }
      ],
      "name": "_RewardClaimed",
      "type": "event"
    }
  ],
  "bytecode": "0x6060604052341561000f57600080fd5b6040516060806130988339810160405280805190602001909190805190602001909190805190602001909190505082600260006101000a81548173ffffffffffffffffffffffffffffffffffffffff021916908373ffffffffffffffffffffffffffffffffffffffff16021790555081600360006101000a81548173ffffffffffffffffffffffffffffffffffffffff021916908373ffffffffffffffffffffffffffffffffffffffff16021790555080600460006101000a81548173ffffffffffffffffffffffffffffffffffffffff021916908373ffffffffffffffffffffffffffffffffffffffff160217905550505050612f86806101126000396000f300606060405260043610610128576000357c0100000000000000000000000000000000000000000000000000000000900463ffffffff16806301a5e3fe1461012d578063040cf0201461016c5780630ca362631461019c5780631b7bbecb146101c35780631de26e161461020257806350411552146102325780635de28ae014610269578063691a38ab146102a457806377609a41146102e357806386bb8f37146103225780638a59eb561461034e5780638cf8151f146103755780638f1d3776146103b4578063a5ba3b1e146104a4578063a7aad3db146104fe578063bfa535c71461055d578063c18b8db414610594578063cffd46dc1461061b578063d9548e5314610656578063e1e3f91514610691578063fc0c546a146106e6578063fce1ccca1461073b575b600080fd5b341561013857600080fd5b610152600480803560001916906020019091905050610790565b604051808215151515815260200191505060405180910390f35b341561017757600080fd5b61019a6004808035600019169060200190919080359060200190919050506107c5565b005b34156101a757600080fd5b6101c1600480803560001916906020019091905050610aab565b005b34156101ce57600080fd5b6101e8600480803560001916906020019091905050610ca6565b604051808215151515815260200191505060405180910390f35b341561020d57600080fd5b610230600480803560001916906020019091908035906020019091905050610e0c565b005b341561023d57600080fd5b610253600480803590602001909190505061101a565b6040518082815260200191505060405180910390f35b341561027457600080fd5b61028e6004808035600019169060200190919050506110c4565b6040518082815260200191505060405180910390f35b34156102af57600080fd5b6102c9600480803560001916906020019091905050611115565b604051808215151515815260200191505060405180910390f35b34156102ee57600080fd5b6103086004808035600019169060200190919050506112ee565b604051808215151515815260200191505060405180910390f35b341561032d57600080fd5b61034c6004808035906020019091908035906020019091905050611453565b005b341561035957600080fd5b6103736004808035600019169060200190919050506115ac565b005b341561038057600080fd5b61039a60048080356000191690602001909190505061162c565b604051808215151515815260200191505060405180910390f35b34156103bf57600080fd5b6103d56004808035906020019091905050611656565b604051808981526020018873ffffffffffffffffffffffffffffffffffffffff1673ffffffffffffffffffffffffffffffffffffffff1681526020018773ffffffffffffffffffffffffffffffffffffffff1673ffffffffffffffffffffffffffffffffffffffff1681526020018681526020018573ffffffffffffffffffffffffffffffffffffffff1673ffffffffffffffffffffffffffffffffffffffff168152602001841515151581526020018381526020018281526020019850505050505050505060405180910390f35b34156104af57600080fd5b6104e4600480803590602001909190803573ffffffffffffffffffffffffffffffffffffffff1690602001909190505061170b565b604051808215151515815260200191505060405180910390f35b341561050957600080fd5b610547600480803573ffffffffffffffffffffffffffffffffffffffff16906020019091908035906020019091908035906020019091905050611775565b6040518082815260200191505060405180910390f35b341561056857600080fd5b6105926004808035906020019082018035906020019190919290803590602001909190505061185d565b005b341561059f57600080fd5b6105b9600480803560001916906020019091905050611c9f565b60405180868152602001851515151581526020018473ffffffffffffffffffffffffffffffffffffffff1673ffffffffffffffffffffffffffffffffffffffff1681526020018381526020018281526020019550505050505060405180910390f35b341561062657600080fd5b610640600480803560001916906020019091905050611d02565b6040518082815260200191505060405180910390f35b341561066157600080fd5b61067760048080359060200190919050506127e3565b604051808215151515815260200191505060405180910390f35b341561069c57600080fd5b6106a46127ef565b604051808273ffffffffffffffffffffffffffffffffffffffff1673ffffffffffffffffffffffffffffffffffffffff16815260200191505060405180910390f35b34156106f157600080fd5b6106f9612815565b604051808273ffffffffffffffffffffffffffffffffffffffff1673ffffffffffffffffffffffffffffffffffffffff16815260200191505060405180910390f35b341561074657600080fd5b61074e61283b565b604051808273ffffffffffffffffffffffffffffffffffffffff1673ffffffffffffffffffffffffffffffffffffffff16815260200191505060405180910390f35b600060016000836000191660001916815260200190815260200160002060010160009054906101000a900460ff169050919050565b600060016000846000191660001916815260200190815260200160002090503373ffffffffffffffffffffffffffffffffffffffff168160010160019054906101000a900473ffffffffffffffffffffffffffffffffffffffff1673ffffffffffffffffffffffffffffffffffffffff1614151561084257600080fd5b8060020154821115151561085557600080fd5b600460009054906101000a900473ffffffffffffffffffffffffffffffffffffffff1673ffffffffffffffffffffffffffffffffffffffff1663693ec85e6000604051602001526040518163ffffffff167c010000000000000000000000000000000000000000000000000000000002815260040180806020018281038252600a8152602001807f6d696e4465706f73697400000000000000000000000000000000000000000000815250602001915050602060405180830381600087803b151561091f57600080fd5b6102c65a03f1151561093057600080fd5b50505060405180519050828260020154031015151561094e57600080fd5b600260009054906101000a900473ffffffffffffffffffffffffffffffffffffffff1673ffffffffffffffffffffffffffffffffffffffff1663a9059cbb33846000604051602001526040518363ffffffff167c0100000000000000000000000000000000000000000000000000000000028152600401808373ffffffffffffffffffffffffffffffffffffffff1673ffffffffffffffffffffffffffffffffffffffff16815260200182815260200192505050602060405180830381600087803b1515610a1b57600080fd5b6102c65a03f11515610a2c57600080fd5b505050604051805190501515610a4157600080fd5b8181600201600082825403925050819055507febf81d30de8bdb30e2a07a5e34bd7c1b843c5b9674b224113cc6cee0d8571c9283838360020154604051808460001916600019168152602001838152602001828152602001935050505060405180910390a1505050565b600060016000836000191660001916815260200190815260200160002090508060010160019054906101000a900473ffffffffffffffffffffffffffffffffffffffff1673ffffffffffffffffffffffffffffffffffffffff163373ffffffffffffffffffffffffffffffffffffffff16141515610b2857600080fd5b610b3182610790565b1515610b3c57600080fd5b6000808260030154815260200190815260200160002073__Challenge_____________________________63dc0e069b90916000604051602001526040518263ffffffff167c01000000000000000000000000000000000000000000000000000000000281526004018082815260200191505060206040518083038186803b1515610bc657600080fd5b6102c65a03f41515610bd757600080fd5b505050604051805190501580610c8e57506000808260030154815260200190815260200160002073__Challenge_____________________________63456bb3dc90916000604051602001526040518263ffffffff167c01000000000000000000000000000000000000000000000000000000000281526004018082815260200191505060206040518083038186803b1515610c7257600080fd5b6102c65a03f41515610c8357600080fd5b505050604051805190505b1515610c9957600080fd5b610ca282612861565b5050565b60008060008060016000866000191660001916815260200190815260200160002060030154815260200190815260200160002090508073__Challenge_____________________________63dc0e069b90916000604051602001526040518263ffffffff167c01000000000000000000000000000000000000000000000000000000000281526004018082815260200191505060206040518083038186803b1515610d5057600080fd5b6102c65a03f41515610d6157600080fd5b505050604051805190508015610e0457508073__Challenge_____________________________63456bb3dc90916000604051602001526040518263ffffffff167c01000000000000000000000000000000000000000000000000000000000281526004018082815260200191505060206040518083038186803b1515610de757600080fd5b6102c65a03f41515610df857600080fd5b50505060405180519050155b915050919050565b600060016000846000191660001916815260200190815260200160002090503373ffffffffffffffffffffffffffffffffffffffff168160010160019054906101000a900473ffffffffffffffffffffffffffffffffffffffff1673ffffffffffffffffffffffffffffffffffffffff16141515610e8957600080fd5b600260009054906101000a900473ffffffffffffffffffffffffffffffffffffffff1673ffffffffffffffffffffffffffffffffffffffff166323b872dd3330856000604051602001526040518463ffffffff167c0100000000000000000000000000000000000000000000000000000000028152600401808473ffffffffffffffffffffffffffffffffffffffff1673ffffffffffffffffffffffffffffffffffffffff1681526020018373ffffffffffffffffffffffffffffffffffffffff1673ffffffffffffffffffffffffffffffffffffffff1681526020018281526020019350505050602060405180830381600087803b1515610f8a57600080fd5b6102c65a03f11515610f9b57600080fd5b505050604051805190501515610fb057600080fd5b8181600201600082825401925050819055507f77e303d2327bb214eb0f6441b799c7b1de3cea010185c2a27a60cbd774e590c283838360020154604051808460001916600019168152602001838152602001828152602001935050505060405180910390a1505050565b600080600083815260200190815260200160002073__Challenge_____________________________6396093a2790916000604051602001526040518263ffffffff167c01000000000000000000000000000000000000000000000000000000000281526004018082815260200191505060206040518083038186803b15156110a257600080fd5b6102c65a03f415156110b357600080fd5b505050604051805190509050919050565b60006110cf82610790565b156110dd5760039050611110565b6110e682610ca6565b156110f45760029050611110565b6110fd8261162c565b1561110b5760019050611110565b600090505b919050565b6000806001600084600019166000191681526020019081526020016000206003015490506111428361162c565b80156111715750611170600160008560001916600019168152602001908152602001600020600001546127e3565b5b8015611183575061118183610790565b155b80156112d5575060008082815260200190815260200160002073__Challenge_____________________________63dc0e069b90916000604051602001526040518263ffffffff167c01000000000000000000000000000000000000000000000000000000000281526004018082815260200191505060206040518083038186803b151561121057600080fd5b6102c65a03f4151561122157600080fd5b5050506040518051905015806112d4575060008082815260200190815260200160002073__Challenge_____________________________63456bb3dc90916000604051602001526040518263ffffffff167c01000000000000000000000000000000000000000000000000000000000281526004018082815260200191505060206040518083038186803b15156112b857600080fd5b6102c65a03f415156112c957600080fd5b505050604051805190505b5b156112e357600191506112e8565b600091505b50919050565b60008060008060016000866000191660001916815260200190815260200160002060030154815260200190815260200160002090508073__Challenge_____________________________63dc0e069b90916000604051602001526040518263ffffffff167c01000000000000000000000000000000000000000000000000000000000281526004018082815260200191505060206040518083038186803b151561139857600080fd5b6102c65a03f415156113a957600080fd5b50505060405180519050801561144b57508073__Challenge_____________________________630e2edf6e90916000604051602001526040518263ffffffff167c01000000000000000000000000000000000000000000000000000000000281526004018082815260200191505060206040518083038186803b151561142f57600080fd5b6102c65a03f4151561144057600080fd5b505050604051805190505b915050919050565b600080600084815260200190815260200160002073__Challenge_____________________________6382fb3e55909133856000604051602001526040518463ffffffff167c0100000000000000000000000000000000000000000000000000000000028152600401808481526020018373ffffffffffffffffffffffffffffffffffffffff1673ffffffffffffffffffffffffffffffffffffffff168152602001828152602001935050505060206040518083038186803b151561151757600080fd5b6102c65a03f4151561152857600080fd5b5050506040518051905090507f8df5fc7a83008bc089286a6396a5ede7efa20b39ccbac5255b8cc0b7b11b0a59338483604051808473ffffffffffffffffffffffffffffffffffffffff1673ffffffffffffffffffffffffffffffffffffffff168152602001838152602001828152602001935050505060405180910390a1505050565b6115b581611115565b15611607576115c381612a1e565b7fa7dee6157e26f0945c6e2fa27b51c0811370eb1863f1e5285e8dea4291fdd3de8160405180826000191660001916815260200191505060405180910390a1611629565b611610816112ee565b156116235761161e81612a57565b611628565b600080fd5b5b50565b60008060016000846000191660001916815260200190815260200160002060000154119050919050565b60006020528060005260406000206000915090508060000154908060010160009054906101000a900473ffffffffffffffffffffffffffffffffffffffff16908060020160009054906101000a900473ffffffffffffffffffffffffffffffffffffffff16908060030154908060040160009054906101000a900473ffffffffffffffffffffffffffffffffffffffff16908060040160149054906101000a900460ff16908060050154908060060154905088565b600080600084815260200190815260200160002060070160008373ffffffffffffffffffffffffffffffffffffffff1673ffffffffffffffffffffffffffffffffffffffff16815260200190815260200160002060009054906101000a900460ff16905092915050565b600080600084815260200190815260200160002073__Challenge_____________________________63c0d4efb8909186856000604051602001526040518463ffffffff167c0100000000000000000000000000000000000000000000000000000000028152600401808481526020018373ffffffffffffffffffffffffffffffffffffffff1673ffffffffffffffffffffffffffffffffffffffff168152602001828152602001935050505060206040518083038186803b151561183957600080fd5b6102c65a03f4151561184a57600080fd5b5050506040518051905090509392505050565b6000808484604051808383808284378201915050925050506040518091039020915061188882610790565b15151561189457600080fd5b61189d8261162c565b1515156118a957600080fd5b600460009054906101000a900473ffffffffffffffffffffffffffffffffffffffff1673ffffffffffffffffffffffffffffffffffffffff1663693ec85e6000604051602001526040518163ffffffff167c010000000000000000000000000000000000000000000000000000000002815260040180806020018281038252600a8152602001807f6d696e4465706f73697400000000000000000000000000000000000000000000815250602001915050602060405180830381600087803b151561197357600080fd5b6102c65a03f1151561198457600080fd5b50505060405180519050831015151561199c57600080fd5b6001600083600019166000191681526020019081526020016000209050338160010160016101000a81548173ffffffffffffffffffffffffffffffffffffffff021916908373ffffffffffffffffffffffffffffffffffffffff160217905550600260009054906101000a900473ffffffffffffffffffffffffffffffffffffffff1673ffffffffffffffffffffffffffffffffffffffff166323b872dd8260010160019054906101000a900473ffffffffffffffffffffffffffffffffffffffff1630866000604051602001526040518463ffffffff167c0100000000000000000000000000000000000000000000000000000000028152600401808473ffffffffffffffffffffffffffffffffffffffff1673ffffffffffffffffffffffffffffffffffffffff1681526020018373ffffffffffffffffffffffffffffffffffffffff1673ffffffffffffffffffffffffffffffffffffffff1681526020018281526020019350505050602060405180830381600087803b1515611b2157600080fd5b6102c65a03f11515611b3257600080fd5b505050604051805190501515611b4757600080fd5b600460009054906101000a900473ffffffffffffffffffffffffffffffffffffffff1673ffffffffffffffffffffffffffffffffffffffff1663693ec85e6000604051602001526040518163ffffffff167c010000000000000000000000000000000000000000000000000000000002815260040180806020018281038252600d8152602001807f6170706c7953746167654c656e00000000000000000000000000000000000000815250602001915050602060405180830381600087803b1515611c1157600080fd5b6102c65a03f11515611c2257600080fd5b50505060405180519050420181600001819055508281600201819055507f8679b3793e06c33189be2319d77a55df6769e3b9061611d27f1809b3d56d2e6885858560405180806020018381526020018281038252858582818152602001925080828437820191505094505050505060405180910390a15050505050565b60016020528060005260406000206000915090508060000154908060010160009054906101000a900460ff16908060010160019054906101000a900473ffffffffffffffffffffffffffffffffffffffff16908060020154908060030154905085565b6000806000806001600086600019166000191681526020019081526020016000209250600460009054906101000a900473ffffffffffffffffffffffffffffffffffffffff1673ffffffffffffffffffffffffffffffffffffffff1663693ec85e6000604051602001526040518163ffffffff167c010000000000000000000000000000000000000000000000000000000002815260040180806020018281038252600a8152602001807f6d696e4465706f73697400000000000000000000000000000000000000000000815250602001915050602060405180830381600087803b1515611def57600080fd5b6102c65a03f11515611e0057600080fd5b505050604051805190509150611e158561162c565b80611e2e57508260010160009054906101000a900460ff165b1515611e3957600080fd5b6000808460030154815260200190815260200160002073__Challenge_____________________________63dc0e069b90916000604051602001526040518263ffffffff167c01000000000000000000000000000000000000000000000000000000000281526004018082815260200191505060206040518083038186803b1515611ec357600080fd5b6102c65a03f41515611ed457600080fd5b505050604051805190501580611f8b57506000808460030154815260200190815260200160002073__Challenge_____________________________63456bb3dc90916000604051602001526040518263ffffffff167c01000000000000000000000000000000000000000000000000000000000281526004018082815260200191505060206040518083038186803b1515611f6f57600080fd5b6102c65a03f41515611f8057600080fd5b505050604051805190505b1515611f9657600080fd5b8183600201541015611fb457611fab85612861565b600093506127db565b600260009054906101000a900473ffffffffffffffffffffffffffffffffffffffff1673ffffffffffffffffffffffffffffffffffffffff166323b872dd3330856000604051602001526040518463ffffffff167c0100000000000000000000000000000000000000000000000000000000028152600401808473ffffffffffffffffffffffffffffffffffffffff1673ffffffffffffffffffffffffffffffffffffffff1681526020018373ffffffffffffffffffffffffffffffffffffffff1673ffffffffffffffffffffffffffffffffffffffff1681526020018281526020019350505050602060405180830381600087803b15156120b557600080fd5b6102c65a03f115156120c657600080fd5b5050506040518051905015156120db57600080fd5b600360009054906101000a900473ffffffffffffffffffffffffffffffffffffffff1673ffffffffffffffffffffffffffffffffffffffff166332ed3d60600460009054906101000a900473ffffffffffffffffffffffffffffffffffffffff1673ffffffffffffffffffffffffffffffffffffffff1663693ec85e6000604051602001526040518163ffffffff167c010000000000000000000000000000000000000000000000000000000002815260040180806020018281038252600a8152602001807f766f746551756f72756d00000000000000000000000000000000000000000000815250602001915050602060405180830381600087803b15156121e357600080fd5b6102c65a03f115156121f457600080fd5b50505060405180519050600460009054906101000a900473ffffffffffffffffffffffffffffffffffffffff1673ffffffffffffffffffffffffffffffffffffffff1663693ec85e6000604051602001526040518163ffffffff167c010000000000000000000000000000000000000000000000000000000002815260040180806020018281038252600e8152602001807f636f6d6d697453746167654c656e000000000000000000000000000000000000815250602001915050602060405180830381600087803b15156122c857600080fd5b6102c65a03f115156122d957600080fd5b50505060405180519050600460009054906101000a900473ffffffffffffffffffffffffffffffffffffffff1673ffffffffffffffffffffffffffffffffffffffff1663693ec85e6000604051602001526040518163ffffffff167c010000000000000000000000000000000000000000000000000000000002815260040180806020018281038252600e8152602001807f72657665616c53746167654c656e000000000000000000000000000000000000815250602001915050602060405180830381600087803b15156123ad57600080fd5b6102c65a03f115156123be57600080fd5b505050604051805190506000604051602001526040518463ffffffff167c0100000000000000000000000000000000000000000000000000000000028152600401808481526020018381526020018281526020019350505050602060405180830381600087803b151561243057600080fd5b6102c65a03f1151561244157600080fd5b50505060405180519050905061010060405190810160405280606484600460009054906101000a900473ffffffffffffffffffffffffffffffffffffffff1673ffffffffffffffffffffffffffffffffffffffff1663693ec85e6000604051602001526040518163ffffffff167c010000000000000000000000000000000000000000000000000000000002815260040180806020018281038252600f8152602001807f64697370656e736174696f6e5063740000000000000000000000000000000000815250602001915050602060405180830381600087803b151561252757600080fd5b6102c65a03f1151561253857600080fd5b505050604051805190506064030281151561254f57fe5b048152602001600360009054906101000a900473ffffffffffffffffffffffffffffffffffffffff1673ffffffffffffffffffffffffffffffffffffffff168152602001600260009054906101000a900473ffffffffffffffffffffffffffffffffffffffff1673ffffffffffffffffffffffffffffffffffffffff1681526020018281526020013373ffffffffffffffffffffffffffffffffffffffff16815260200160001515815260200183815260200160008152506000808381526020019081526020016000206000820151816000015560208201518160010160006101000a81548173ffffffffffffffffffffffffffffffffffffffff021916908373ffffffffffffffffffffffffffffffffffffffff16021790555060408201518160020160006101000a81548173ffffffffffffffffffffffffffffffffffffffff021916908373ffffffffffffffffffffffffffffffffffffffff1602179055506060820151816003015560808201518160040160006101000a81548173ffffffffffffffffffffffffffffffffffffffff021916908373ffffffffffffffffffffffffffffffffffffffff16021790555060a08201518160040160146101000a81548160ff02191690831515021790555060c0820151816005015560e08201518160060155905050806001600087600019166000191681526020019081526020016000206003018190555081600160008760001916600019168152602001908152602001600020600201600082825403925050819055507f0f3c742173373f77572eb0aa8345fae1504bbd8cdb09713ca3f38e2ee772380e858383604051808460001916600019168152602001838152602001828152602001935050505060405180910390a18093505b505050919050565b60004282109050919050565b600460009054906101000a900473ffffffffffffffffffffffffffffffffffffffff1681565b600260009054906101000a900473ffffffffffffffffffffffffffffffffffffffff1681565b600360009054906101000a900473ffffffffffffffffffffffffffffffffffffffff1681565b600060016000836000191660001916815260200190815260200160002090506000816002015411156129a957600260009054906101000a900473ffffffffffffffffffffffffffffffffffffffff1673ffffffffffffffffffffffffffffffffffffffff1663a9059cbb8260010160019054906101000a900473ffffffffffffffffffffffffffffffffffffffff1683600201546000604051602001526040518363ffffffff167c0100000000000000000000000000000000000000000000000000000000028152600401808373ffffffffffffffffffffffffffffffffffffffff1673ffffffffffffffffffffffffffffffffffffffff16815260200182815260200192505050602060405180830381600087803b151561298257600080fd5b6102c65a03f1151561299357600080fd5b5050506040518051905015156129a857600080fd5b5b6001600083600019166000191681526020019081526020016000206000808201600090556001820160006101000a81549060ff02191690556001820160016101000a81549073ffffffffffffffffffffffffffffffffffffffff02191690556002820160009055600382016000905550505050565b6001806000836000191660001916815260200190815260200160002060010160006101000a81548160ff02191690831515021790555050565b60008060008060016000866000191660001916815260200190815260200160002093506000808560030154815260200190815260200160002092508273__Challenge_____________________________6396093a2790916000604051602001526040518263ffffffff167c01000000000000000000000000000000000000000000000000000000000281526004018082815260200191505060206040518083038186803b1515612b0757600080fd5b6102c65a03f41515612b1857600080fd5b505050604051805190509150612b2d85610790565b9050600360009054906101000a900473ffffffffffffffffffffffffffffffffffffffff1673ffffffffffffffffffffffffffffffffffffffff16634940318384600301546000604051602001526040518263ffffffff167c010000000000000000000000000000000000000000000000000000000002815260040180828152602001915050602060405180830381600087803b1515612bcc57600080fd5b6102c65a03f11515612bdd57600080fd5b5050506040518051905015612c8e57612bf585612a1e565b8184600201600082825401925050819055507f0596bd84e3e7dc311a8d2e32425107e3c27acef96831b8cf2a2abcae2609461f83600301546040518082815260200191505060405180910390a1801515612c89577fa7dee6157e26f0945c6e2fa27b51c0811370eb1863f1e5285e8dea4291fdd3de8560405180826000191660001916815260200191505060405180910390a15b612e74565b612c9785612861565b600260009054906101000a900473ffffffffffffffffffffffffffffffffffffffff1673ffffffffffffffffffffffffffffffffffffffff1663a9059cbb8460040160009054906101000a900473ffffffffffffffffffffffffffffffffffffffff16846000604051602001526040518363ffffffff167c0100000000000000000000000000000000000000000000000000000000028152600401808373ffffffffffffffffffffffffffffffffffffffff1673ffffffffffffffffffffffffffffffffffffffff16815260200182815260200192505050602060405180830381600087803b1515612d8857600080fd5b6102c65a03f11515612d9957600080fd5b505050604051805190501515612dae57600080fd5b7f88e47f2988d22858b92549596d2d6a57f107680fc7dc7dcf9dc52a06159e268c83600301546040518082815260200191505060405180910390a18015612e33577fd1ffb796b7108387b2f02adf47b4b81a1690cf2a190422c87a4f670780103e638560405180826000191660001916815260200191505060405180910390a1612e73565b7f2e5ec035f6eac8ff1cf7cdf36cfeca7c85413f9f67652dc2c13d20f337204a268560405180826000191660001916815260200191505060405180910390a15b5b8260010160009054906101000a900473ffffffffffffffffffffffffffffffffffffffff1673ffffffffffffffffffffffffffffffffffffffff1663053e71a684600301546000604051602001526040518263ffffffff167c010000000000000000000000000000000000000000000000000000000002815260040180828152602001915050602060405180830381600087803b1515612f1357600080fd5b6102c65a03f11515612f2457600080fd5b50505060405180519050836006018190555060018360040160146101000a81548160ff02191690831515021790555050505050505600a165627a7a72305820c01f325fa386d781aeaaa909fd9bfb0be7e2fd5e6cda3bb79ece6a96a321071c0029",
  "source": "pragma solidity ^0.4.11;\n\nimport \"tokens/eip20/EIP20.sol\";\nimport \"./Parameterizer.sol\";\nimport \"./Challenge.sol\";\nimport \"./PLCRVoting.sol\";\n\ncontract Registry {\n\n  // ------\n  // EVENTS\n  // ------\n\n  event _Application(string listing, uint deposit);\n  event _Challenge(bytes32 listing, uint deposit, uint pollID);\n  event _Deposit(bytes32 listing, uint added, uint newTotal);\n  event _Withdrawal(bytes32 listing, uint withdrew, uint newTotal);\n  event _NewListingWhitelisted(bytes32 listing);\n  event _ApplicationRemoved(bytes32 listing);\n  event _ListingRemoved(bytes32 listing);\n  event _ChallengeFailed(uint challengeID);\n  event _ChallengeSucceeded(uint challengeID);\n  event _RewardClaimed(address voter, uint challengeID, uint reward);\n\n  // ------\n  // DATA STRUCTURES\n  // ------\n\n  using Challenge for Challenge.Data;\n\n  struct Listing {\n    uint applicationExpiry; // Expiration date of apply stage\n    bool whitelisted;       // Indicates registry status\n    address owner;          // Owner of Listing\n    uint unstakedDeposit;   // Number of unlocked tokens with potential risk if challenged\n    uint challengeID;       // Identifier of canonical challenge\n  }\n\n  // ------\n  // STATE\n  // ------\n\n  // Maps challengeIDs to associated challenge data\n  mapping(uint => Challenge.Data) public challenges;\n\n  // Maps listingHashes to associated listing data\n  mapping(bytes32 => Listing) public listings;\n\n  // Global Variables\n  EIP20 public token;\n  PLCRVoting public voting;\n  Parameterizer public parameterizer;\n\n  // ------------\n  // CONSTRUCTOR\n  // ------------\n\n  /**\n  @dev Contructor\n  @notice                 Sets the addresses for token, voting, and parameterizer\n  @param _tokenAddr       Address of the native ERC20 token\n  @param _plcrAddr        Address of a PLCR voting contract for the provided token\n  @param _paramsAddr      Address of a Parameterizer contract for the provided PLCR voting contract\n  */\n  function Registry(\n    address _tokenAddr,\n    address _plcrAddr,\n    address _paramsAddr\n  ) public {\n    token = EIP20(_tokenAddr);\n    voting = PLCRVoting(_plcrAddr);\n    parameterizer = Parameterizer(_paramsAddr);\n  }\n\n  // --------------------\n  // PUBLISHER INTERFACE\n  // --------------------\n\n  /**\n  @notice             Allows a user to start an application.\n  @notice             Takes tokens from user and sets apply stage end time.\n  @param _listing     The listing hash of a potential listing a user is applying to add \n  @param _amount      The number of ERC20 tokens a user is willing to potentially stake\n  */\n  function apply(string _listing, uint _amount) external {\n    bytes32 listingHash = keccak256(_listing);\n    require(!isWhitelisted(listingHash));\n    require(!appWasMade(listingHash));\n    require(_amount >= parameterizer.get(\"minDeposit\"));\n\n    // Sets owner\n    Listing storage listing = listings[listingHash];\n    listing.owner = msg.sender;\n\n    // Transfers tokens from user to Registry contract\n    require(token.transferFrom(listing.owner, this, _amount));\n\n    // Sets apply stage end time\n    listing.applicationExpiry = block.timestamp + parameterizer.get(\"applyStageLen\");\n    listing.unstakedDeposit = _amount;\n\n    _Application(_listing, _amount);\n  }\n\n  /**\n  @notice             Allows the owner of a listing to increase their unstaked deposit.\n  @param _listing     The listing hash of a user's application/listing\n  @param _amount      The number of ERC20 tokens to increase a user's unstaked deposit\n  */\n  function deposit(bytes32 _listing, uint _amount) external {\n    Listing storage listing = listings[_listing];\n\n    require(listing.owner == msg.sender);\n    require(token.transferFrom(msg.sender, this, _amount));\n\n    listing.unstakedDeposit += _amount;\n\n    _Deposit(_listing, _amount, listing.unstakedDeposit);\n  }\n\n  /**\n  @notice             Allows the owner of a listing to decrease their unstaked deposit.\n  @notice             The listing keeps its previous status.\n  @param _listing     The listing hash of a user's application/listing\n  @param _amount      The number of ERC20 tokens to decrease a user's unstaked deposit\n  */\n  function withdraw(bytes32 _listing, uint _amount) external {\n    Listing storage listing = listings[_listing];\n\n    require(listing.owner == msg.sender);\n    require(_amount <= listing.unstakedDeposit);\n    require(listing.unstakedDeposit - _amount >= parameterizer.get(\"minDeposit\"));\n\n    require(token.transfer(msg.sender, _amount));\n\n    listing.unstakedDeposit -= _amount;\n\n    _Withdrawal(_listing, _amount, listing.unstakedDeposit);\n  }\n\n  /**\n  @notice             Allows the owner of a listing to remove the listing from the whitelist\n  @notice             Returns all tokens to the owner of the listing\n  @param _listing     The listing hash of a user's listing\n  */\n  function exit(bytes32 _listing) external {\n    Listing storage listing = listings[_listing];\n\n    require(msg.sender == listing.owner);\n    require(isWhitelisted(_listing));\n\n    // Cannot exit during ongoing challenge\n    require(!challenges[listing.challengeID].isInitialized() ||\n            challenges[listing.challengeID].isResolved());\n\n    // Remove listing & return tokens\n    resetListing(_listing);\n  }\n\n  // -----------------------\n  // TOKEN HOLDER INTERFACE\n  // -----------------------\n\n  /**\n  @notice             Starts a poll for a listing which is either\n  @notice             in the apply stage or already in the whitelist.\n  @dev                Tokens are taken from the challenger and the applicant's deposit is locked.\n  @param _listing     The listing hash to be considered\n  */\n  function challenge(bytes32 _listing) external returns (uint challengeID) {\n    Listing storage listing = listings[_listing];\n    uint deposit = parameterizer.get(\"minDeposit\");\n\n    // Listing must be in apply stage or already on the whitelist\n    require(appWasMade(_listing) || listing.whitelisted);\n    // Prevent multiple challenges\n    require(!challenges[listing.challengeID].isInitialized() ||\n            challenges[listing.challengeID].isResolved());\n\n    if (listing.unstakedDeposit < deposit) {\n      // Not enough tokens, listing auto-delisted\n      resetListing(_listing);\n      return 0;\n    }\n\n    // Takes tokens from challenger\n    require(token.transferFrom(msg.sender, this, deposit));\n\n    // Starts poll\n    uint pollID = voting.startPoll(\n      parameterizer.get(\"voteQuorum\"),\n      parameterizer.get(\"commitStageLen\"),\n      parameterizer.get(\"revealStageLen\")\n    );\n\n    challenges[pollID] = Challenge.Data({\n      challenger: msg.sender,\n      voting: voting,\n      token: token,\n      challengeID: pollID,\n      rewardPool: ((100 - parameterizer.get(\"dispensationPct\")) * deposit) / 100,\n      stake: deposit,\n      resolved: false,\n      winningTokens: 0\n    });\n\n    // Updates listing to store most recent challenge\n    listings[_listing].challengeID = pollID;\n\n    // Locks tokens for listing during challenge\n    listings[_listing].unstakedDeposit -= deposit;\n\n    _Challenge(_listing, deposit, pollID);\n    return pollID;\n  }\n\n  /**\n  @notice             Called by a voter to claim his/her reward for each completed vote.\n  @dev                Someone must call updateStatus() before this can be called.\n  @param _challengeID The pollID of the challenge a reward is being claimed for\n  @param _salt        The salt of a voter's commit hash in the given poll\n  */\n  function claimReward(uint _challengeID, uint _salt) public {\n    uint reward = challenges[_challengeID].claimReward(msg.sender, _salt);\n\n    _RewardClaimed(msg.sender, _challengeID, reward);\n  }\n\n  /**\n  @notice             Updates a listing's status from 'application' to 'listing'\n  @notice             or resolves a challenge if one exists.\n  @param _listing      The listing whose status is being updated\n  */\n  function updateStatus(bytes32 _listing) public {\n    if (canBeWhitelisted(_listing)) {\n      whitelistApplication(_listing);\n      _NewListingWhitelisted(_listing);\n    } else if (challengeCanBeResolved(_listing)) {\n      resolveChallenge(_listing);\n    } else {\n      revert();\n    }\n  }\n\n  // --------\n  // GETTERS\n  // --------\n\n  /**\n  @dev                Determines whether the listing hash of an application can be whitelisted.\n  @param _listing     The listing whose status should be examined\n  */\n  function canBeWhitelisted(bytes32 _listing) constant public returns (bool) {\n    uint challengeID = listings[_listing].challengeID;\n\n    // Ensures that the application was made,\n    // the application period has ended,\n    // the listing can be whitelisted,\n    // and either: the challengeID == 0, or the challenge has been resolved.\n    if (\n        appWasMade(_listing) &&\n        isExpired(listings[_listing].applicationExpiry) &&\n        !isWhitelisted(_listing) &&\n        (!challenges[challengeID].isInitialized() || challenges[challengeID].isResolved())\n    ) { return true; }\n\n    return false;\n  }\n\n  // @dev \n  // 0 doesn't exist\n  // 1 application\n  // 2 challenge\n  // 3 registered (whitelist)\n  function getStatus(bytes32 _listing) constant public returns (uint status) {\n    if (isWhitelisted(_listing)) {\n      return 3;\n    } else if (challengeExists(_listing)) {\n      return 2;\n    } else if (appWasMade(_listing)) {\n      return 1;\n    }\n    return 0;\n  }\n\n  /// @dev returns true if listing is whitelisted\n  function isWhitelisted(bytes32 _listing) constant public returns (bool whitelisted) {\n    return listings[_listing].whitelisted;\n  }\n\n  // @dev returns true if apply was called for this listing\n  function appWasMade(bytes32 _listing) constant public returns (bool exists) {\n    return listings[_listing].applicationExpiry > 0;\n  }\n\n  // @dev returns true if the application/listing has an unresolved challenge\n  function challengeExists(bytes32 _listing) constant public returns (bool) {\n    Challenge.Data storage challenge = challenges[listings[_listing].challengeID];\n      return challenge.isInitialized() && !challenge.isResolved();\n  }\n\n  /**\n  @notice             Determines whether voting has concluded in a challenge for a given listing.\n  @dev                Throws if no challenge exists.\n  @param _listing      A listing with an unresolved challenge\n  */\n  function challengeCanBeResolved(bytes32 _listing) constant public returns (bool) {\n    Challenge.Data storage challenge = challenges[listings[_listing].challengeID];\n    return challenge.isInitialized() && challenge.canBeResolved();\n  }\n\n  /**\n  @notice             Determines the number of tokens awarded to the winning party in a challenge.\n  @param _challengeID The challengeID to determine a reward for\n  */\n  function challengeWinnerReward(uint _challengeID) public constant returns (uint) {\n    return challenges[_challengeID].challengeWinnerReward(); \n  }\n\n  /// @dev returns true if the provided termDate has passed\n  function isExpired(uint _termDate) constant public returns (bool expired) {\n    return _termDate < block.timestamp;\n  }\n\n  /**\n  @dev                Calculates the provided voter's token reward for the given poll.\n  @param _voter       The address of the voter whose reward balance is to be returned\n  @param _challengeID The ID of the challenge the voter's reward is being calculated for\n  @param _salt        The salt of the voter's commit hash in the given poll\n  @return             The uint indicating the voter's reward\n  */\n  function voterReward(address _voter, uint _challengeID, uint _salt)\n  public constant returns (uint) {\n    return challenges[_challengeID].voterReward(_voter, _salt);\n  }\n\n  /**\n  @dev                Determines whether the provided voter has claimed tokens in a challenge\n  @param _challengeID The ID of the challenge to determine whether a voter has claimed tokens for\n  @param _voter       The address of the voter whose claim status is to be determined for the\n                      provided challenge.\n  @return             Bool indicating whether the voter has claimed tokens in the provided\n                      challenge\n  */\n  function tokenClaims(uint _challengeID, address _voter)\n  public constant returns (bool) {\n    return challenges[_challengeID].tokenClaims[_voter];\n  }\n\n  // ----------------\n  // PRIVATE FUNCTIONS\n  // ----------------\n\n  /**\n  @dev Determines the winner in a challenge. Rewards the winner tokens and either whitelists or\n  de-whitelists the listing.\n  @param _listing A listing with a challenge that is to be resolved.\n  */\n  function resolveChallenge(bytes32 _listing) private {\n    Listing storage listing = listings[_listing];\n    Challenge.Data storage challenge = challenges[listing.challengeID];\n\n    // Calculates the winner's reward,\n    // which is: (winner's full stake) + (dispensationPct * loser's stake)\n    uint winnerReward = challenge.challengeWinnerReward();\n\n    // Records whether the listing is a listing or an application\n    bool wasWhitelisted = isWhitelisted(_listing);\n\n    // Case: challenge failed\n    if (voting.isPassed(challenge.challengeID)) {\n      whitelistApplication(_listing);\n      // Unlock stake so that it can be retrieved by the applicant\n      listing.unstakedDeposit += winnerReward;\n\n      _ChallengeFailed(challenge.challengeID);\n      if (!wasWhitelisted) { _NewListingWhitelisted(_listing); }\n    }\n    // Case: challenge succeeded\n    else {\n      resetListing(_listing);\n      // Transfer the reward to the challenger\n      require(token.transfer(challenge.challenger, winnerReward));\n\n      _ChallengeSucceeded(challenge.challengeID);\n      if (wasWhitelisted) { _ListingRemoved(_listing); }\n      else { _ApplicationRemoved(_listing); }\n    }\n\n    challenge.winningTokens =\n      challenge.voting.getTotalNumberOfTokensForWinningOption(challenge.challengeID);\n    challenge.resolved = true;\n  }\n\n  /**\n  @dev Called by updateStatus() if the applicationExpiry date passed without a\n  challenge being made\n  @dev Called by resolveChallenge() if an application/listing beat a challenge.\n  @param _listing The listing hash of an application/listing to be whitelisted\n  */\n  function whitelistApplication(bytes32 _listing) private {\n    listings[_listing].whitelisted = true;\n  }\n\n  /**\n  @dev deletes a listing from the whitelist and transfers tokens back to owner\n  @param _listing the listing to be removed\n  */\n  function resetListing(bytes32 _listing) private {\n    Listing storage listing = listings[_listing];\n\n    // Transfers any remaining balance back to the owner\n    if (listing.unstakedDeposit > 0)\n        require(token.transfer(listing.owner, listing.unstakedDeposit));\n\n    delete listings[_listing];\n  }\n\n\n}\n",
  "sourcePath": "/home/isaac/Desktop/Projects/token-curated-registry/contracts/Registry.sol",
  "compiler": {
    "name": "solc",
    "version": "0.4.18+commit.9cf6e910.Emscripten.clang"
  },
  "schemaVersion": "1.0.1",
  "updatedAt": "2018-01-11T07:21:20.058Z"
}