{
  "contractName": "Registry",
  "abi": [
    {
      "constant": true,
      "inputs": [
        {
          "name": "_listing",
          "type": "bytes32"
        }
      ],
      "name": "isWhitelisted",
      "outputs": [
        {
          "name": "whitelisted",
          "type": "bool"
        }
      ],
      "payable": false,
      "stateMutability": "view",
      "type": "function"
    },
    {
      "constant": false,
      "inputs": [
        {
          "name": "_listing",
          "type": "bytes32"
        },
        {
          "name": "_amount",
          "type": "uint256"
        }
      ],
      "name": "withdraw",
      "outputs": [],
      "payable": false,
      "stateMutability": "nonpayable",
      "type": "function"
    },
    {
      "constant": false,
      "inputs": [
        {
          "name": "_listing",
          "type": "bytes32"
        }
      ],
      "name": "exit",
      "outputs": [],
      "payable": false,
      "stateMutability": "nonpayable",
      "type": "function"
    },
    {
      "constant": true,
      "inputs": [
        {
          "name": "_listing",
          "type": "bytes32"
        }
      ],
      "name": "challengeExists",
      "outputs": [
        {
          "name": "",
          "type": "bool"
        }
      ],
      "payable": false,
      "stateMutability": "view",
      "type": "function"
    },
    {
      "constant": false,
      "inputs": [
        {
          "name": "_listing",
          "type": "bytes32"
        },
        {
          "name": "_amount",
          "type": "uint256"
        }
      ],
      "name": "deposit",
      "outputs": [],
      "payable": false,
      "stateMutability": "nonpayable",
      "type": "function"
    },
    {
      "constant": true,
      "inputs": [
        {
          "name": "_listing",
          "type": "bytes32"
        }
      ],
      "name": "getStatus",
      "outputs": [
        {
          "name": "status",
          "type": "uint256"
        }
      ],
      "payable": false,
      "stateMutability": "view",
      "type": "function"
    },
    {
      "constant": true,
      "inputs": [
        {
          "name": "_listing",
          "type": "bytes32"
        }
      ],
      "name": "canBeWhitelisted",
      "outputs": [
        {
          "name": "",
          "type": "bool"
        }
      ],
      "payable": false,
      "stateMutability": "view",
      "type": "function"
    },
    {
      "constant": true,
      "inputs": [
        {
          "name": "_listing",
          "type": "bytes32"
        }
      ],
      "name": "challengeCanBeResolved",
      "outputs": [
        {
          "name": "",
          "type": "bool"
        }
      ],
      "payable": false,
      "stateMutability": "view",
      "type": "function"
    },
    {
      "constant": false,
      "inputs": [
        {
          "name": "_challengeID",
          "type": "uint256"
        },
        {
          "name": "_salt",
          "type": "uint256"
        }
      ],
      "name": "claimReward",
      "outputs": [],
      "payable": false,
      "stateMutability": "nonpayable",
      "type": "function"
    },
    {
      "constant": false,
      "inputs": [
        {
          "name": "_listing",
          "type": "bytes32"
        }
      ],
      "name": "updateStatus",
      "outputs": [],
      "payable": false,
      "stateMutability": "nonpayable",
      "type": "function"
    },
    {
      "constant": true,
      "inputs": [
        {
          "name": "_listing",
          "type": "bytes32"
        }
      ],
      "name": "appWasMade",
      "outputs": [
        {
          "name": "exists",
          "type": "bool"
        }
      ],
      "payable": false,
      "stateMutability": "view",
      "type": "function"
    },
    {
      "constant": true,
      "inputs": [
        {
          "name": "",
          "type": "uint256"
        }
      ],
      "name": "challenges",
      "outputs": [
        {
          "name": "rewardPool",
          "type": "uint256"
        },
        {
          "name": "challenger",
          "type": "address"
        },
        {
          "name": "resolved",
          "type": "bool"
        },
        {
          "name": "stake",
          "type": "uint256"
        },
        {
          "name": "totalTokens",
          "type": "uint256"
        }
      ],
      "payable": false,
      "stateMutability": "view",
      "type": "function"
    },
    {
      "constant": true,
      "inputs": [
        {
          "name": "_challengeID",
          "type": "uint256"
        },
        {
          "name": "_voter",
          "type": "address"
        }
      ],
      "name": "tokenClaims",
      "outputs": [
        {
          "name": "",
          "type": "bool"
        }
      ],
      "payable": false,
      "stateMutability": "view",
      "type": "function"
    },
    {
      "constant": true,
      "inputs": [
        {
          "name": "_voter",
          "type": "address"
        },
        {
          "name": "_challengeID",
          "type": "uint256"
        },
        {
          "name": "_salt",
          "type": "uint256"
        }
      ],
      "name": "voterReward",
      "outputs": [
        {
          "name": "",
          "type": "uint256"
        }
      ],
      "payable": false,
      "stateMutability": "view",
      "type": "function"
    },
    {
      "constant": false,
      "inputs": [
        {
          "name": "_listing",
          "type": "string"
        },
        {
          "name": "_amount",
          "type": "uint256"
        }
      ],
      "name": "apply",
      "outputs": [],
      "payable": false,
      "stateMutability": "nonpayable",
      "type": "function"
    },
    {
      "constant": true,
      "inputs": [
        {
          "name": "",
          "type": "bytes32"
        }
      ],
      "name": "listings",
      "outputs": [
        {
          "name": "applicationExpiry",
          "type": "uint256"
        },
        {
          "name": "whitelisted",
          "type": "bool"
        },
        {
          "name": "owner",
          "type": "address"
        },
        {
          "name": "unstakedDeposit",
          "type": "uint256"
        },
        {
          "name": "challengeID",
          "type": "uint256"
        }
      ],
      "payable": false,
      "stateMutability": "view",
      "type": "function"
    },
    {
      "constant": true,
      "inputs": [
        {
          "name": "_challengeID",
          "type": "uint256"
        }
      ],
      "name": "determineReward",
      "outputs": [
        {
          "name": "",
          "type": "uint256"
        }
      ],
      "payable": false,
      "stateMutability": "view",
      "type": "function"
    },
    {
      "constant": false,
      "inputs": [
        {
          "name": "_listing",
          "type": "bytes32"
        }
      ],
      "name": "challenge",
      "outputs": [
        {
          "name": "challengeID",
          "type": "uint256"
        }
      ],
      "payable": false,
      "stateMutability": "nonpayable",
      "type": "function"
    },
    {
      "constant": true,
      "inputs": [
        {
          "name": "_termDate",
          "type": "uint256"
        }
      ],
      "name": "isExpired",
      "outputs": [
        {
          "name": "expired",
          "type": "bool"
        }
      ],
      "payable": false,
      "stateMutability": "view",
      "type": "function"
    },
    {
      "constant": true,
      "inputs": [],
      "name": "parameterizer",
      "outputs": [
        {
          "name": "",
          "type": "address"
        }
      ],
      "payable": false,
      "stateMutability": "view",
      "type": "function"
    },
    {
      "constant": true,
      "inputs": [],
      "name": "token",
      "outputs": [
        {
          "name": "",
          "type": "address"
        }
      ],
      "payable": false,
      "stateMutability": "view",
      "type": "function"
    },
    {
      "constant": true,
      "inputs": [],
      "name": "voting",
      "outputs": [
        {
          "name": "",
          "type": "address"
        }
      ],
      "payable": false,
      "stateMutability": "view",
      "type": "function"
    },
    {
      "inputs": [
        {
          "name": "_tokenAddr",
          "type": "address"
        },
        {
          "name": "_plcrAddr",
          "type": "address"
        },
        {
          "name": "_paramsAddr",
          "type": "address"
        }
      ],
      "payable": false,
      "stateMutability": "nonpayable",
      "type": "constructor"
    },
    {
      "anonymous": false,
      "inputs": [
        {
          "indexed": false,
          "name": "listing",
          "type": "string"
        },
        {
          "indexed": false,
          "name": "deposit",
          "type": "uint256"
        }
      ],
      "name": "_Application",
      "type": "event"
    },
    {
      "anonymous": false,
      "inputs": [
        {
          "indexed": false,
          "name": "listing",
          "type": "bytes32"
        },
        {
          "indexed": false,
          "name": "deposit",
          "type": "uint256"
        },
        {
          "indexed": false,
          "name": "pollID",
          "type": "uint256"
        }
      ],
      "name": "_Challenge",
      "type": "event"
    },
    {
      "anonymous": false,
      "inputs": [
        {
          "indexed": false,
          "name": "listing",
          "type": "bytes32"
        },
        {
          "indexed": false,
          "name": "added",
          "type": "uint256"
        },
        {
          "indexed": false,
          "name": "newTotal",
          "type": "uint256"
        }
      ],
      "name": "_Deposit",
      "type": "event"
    },
    {
      "anonymous": false,
      "inputs": [
        {
          "indexed": false,
          "name": "listing",
          "type": "bytes32"
        },
        {
          "indexed": false,
          "name": "withdrew",
          "type": "uint256"
        },
        {
          "indexed": false,
          "name": "newTotal",
          "type": "uint256"
        }
      ],
      "name": "_Withdrawal",
      "type": "event"
    },
    {
      "anonymous": false,
      "inputs": [
        {
          "indexed": false,
          "name": "listing",
          "type": "bytes32"
        }
      ],
      "name": "_NewListingWhitelisted",
      "type": "event"
    },
    {
      "anonymous": false,
      "inputs": [
        {
          "indexed": false,
          "name": "listing",
          "type": "bytes32"
        }
      ],
      "name": "_ApplicationRemoved",
      "type": "event"
    },
    {
      "anonymous": false,
      "inputs": [
        {
          "indexed": false,
          "name": "listing",
          "type": "bytes32"
        }
      ],
      "name": "_ListingRemoved",
      "type": "event"
    },
    {
      "anonymous": false,
      "inputs": [
        {
          "indexed": false,
          "name": "challengeID",
          "type": "uint256"
        }
      ],
      "name": "_ChallengeFailed",
      "type": "event"
    },
    {
      "anonymous": false,
      "inputs": [
        {
          "indexed": false,
          "name": "challengeID",
          "type": "uint256"
        }
      ],
      "name": "_ChallengeSucceeded",
      "type": "event"
    },
    {
      "anonymous": false,
      "inputs": [
        {
          "indexed": false,
          "name": "voter",
          "type": "address"
        },
        {
          "indexed": false,
          "name": "challengeID",
          "type": "uint256"
        },
        {
          "indexed": false,
          "name": "reward",
          "type": "uint256"
        }
      ],
      "name": "_RewardClaimed",
      "type": "event"
    }
  ],
  "bytecode": "0x6060604052341561000f57600080fd5b604051606080612dd08339810160405280805190602001909190805190602001909190805190602001909190505082600260006101000a81548173ffffffffffffffffffffffffffffffffffffffff021916908373ffffffffffffffffffffffffffffffffffffffff16021790555081600360006101000a81548173ffffffffffffffffffffffffffffffffffffffff021916908373ffffffffffffffffffffffffffffffffffffffff16021790555080600460006101000a81548173ffffffffffffffffffffffffffffffffffffffff021916908373ffffffffffffffffffffffffffffffffffffffff160217905550505050612cbe806101126000396000f300606060405260043610610128576000357c0100000000000000000000000000000000000000000000000000000000900463ffffffff16806301a5e3fe1461012d578063040cf0201461016c5780630ca362631461019c5780631b7bbecb146101c35780631de26e16146102025780635de28ae014610232578063691a38ab1461026d57806377609a41146102ac57806386bb8f37146102eb5780638a59eb56146103175780638cf8151f1461033e5780638f1d37761461037d578063a5ba3b1e14610400578063a7aad3db1461045a578063bfa535c7146104b9578063c18b8db4146104f0578063c8187cf114610577578063cffd46dc146105ae578063d9548e53146105e9578063e1e3f91514610624578063fc0c546a14610679578063fce1ccca146106ce575b600080fd5b341561013857600080fd5b610152600480803560001916906020019091905050610723565b604051808215151515815260200191505060405180910390f35b341561017757600080fd5b61019a600480803560001916906020019091908035906020019091905050610758565b005b34156101a757600080fd5b6101c1600480803560001916906020019091905050610a3e565b005b34156101ce57600080fd5b6101e8600480803560001916906020019091905050610b1d565b604051808215151515815260200191505060405180910390f35b341561020d57600080fd5b610230600480803560001916906020019091908035906020019091905050610b97565b005b341561023d57600080fd5b610257600480803560001916906020019091905050610da5565b6040518082815260200191505060405180910390f35b341561027857600080fd5b610292600480803560001916906020019091905050610df6565b604051808215151515815260200191505060405180910390f35b34156102b757600080fd5b6102d1600480803560001916906020019091905050610eba565b604051808215151515815260200191505060405180910390f35b34156102f657600080fd5b6103156004808035906020019091908035906020019091905050610fae565b005b341561032257600080fd5b61033c600480803560001916906020019091905050611374565b005b341561034957600080fd5b6103636004808035600019169060200190919050506113f4565b604051808215151515815260200191505060405180910390f35b341561038857600080fd5b61039e600480803590602001909190505061141e565b604051808681526020018573ffffffffffffffffffffffffffffffffffffffff1673ffffffffffffffffffffffffffffffffffffffff168152602001841515151581526020018381526020018281526020019550505050505060405180910390f35b341561040b57600080fd5b610440600480803590602001909190803573ffffffffffffffffffffffffffffffffffffffff16906020019091905050611481565b604051808215151515815260200191505060405180910390f35b341561046557600080fd5b6104a3600480803573ffffffffffffffffffffffffffffffffffffffff169060200190919080359060200190919080359060200190919050506114eb565b6040518082815260200191505060405180910390f35b34156104c457600080fd5b6104ee6004808035906020019082018035906020019190919290803590602001909190505061162d565b005b34156104fb57600080fd5b610515600480803560001916906020019091905050611a6f565b60405180868152602001851515151581526020018473ffffffffffffffffffffffffffffffffffffffff1673ffffffffffffffffffffffffffffffffffffffff1681526020018381526020018281526020019550505050505060405180910390f35b341561058257600080fd5b6105986004808035906020019091905050611ad2565b6040518082815260200191505060405180910390f35b34156105b957600080fd5b6105d3600480803560001916906020019091905050611cd3565b6040518082815260200191505060405180910390f35b34156105f457600080fd5b61060a600480803590602001909190505061257d565b604051808215151515815260200191505060405180910390f35b341561062f57600080fd5b610637612589565b604051808273ffffffffffffffffffffffffffffffffffffffff1673ffffffffffffffffffffffffffffffffffffffff16815260200191505060405180910390f35b341561068457600080fd5b61068c6125af565b604051808273ffffffffffffffffffffffffffffffffffffffff1673ffffffffffffffffffffffffffffffffffffffff16815260200191505060405180910390f35b34156106d957600080fd5b6106e16125d5565b604051808273ffffffffffffffffffffffffffffffffffffffff1673ffffffffffffffffffffffffffffffffffffffff16815260200191505060405180910390f35b600060016000836000191660001916815260200190815260200160002060010160009054906101000a900460ff169050919050565b600060016000846000191660001916815260200190815260200160002090503373ffffffffffffffffffffffffffffffffffffffff168160010160019054906101000a900473ffffffffffffffffffffffffffffffffffffffff1673ffffffffffffffffffffffffffffffffffffffff161415156107d557600080fd5b806002015482111515156107e857600080fd5b600460009054906101000a900473ffffffffffffffffffffffffffffffffffffffff1673ffffffffffffffffffffffffffffffffffffffff1663693ec85e6000604051602001526040518163ffffffff167c010000000000000000000000000000000000000000000000000000000002815260040180806020018281038252600a8152602001807f6d696e4465706f73697400000000000000000000000000000000000000000000815250602001915050602060405180830381600087803b15156108b257600080fd5b6102c65a03f115156108c357600080fd5b5050506040518051905082826002015403101515156108e157600080fd5b600260009054906101000a900473ffffffffffffffffffffffffffffffffffffffff1673ffffffffffffffffffffffffffffffffffffffff1663a9059cbb33846000604051602001526040518363ffffffff167c0100000000000000000000000000000000000000000000000000000000028152600401808373ffffffffffffffffffffffffffffffffffffffff1673ffffffffffffffffffffffffffffffffffffffff16815260200182815260200192505050602060405180830381600087803b15156109ae57600080fd5b6102c65a03f115156109bf57600080fd5b5050506040518051905015156109d457600080fd5b8181600201600082825403925050819055507febf81d30de8bdb30e2a07a5e34bd7c1b843c5b9674b224113cc6cee0d8571c9283838360020154604051808460001916600019168152602001838152602001828152602001935050505060405180910390a1505050565b600060016000836000191660001916815260200190815260200160002090508060010160019054906101000a900473ffffffffffffffffffffffffffffffffffffffff1673ffffffffffffffffffffffffffffffffffffffff163373ffffffffffffffffffffffffffffffffffffffff16141515610abb57600080fd5b610ac482610723565b1515610acf57600080fd5b600081600301541480610b0557506000808260030154815260200190815260200160002060010160149054906101000a900460ff165b1515610b1057600080fd5b610b19826125fb565b5050565b600080600160008460001916600019168152602001908152602001600020600301549050600060016000856000191660001916815260200190815260200160002060030154118015610b8f575060008082815260200190815260200160002060010160149054906101000a900460ff16155b915050919050565b600060016000846000191660001916815260200190815260200160002090503373ffffffffffffffffffffffffffffffffffffffff168160010160019054906101000a900473ffffffffffffffffffffffffffffffffffffffff1673ffffffffffffffffffffffffffffffffffffffff16141515610c1457600080fd5b600260009054906101000a900473ffffffffffffffffffffffffffffffffffffffff1673ffffffffffffffffffffffffffffffffffffffff166323b872dd3330856000604051602001526040518463ffffffff167c0100000000000000000000000000000000000000000000000000000000028152600401808473ffffffffffffffffffffffffffffffffffffffff1673ffffffffffffffffffffffffffffffffffffffff1681526020018373ffffffffffffffffffffffffffffffffffffffff1673ffffffffffffffffffffffffffffffffffffffff1681526020018281526020019350505050602060405180830381600087803b1515610d1557600080fd5b6102c65a03f11515610d2657600080fd5b505050604051805190501515610d3b57600080fd5b8181600201600082825401925050819055507f77e303d2327bb214eb0f6441b799c7b1de3cea010185c2a27a60cbd774e590c283838360020154604051808460001916600019168152602001838152602001828152602001935050505060405180910390a1505050565b6000610db082610723565b15610dbe5760039050610df1565b610dc782610b1d565b15610dd55760029050610df1565b610dde826113f4565b15610dec5760019050610df1565b600090505b919050565b600080600160008460001916600019168152602001908152602001600020600301549050610e23836113f4565b8015610e525750610e516001600085600019166000191681526020019081526020016000206000015461257d565b5b8015610e645750610e6283610723565b155b8015610ea157506000811480610ea057506001151560008083815260200190815260200160002060010160149054906101000a900460ff161515145b5b15610eaf5760019150610eb4565b600091505b50919050565b600080600160008460001916600019168152602001908152602001600020600301549050610ee783610b1d565b1515610ef257600080fd5b600360009054906101000a900473ffffffffffffffffffffffffffffffffffffffff1673ffffffffffffffffffffffffffffffffffffffff1663ee684830826000604051602001526040518263ffffffff167c010000000000000000000000000000000000000000000000000000000002815260040180828152602001915050602060405180830381600087803b1515610f8b57600080fd5b6102c65a03f11515610f9c57600080fd5b50505060405180519050915050919050565b6000806000151560008086815260200190815260200160002060040160003373ffffffffffffffffffffffffffffffffffffffff1673ffffffffffffffffffffffffffffffffffffffff16815260200190815260200160002060009054906101000a900460ff16151514151561102357600080fd5b6001151560008086815260200190815260200160002060010160149054906101000a900460ff16151514151561105857600080fd5b600360009054906101000a900473ffffffffffffffffffffffffffffffffffffffff1673ffffffffffffffffffffffffffffffffffffffff1663b43bd0693386866000604051602001526040518463ffffffff167c0100000000000000000000000000000000000000000000000000000000028152600401808473ffffffffffffffffffffffffffffffffffffffff1673ffffffffffffffffffffffffffffffffffffffff1681526020018381526020018281526020019350505050602060405180830381600087803b151561112d57600080fd5b6102c65a03f1151561113e57600080fd5b5050506040518051905091506111553385856114eb565b905081600080868152602001908152602001600020600301600082825403925050819055508060008086815260200190815260200160002060000160008282540392505081905550600260009054906101000a900473ffffffffffffffffffffffffffffffffffffffff1673ffffffffffffffffffffffffffffffffffffffff1663a9059cbb33836000604051602001526040518363ffffffff167c0100000000000000000000000000000000000000000000000000000000028152600401808373ffffffffffffffffffffffffffffffffffffffff1673ffffffffffffffffffffffffffffffffffffffff16815260200182815260200192505050602060405180830381600087803b151561126a57600080fd5b6102c65a03f1151561127b57600080fd5b50505060405180519050151561129057600080fd5b600160008086815260200190815260200160002060040160003373ffffffffffffffffffffffffffffffffffffffff1673ffffffffffffffffffffffffffffffffffffffff16815260200190815260200160002060006101000a81548160ff0219169083151502179055507f8df5fc7a83008bc089286a6396a5ede7efa20b39ccbac5255b8cc0b7b11b0a59338583604051808473ffffffffffffffffffffffffffffffffffffffff1673ffffffffffffffffffffffffffffffffffffffff168152602001838152602001828152602001935050505060405180910390a150505050565b61137d81610df6565b156113cf5761138b816127b8565b7fa7dee6157e26f0945c6e2fa27b51c0811370eb1863f1e5285e8dea4291fdd3de8160405180826000191660001916815260200191505060405180910390a16113f1565b6113d881610eba565b156113eb576113e6816127f1565b6113f0565b600080fd5b5b50565b60008060016000846000191660001916815260200190815260200160002060000154119050919050565b60006020528060005260406000206000915090508060000154908060010160009054906101000a900473ffffffffffffffffffffffffffffffffffffffff16908060010160149054906101000a900460ff16908060020154908060030154905085565b600080600084815260200190815260200160002060040160008373ffffffffffffffffffffffffffffffffffffffff1673ffffffffffffffffffffffffffffffffffffffff16815260200190815260200160002060009054906101000a900460ff16905092915050565b600080600080600080878152602001908152602001600020600301549250600080878152602001908152602001600020600001549150600360009054906101000a900473ffffffffffffffffffffffffffffffffffffffff1673ffffffffffffffffffffffffffffffffffffffff1663b43bd0698888886000604051602001526040518463ffffffff167c0100000000000000000000000000000000000000000000000000000000028152600401808473ffffffffffffffffffffffffffffffffffffffff1673ffffffffffffffffffffffffffffffffffffffff1681526020018381526020018281526020019350505050602060405180830381600087803b15156115f657600080fd5b6102c65a03f1151561160757600080fd5b5050506040518051905090508282820281151561162057fe5b0493505050509392505050565b6000808484604051808383808284378201915050925050506040518091039020915061165882610723565b15151561166457600080fd5b61166d826113f4565b15151561167957600080fd5b600460009054906101000a900473ffffffffffffffffffffffffffffffffffffffff1673ffffffffffffffffffffffffffffffffffffffff1663693ec85e6000604051602001526040518163ffffffff167c010000000000000000000000000000000000000000000000000000000002815260040180806020018281038252600a8152602001807f6d696e4465706f73697400000000000000000000000000000000000000000000815250602001915050602060405180830381600087803b151561174357600080fd5b6102c65a03f1151561175457600080fd5b50505060405180519050831015151561176c57600080fd5b6001600083600019166000191681526020019081526020016000209050338160010160016101000a81548173ffffffffffffffffffffffffffffffffffffffff021916908373ffffffffffffffffffffffffffffffffffffffff160217905550600260009054906101000a900473ffffffffffffffffffffffffffffffffffffffff1673ffffffffffffffffffffffffffffffffffffffff166323b872dd8260010160019054906101000a900473ffffffffffffffffffffffffffffffffffffffff1630866000604051602001526040518463ffffffff167c0100000000000000000000000000000000000000000000000000000000028152600401808473ffffffffffffffffffffffffffffffffffffffff1673ffffffffffffffffffffffffffffffffffffffff1681526020018373ffffffffffffffffffffffffffffffffffffffff1673ffffffffffffffffffffffffffffffffffffffff1681526020018281526020019350505050602060405180830381600087803b15156118f157600080fd5b6102c65a03f1151561190257600080fd5b50505060405180519050151561191757600080fd5b600460009054906101000a900473ffffffffffffffffffffffffffffffffffffffff1673ffffffffffffffffffffffffffffffffffffffff1663693ec85e6000604051602001526040518163ffffffff167c010000000000000000000000000000000000000000000000000000000002815260040180806020018281038252600d8152602001807f6170706c7953746167654c656e00000000000000000000000000000000000000815250602001915050602060405180830381600087803b15156119e157600080fd5b6102c65a03f115156119f257600080fd5b50505060405180519050420181600001819055508281600201819055507f8679b3793e06c33189be2319d77a55df6769e3b9061611d27f1809b3d56d2e6885858560405180806020018381526020018281038252858582818152602001925080828437820191505094505050505060405180910390a15050505050565b60016020528060005260406000206000915090508060000154908060010160009054906101000a900460ff16908060010160019054906101000a900473ffffffffffffffffffffffffffffffffffffffff16908060020154908060030154905085565b600080600083815260200190815260200160002060010160149054906101000a900460ff16158015611bb45750600360009054906101000a900473ffffffffffffffffffffffffffffffffffffffff1673ffffffffffffffffffffffffffffffffffffffff1663ee684830836000604051602001526040518263ffffffff167c010000000000000000000000000000000000000000000000000000000002815260040180828152602001915050602060405180830381600087803b1515611b9857600080fd5b6102c65a03f11515611ba957600080fd5b505050604051805190505b1515611bbf57600080fd5b6000600360009054906101000a900473ffffffffffffffffffffffffffffffffffffffff1673ffffffffffffffffffffffffffffffffffffffff1663053e71a6846000604051602001526040518263ffffffff167c010000000000000000000000000000000000000000000000000000000002815260040180828152602001915050602060405180830381600087803b1515611c5a57600080fd5b6102c65a03f11515611c6b57600080fd5b505050604051805190501415611c9b57600080838152602001908152602001600020600201546002029050611cce565b60008083815260200190815260200160002060000154600080848152602001908152602001600020600201546002020390505b919050565b6000806000806001600086600019166000191681526020019081526020016000209250600460009054906101000a900473ffffffffffffffffffffffffffffffffffffffff1673ffffffffffffffffffffffffffffffffffffffff1663693ec85e6000604051602001526040518163ffffffff167c010000000000000000000000000000000000000000000000000000000002815260040180806020018281038252600a8152602001807f6d696e4465706f73697400000000000000000000000000000000000000000000815250602001915050602060405180830381600087803b1515611dc057600080fd5b6102c65a03f11515611dd157600080fd5b505050604051805190509150611de6856113f4565b80611dff57508260010160009054906101000a900460ff165b1515611e0a57600080fd5b600083600301541480611e4057506000808460030154815260200190815260200160002060010160149054906101000a900460ff165b1515611e4b57600080fd5b8183600201541015611e6957611e60856125fb565b60009350612575565b600260009054906101000a900473ffffffffffffffffffffffffffffffffffffffff1673ffffffffffffffffffffffffffffffffffffffff166323b872dd3330856000604051602001526040518463ffffffff167c0100000000000000000000000000000000000000000000000000000000028152600401808473ffffffffffffffffffffffffffffffffffffffff1673ffffffffffffffffffffffffffffffffffffffff1681526020018373ffffffffffffffffffffffffffffffffffffffff1673ffffffffffffffffffffffffffffffffffffffff1681526020018281526020019350505050602060405180830381600087803b1515611f6a57600080fd5b6102c65a03f11515611f7b57600080fd5b505050604051805190501515611f9057600080fd5b600360009054906101000a900473ffffffffffffffffffffffffffffffffffffffff1673ffffffffffffffffffffffffffffffffffffffff166332ed3d60600460009054906101000a900473ffffffffffffffffffffffffffffffffffffffff1673ffffffffffffffffffffffffffffffffffffffff1663693ec85e6000604051602001526040518163ffffffff167c010000000000000000000000000000000000000000000000000000000002815260040180806020018281038252600a8152602001807f766f746551756f72756d00000000000000000000000000000000000000000000815250602001915050602060405180830381600087803b151561209857600080fd5b6102c65a03f115156120a957600080fd5b50505060405180519050600460009054906101000a900473ffffffffffffffffffffffffffffffffffffffff1673ffffffffffffffffffffffffffffffffffffffff1663693ec85e6000604051602001526040518163ffffffff167c010000000000000000000000000000000000000000000000000000000002815260040180806020018281038252600e8152602001807f636f6d6d697453746167654c656e000000000000000000000000000000000000815250602001915050602060405180830381600087803b151561217d57600080fd5b6102c65a03f1151561218e57600080fd5b50505060405180519050600460009054906101000a900473ffffffffffffffffffffffffffffffffffffffff1673ffffffffffffffffffffffffffffffffffffffff1663693ec85e6000604051602001526040518163ffffffff167c010000000000000000000000000000000000000000000000000000000002815260040180806020018281038252600e8152602001807f72657665616c53746167654c656e000000000000000000000000000000000000815250602001915050602060405180830381600087803b151561226257600080fd5b6102c65a03f1151561227357600080fd5b505050604051805190506000604051602001526040518463ffffffff167c0100000000000000000000000000000000000000000000000000000000028152600401808481526020018381526020018281526020019350505050602060405180830381600087803b15156122e557600080fd5b6102c65a03f115156122f657600080fd5b50505060405180519050905060a060405190810160405280606484600460009054906101000a900473ffffffffffffffffffffffffffffffffffffffff1673ffffffffffffffffffffffffffffffffffffffff1663693ec85e6000604051602001526040518163ffffffff167c010000000000000000000000000000000000000000000000000000000002815260040180806020018281038252600f8152602001807f64697370656e736174696f6e5063740000000000000000000000000000000000815250602001915050602060405180830381600087803b15156123db57600080fd5b6102c65a03f115156123ec57600080fd5b505050604051805190506064030281151561240357fe5b0481526020013373ffffffffffffffffffffffffffffffffffffffff16815260200160001515815260200183815260200160008152506000808381526020019081526020016000206000820151816000015560208201518160010160006101000a81548173ffffffffffffffffffffffffffffffffffffffff021916908373ffffffffffffffffffffffffffffffffffffffff16021790555060408201518160010160146101000a81548160ff0219169083151502179055506060820151816002015560808201518160030155905050806001600087600019166000191681526020019081526020016000206003018190555081600160008760001916600019168152602001908152602001600020600201600082825403925050819055507f0f3c742173373f77572eb0aa8345fae1504bbd8cdb09713ca3f38e2ee772380e858383604051808460001916600019168152602001838152602001828152602001935050505060405180910390a18093505b505050919050565b60004282109050919050565b600460009054906101000a900473ffffffffffffffffffffffffffffffffffffffff1681565b600260009054906101000a900473ffffffffffffffffffffffffffffffffffffffff1681565b600360009054906101000a900473ffffffffffffffffffffffffffffffffffffffff1681565b6000600160008360001916600019168152602001908152602001600020905060008160020154111561274357600260009054906101000a900473ffffffffffffffffffffffffffffffffffffffff1673ffffffffffffffffffffffffffffffffffffffff1663a9059cbb8260010160019054906101000a900473ffffffffffffffffffffffffffffffffffffffff1683600201546000604051602001526040518363ffffffff167c0100000000000000000000000000000000000000000000000000000000028152600401808373ffffffffffffffffffffffffffffffffffffffff1673ffffffffffffffffffffffffffffffffffffffff16815260200182815260200192505050602060405180830381600087803b151561271c57600080fd5b6102c65a03f1151561272d57600080fd5b50505060405180519050151561274257600080fd5b5b6001600083600019166000191681526020019081526020016000206000808201600090556001820160006101000a81549060ff02191690556001820160016101000a81549073ffffffffffffffffffffffffffffffffffffffff02191690556002820160009055600382016000905550505050565b6001806000836000191660001916815260200190815260200160002060010160006101000a81548160ff02191690831515021790555050565b600080600060016000856000191660001916815260200190815260200160002060030154925061282083611ad2565b915061282b84610723565b9050600360009054906101000a900473ffffffffffffffffffffffffffffffffffffffff1673ffffffffffffffffffffffffffffffffffffffff166349403183846000604051602001526040518263ffffffff167c010000000000000000000000000000000000000000000000000000000002815260040180828152602001915050602060405180830381600087803b15156128c657600080fd5b6102c65a03f115156128d757600080fd5b505050604051805190501561299e576128ef846127b8565b81600160008660001916600019168152602001908152602001600020600201600082825401925050819055507f0596bd84e3e7dc311a8d2e32425107e3c27acef96831b8cf2a2abcae2609461f836040518082815260200191505060405180910390a1801515612999577fa7dee6157e26f0945c6e2fa27b51c0811370eb1863f1e5285e8dea4291fdd3de8460405180826000191660001916815260200191505060405180910390a15b612b91565b6129a7846125fb565b600260009054906101000a900473ffffffffffffffffffffffffffffffffffffffff1673ffffffffffffffffffffffffffffffffffffffff1663a9059cbb60008086815260200190815260200160002060010160009054906101000a900473ffffffffffffffffffffffffffffffffffffffff16846000604051602001526040518363ffffffff167c0100000000000000000000000000000000000000000000000000000000028152600401808373ffffffffffffffffffffffffffffffffffffffff1673ffffffffffffffffffffffffffffffffffffffff16815260200182815260200192505050602060405180830381600087803b1515612aa957600080fd5b6102c65a03f11515612aba57600080fd5b505050604051805190501515612acf57600080fd5b7f88e47f2988d22858b92549596d2d6a57f107680fc7dc7dcf9dc52a06159e268c836040518082815260200191505060405180910390a18015612b50577fd1ffb796b7108387b2f02adf47b4b81a1690cf2a190422c87a4f670780103e638460405180826000191660001916815260200191505060405180910390a1612b90565b7f2e5ec035f6eac8ff1cf7cdf36cfeca7c85413f9f67652dc2c13d20f337204a268460405180826000191660001916815260200191505060405180910390a15b5b600160008085815260200190815260200160002060010160146101000a81548160ff021916908315150217905550600360009054906101000a900473ffffffffffffffffffffffffffffffffffffffff1673ffffffffffffffffffffffffffffffffffffffff1663053e71a6846000604051602001526040518263ffffffff167c010000000000000000000000000000000000000000000000000000000002815260040180828152602001915050602060405180830381600087803b1515612c5857600080fd5b6102c65a03f11515612c6957600080fd5b5050506040518051905060008085815260200190815260200160002060030181905550505050505600a165627a7a7230582046a3fc63bdd92cf3ecb1a8fa152a69ad2999b61f5d46f29c9663edc1c1423fc10029",
  "source": "pragma solidity ^0.4.11;\n\nimport \"tokens/eip20/EIP20.sol\";\nimport \"./Parameterizer.sol\";\nimport \"./PLCRVoting.sol\";\n\ncontract Registry {\n\n    // ------\n    // EVENTS\n    // ------\n\n    event _Application(string listing, uint deposit);\n    event _Challenge(bytes32 listing, uint deposit, uint pollID);\n    event _Deposit(bytes32 listing, uint added, uint newTotal);\n    event _Withdrawal(bytes32 listing, uint withdrew, uint newTotal);\n    event _NewListingWhitelisted(bytes32 listing);\n    event _ApplicationRemoved(bytes32 listing);\n    event _ListingRemoved(bytes32 listing);\n    event _ChallengeFailed(uint challengeID);\n    event _ChallengeSucceeded(uint challengeID);\n    event _RewardClaimed(address voter, uint challengeID, uint reward);\n\n    struct Listing {\n        uint applicationExpiry; // Expiration date of apply stage\n        bool whitelisted;       // Indicates registry status\n        address owner;          // Owner of Listing\n        uint unstakedDeposit;   // Number of unlocked tokens with potential risk if challenged\n        uint challengeID;       // Identifier of canonical challenge\n    }\n\n    struct Challenge {\n        uint rewardPool;        // (remaining) Pool of tokens distributed amongst winning voters\n        address challenger;     // Owner of Challenge\n        bool resolved;          // Indication of if challenge is resolved\n        uint stake;             // Number of tokens at risk for either party during challenge\n        uint totalTokens;       // (remaining) Amount of tokens used for voting by the winning side\n        mapping(address => bool) tokenClaims;\n    }\n\n    // Maps challengeIDs to associated challenge data\n    mapping(uint => Challenge) public challenges;\n\n    // Maps listingHashes to associated listing data\n    mapping(bytes32 => Listing) public listings;\n\n    // Global Variables\n    EIP20 public token;\n    PLCRVoting public voting;\n    Parameterizer public parameterizer;\n\n    // ------------\n    // CONSTRUCTOR:\n    // ------------\n\n    /**\n    @dev Contructor\n    @notice                 Sets the addresses for token, voting, and parameterizer\n    @param _tokenAddr       Address of the native ERC20 token (ADT)\n    @param _plcrAddr        Address of a PLCR voting contract for the provided token\n    @param _paramsAddr      Address of a Parameterizer contract for the provided PLCR voting contract\n    */\n    function Registry(\n        address _tokenAddr,\n        address _plcrAddr,\n        address _paramsAddr\n    ) public {\n        token = EIP20(_tokenAddr);\n        voting = PLCRVoting(_plcrAddr);\n        parameterizer = Parameterizer(_paramsAddr);\n    }\n\n    // --------------------\n    // PUBLISHER INTERFACE:\n    // --------------------\n\n    /**\n    @notice             Allows a user to start an application.\n    @notice             Takes tokens from user and sets apply stage end time.\n    @param _listing      The listing of a potential listing a user is applying to add to the registry\n    @param _amount      The number of ERC20 tokens a user is willing to potentially stake\n    */\n    function apply(string _listing, uint _amount) external {\n        bytes32 listingHash = keccak256(_listing);\n        require(!isWhitelisted(listingHash));\n        require(!appWasMade(listingHash));\n        require(_amount >= parameterizer.get(\"minDeposit\"));\n\n        // Sets owner\n        Listing storage listing = listings[listingHash];\n        listing.owner = msg.sender;\n\n        // Transfers tokens from user to Registry contract\n        require(token.transferFrom(listing.owner, this, _amount));\n\n        // Sets apply stage end time\n        listing.applicationExpiry = block.timestamp + parameterizer.get(\"applyStageLen\");\n        listing.unstakedDeposit = _amount;\n\n        _Application(_listing, _amount);\n    }\n\n    /**\n    @notice             Allows the owner of a listing to increase their unstaked deposit.\n    @param _listing      The listing of a user's application/listing\n    @param _amount      The number of ERC20 tokens to increase a user's unstaked deposit\n    */\n    function deposit(bytes32 _listing, uint _amount) external {\n        Listing storage listing = listings[_listing];\n\n        require(listing.owner == msg.sender);\n        require(token.transferFrom(msg.sender, this, _amount));\n\n        listing.unstakedDeposit += _amount;\n\n        _Deposit(_listing, _amount, listing.unstakedDeposit);\n    }\n\n    /**\n    @notice             Allows the owner of a listing to decrease their unstaked deposit.\n    @notice             The listing keeps its previous status.\n    @param _listing      The listing of a user's application/listing\n    @param _amount      The number of ERC20 tokens to decrease a user's unstaked deposit\n    */\n    function withdraw(bytes32 _listing, uint _amount) external {\n        Listing storage listing = listings[_listing];\n\n        require(listing.owner == msg.sender);\n        require(_amount <= listing.unstakedDeposit);\n        require(listing.unstakedDeposit - _amount >= parameterizer.get(\"minDeposit\"));\n\n        require(token.transfer(msg.sender, _amount));\n\n        listing.unstakedDeposit -= _amount;\n\n        _Withdrawal(_listing, _amount, listing.unstakedDeposit);\n    }\n\n    /**\n    @notice             Allows the owner of a listing to remove the listing from the whitelist\n    @notice             Returns all tokens to the owner of the listing\n    @param _listing      The listing of a user's listing\n    */\n    function exit(bytes32 _listing) external {\n        Listing storage listing = listings[_listing];\n\n        require(msg.sender == listing.owner);\n        require(isWhitelisted(_listing));\n\n        // Cannot exit during ongoing challenge\n        require(listing.challengeID == 0 || challenges[listing.challengeID].resolved);\n\n        // Remove listing & return tokens\n        resetListing(_listing);\n    }\n\n    // -----------------------\n    // TOKEN HOLDER INTERFACE:\n    // -----------------------\n\n    /**\n    @notice             Starts a poll for a listing which is either\n    @notice             in the apply stage or already in the whitelist.\n    @dev                Tokens are taken from the challenger and the applicant's deposit is locked.\n    @param _listing      The listing of an applicant's potential listing\n    */\n    function challenge(bytes32 _listing) external returns (uint challengeID) {\n        Listing storage listing = listings[_listing];\n        uint deposit = parameterizer.get(\"minDeposit\");\n\n        // Listing must be in apply stage or already on the whitelist\n        require(appWasMade(_listing) || listing.whitelisted);\n        // Prevent multiple challenges\n        require(listing.challengeID == 0 || challenges[listing.challengeID].resolved);\n\n        if (listing.unstakedDeposit < deposit) {\n            // Not enough tokens, listing auto-delisted\n            resetListing(_listing);\n            return 0;\n        }\n\n        // Takes tokens from challenger\n        require(token.transferFrom(msg.sender, this, deposit));\n\n        // Starts poll\n        uint pollID = voting.startPoll(\n            parameterizer.get(\"voteQuorum\"),\n            parameterizer.get(\"commitStageLen\"),\n            parameterizer.get(\"revealStageLen\")\n        );\n\n        challenges[pollID] = Challenge({\n            challenger: msg.sender,\n            rewardPool: ((100 - parameterizer.get(\"dispensationPct\")) * deposit) / 100,\n            stake: deposit,\n            resolved: false,\n            totalTokens: 0\n        });\n\n        // Updates listing to store most recent challenge\n        listings[_listing].challengeID = pollID;\n\n        // Locks tokens for listing during challenge\n        listings[_listing].unstakedDeposit -= deposit;\n\n        _Challenge(_listing, deposit, pollID);\n        return pollID;\n    }\n\n    /**\n    @notice             Updates a listing's status from 'application' to 'listing'\n    @notice             or resolves a challenge if one exists.\n    @param _listing      The listing whose status is being updated\n    */\n    function updateStatus(bytes32 _listing) public {\n        if (canBeWhitelisted(_listing)) {\n          whitelistApplication(_listing);\n          _NewListingWhitelisted(_listing);\n        } else if (challengeCanBeResolved(_listing)) {\n          resolveChallenge(_listing);\n        } else {\n          revert();\n        }\n    }\n\n    // ----------------\n    // TOKEN FUNCTIONS:\n    // ----------------\n\n    /**\n    @notice             Called by a voter to claim his/her reward for each completed vote.\n    @dev                Someone must call updateStatus() before this can be called.\n    @param _challengeID The pollID of the challenge a reward is being claimed for\n    @param _salt        The salt of a voter's commit hash in the given poll\n    */\n    function claimReward(uint _challengeID, uint _salt) public {\n        // Ensures the voter has not already claimed tokens and challenge results have been processed\n        require(challenges[_challengeID].tokenClaims[msg.sender] == false);\n        require(challenges[_challengeID].resolved == true);\n\n        uint voterTokens = voting.getNumPassingTokens(msg.sender, _challengeID, _salt);\n        uint reward = voterReward(msg.sender, _challengeID, _salt);\n\n        // Subtracts the voter's information to preserve the participation ratios\n        // of other voters compared to the remaining pool of rewards\n        challenges[_challengeID].totalTokens -= voterTokens;\n        challenges[_challengeID].rewardPool -= reward;\n\n        require(token.transfer(msg.sender, reward));\n\n        // Ensures a voter cannot claim tokens again\n        challenges[_challengeID].tokenClaims[msg.sender] = true;\n\n        _RewardClaimed(msg.sender, _challengeID, reward);\n    }\n\n    /**\n    @dev                Calculates the provided voter's token reward for the given poll.\n    @param _voter       The address of the voter whose reward balance is to be returned\n    @param _challengeID The pollID of the challenge a reward balance is being queried for\n    @param _salt        The salt of the voter's commit hash in the given poll\n    @return             The uint indicating the voter's reward (in nano-ADT)\n    */\n    function voterReward(address _voter, uint _challengeID, uint _salt)\n    public view returns (uint) {\n        uint totalTokens = challenges[_challengeID].totalTokens;\n        uint rewardPool = challenges[_challengeID].rewardPool;\n        uint voterTokens = voting.getNumPassingTokens(_voter, _challengeID, _salt);\n        return (voterTokens * rewardPool) / totalTokens;\n    }\n\n    // --------\n    // GETTERS:\n    // --------\n\n    // @dev \n    // 0 doesn't exist\n    // 1 application\n    // 2 challenge\n    // 3 registered (whitelist)\n    function getStatus(bytes32 _listing) constant public returns (uint status) {\n        if (isWhitelisted(_listing)) {\n            return 3;\n        } else if (challengeExists(_listing)) {\n            return 2;\n        } else if (appWasMade(_listing)) {\n            return 1;\n        }\n        return 0;\n    }\n\n    /**\n    @dev                Determines whether the listing of an application can be whitelisted.\n    @param _listing      The listing whose status should be examined\n    */\n    function canBeWhitelisted(bytes32 _listing) view public returns (bool) {\n        uint challengeID = listings[_listing].challengeID;\n\n        // Ensures that the application was made,\n        // the application period has ended,\n        // the listing can be whitelisted,\n        // and either: the challengeID == 0, or the challenge has been resolved.\n        if (\n            appWasMade(_listing) &&\n            isExpired(listings[_listing].applicationExpiry) &&\n            !isWhitelisted(_listing) &&\n            (challengeID == 0 || challenges[challengeID].resolved == true)\n        ) { return true; }\n\n        return false;\n    }\n\n    // Returns true if listing is whitelisted\n    function isWhitelisted(bytes32 _listing) view public returns (bool whitelisted) {\n        return listings[_listing].whitelisted;\n    }\n\n    // Returns true if apply(listing) was called for this listing\n    function appWasMade(bytes32 _listing) view public returns (bool exists) {\n        return listings[_listing].applicationExpiry > 0;\n    }\n\n    // Returns true if the application/listing has an unresolved challenge\n    function challengeExists(bytes32 _listing) view public returns (bool) {\n        uint challengeID = listings[_listing].challengeID;\n\n        return (listings[_listing].challengeID > 0 && !challenges[challengeID].resolved);\n    }\n\n    /**\n    @notice             Determines whether voting has concluded in a challenge for a given listing.\n    @dev                Throws if no challenge exists.\n    @param _listing      A listing with an unresolved challenge\n    */\n    function challengeCanBeResolved(bytes32 _listing) view public returns (bool) {\n        uint challengeID = listings[_listing].challengeID;\n\n        require(challengeExists(_listing));\n\n        return voting.pollEnded(challengeID);\n    }\n\n    /**\n    @notice             Determines the number of tokens awarded to the winning party in a challenge.\n    @param _challengeID The challengeID to determine a reward for\n    */\n    function determineReward(uint _challengeID) public view returns (uint) {\n        require(!challenges[_challengeID].resolved && voting.pollEnded(_challengeID));\n\n        // Edge case, nobody voted, give all tokens to the challenger.\n        if (voting.getTotalNumberOfTokensForWinningOption(_challengeID) == 0) {\n            return 2 * challenges[_challengeID].stake;\n        }\n\n        return (2 * challenges[_challengeID].stake) - challenges[_challengeID].rewardPool;\n    }\n\n    function tokenClaims(uint _challengeID, address _voter) public view returns (bool) {\n      return challenges[_challengeID].tokenClaims[_voter];\n    }\n\n    // Returns true if the provided termDate has passed\n    function isExpired(uint _termDate) view public returns (bool expired) {\n        return _termDate < block.timestamp;\n    }\n\n    // Deletes a listing from the whitelist and transfers tokens back to owner\n    function resetListing(bytes32 _listing) internal {\n        Listing storage listing = listings[_listing];\n\n        // Transfers any remaining balance back to the owner\n        if (listing.unstakedDeposit > 0)\n            require(token.transfer(listing.owner, listing.unstakedDeposit));\n\n        delete listings[_listing];\n    }\n\n    // ----------------\n    // PRIVATE FUNCTIONS:\n    // ----------------\n\n    /**\n    @notice             Determines the winner in a challenge.\n    @notice             Rewards the winner tokens and either whitelists or de-whitelists the listing.\n    @param _listing      A listing with a challenge that is to be resolved\n    */\n    function resolveChallenge(bytes32 _listing) private {\n        uint challengeID = listings[_listing].challengeID;\n\n        // Calculates the winner's reward,\n        // which is: (winner's full stake) + (dispensationPct * loser's stake)\n        uint reward = determineReward(challengeID);\n\n        // Records whether the listing is a listing or an application\n        bool wasWhitelisted = isWhitelisted(_listing);\n\n        // Case: challenge failed\n        if (voting.isPassed(challengeID)) {\n            whitelistApplication(_listing);\n            // Unlock stake so that it can be retrieved by the applicant\n            listings[_listing].unstakedDeposit += reward;\n\n            _ChallengeFailed(challengeID);\n            if (!wasWhitelisted) { _NewListingWhitelisted(_listing); }\n        }\n        // Case: challenge succeeded\n        else {\n            resetListing(_listing);\n            // Transfer the reward to the challenger\n            require(token.transfer(challenges[challengeID].challenger, reward));\n\n            _ChallengeSucceeded(challengeID);\n            if (wasWhitelisted) { _ListingRemoved(_listing); }\n            else { _ApplicationRemoved(_listing); }\n        }\n\n        // Sets flag on challenge being processed\n        challenges[challengeID].resolved = true;\n\n        // Stores the total tokens used for voting by the winning side for reward purposes\n        challenges[challengeID].totalTokens =\n            voting.getTotalNumberOfTokensForWinningOption(challengeID);\n    }\n\n    /**\n    @dev                Called by updateStatus() if the applicationExpiry date passed without a challenge being made.\n    @dev                Called by resolveChallenge() if an application/listing beat a challenge.\n    @param _listing      The listing of an application/listing to be whitelisted\n    */\n    function whitelistApplication(bytes32 _listing) private {\n        listings[_listing].whitelisted = true;\n    }\n}\n",
  "sourcePath": "/home/isaac/Desktop/Projects/token-curated-registry/contracts/Registry.sol",
  "compiler": {
    "name": "solc",
    "version": "0.4.18+commit.9cf6e910.Emscripten.clang"
  },
  "schemaVersion": "1.0.1",
  "updatedAt": "2018-01-12T20:22:34.941Z"
}